{
  "address": "0x29032812cc9AC00ebaa65550A406c7cf363C2936",
  "abi": [
    {
      "inputs": [],
      "stateMutability": "nonpayable",
      "type": "constructor"
    },
    {
      "anonymous": false,
      "inputs": [
        {
          "indexed": true,
          "internalType": "address",
          "name": "user",
          "type": "address"
        },
        {
          "indexed": false,
          "internalType": "uint256",
          "name": "newMinNonce",
          "type": "uint256"
        }
      ],
      "name": "CancelAllOrders",
      "type": "event"
    },
    {
      "anonymous": false,
      "inputs": [
        {
          "indexed": true,
          "internalType": "address",
          "name": "user",
          "type": "address"
        },
        {
          "indexed": false,
          "internalType": "uint256[]",
          "name": "orderNonces",
          "type": "uint256[]"
        }
      ],
      "name": "CancelMultipleOrders",
      "type": "event"
    },
    {
      "anonymous": false,
      "inputs": [
        {
          "indexed": false,
          "internalType": "uint8",
          "name": "version",
          "type": "uint8"
        }
      ],
      "name": "Initialized",
      "type": "event"
    },
    {
      "anonymous": false,
      "inputs": [
        {
          "indexed": true,
          "internalType": "address",
          "name": "currencyManager",
          "type": "address"
        }
      ],
      "name": "NewCurrencyManager",
      "type": "event"
    },
    {
      "anonymous": false,
      "inputs": [
        {
          "indexed": true,
          "internalType": "address",
          "name": "executionManager",
          "type": "address"
        }
      ],
      "name": "NewExecutionManager",
      "type": "event"
    },
    {
      "anonymous": false,
      "inputs": [
        {
          "indexed": true,
          "internalType": "address",
          "name": "protocolFeeRecipient",
          "type": "address"
        }
      ],
      "name": "NewProtocolFeeRecipient",
      "type": "event"
    },
    {
      "anonymous": false,
      "inputs": [
        {
          "indexed": true,
          "internalType": "address",
          "name": "royaltyFeeManager",
          "type": "address"
        }
      ],
      "name": "NewRoyaltyFeeManager",
      "type": "event"
    },
    {
      "anonymous": false,
      "inputs": [
        {
          "indexed": true,
          "internalType": "address",
          "name": "transferSelectorNFT",
          "type": "address"
        }
      ],
      "name": "NewTransferSelectorNFT",
      "type": "event"
    },
    {
      "anonymous": false,
      "inputs": [
        {
          "indexed": true,
          "internalType": "bytes32",
          "name": "role",
          "type": "bytes32"
        },
        {
          "indexed": true,
          "internalType": "bytes32",
          "name": "previousAdminRole",
          "type": "bytes32"
        },
        {
          "indexed": true,
          "internalType": "bytes32",
          "name": "newAdminRole",
          "type": "bytes32"
        }
      ],
      "name": "RoleAdminChanged",
      "type": "event"
    },
    {
      "anonymous": false,
      "inputs": [
        {
          "indexed": true,
          "internalType": "bytes32",
          "name": "role",
          "type": "bytes32"
        },
        {
          "indexed": true,
          "internalType": "address",
          "name": "account",
          "type": "address"
        },
        {
          "indexed": true,
          "internalType": "address",
          "name": "sender",
          "type": "address"
        }
      ],
      "name": "RoleGranted",
      "type": "event"
    },
    {
      "anonymous": false,
      "inputs": [
        {
          "indexed": true,
          "internalType": "bytes32",
          "name": "role",
          "type": "bytes32"
        },
        {
          "indexed": true,
          "internalType": "address",
          "name": "account",
          "type": "address"
        },
        {
          "indexed": true,
          "internalType": "address",
          "name": "sender",
          "type": "address"
        }
      ],
      "name": "RoleRevoked",
      "type": "event"
    },
    {
      "anonymous": false,
      "inputs": [
        {
          "indexed": true,
          "internalType": "address",
          "name": "collection",
          "type": "address"
        },
        {
          "indexed": true,
          "internalType": "uint256",
          "name": "tokenId",
          "type": "uint256"
        },
        {
          "indexed": true,
          "internalType": "address",
          "name": "royaltyRecipient",
          "type": "address"
        },
        {
          "indexed": false,
          "internalType": "address",
          "name": "currency",
          "type": "address"
        },
        {
          "indexed": false,
          "internalType": "uint256",
          "name": "amount",
          "type": "uint256"
        }
      ],
      "name": "RoyaltyPayment",
      "type": "event"
    },
    {
      "anonymous": false,
      "inputs": [
        {
          "indexed": false,
          "internalType": "bytes32",
          "name": "orderHash",
          "type": "bytes32"
        },
        {
          "indexed": false,
          "internalType": "uint256",
          "name": "orderNonce",
          "type": "uint256"
        },
        {
          "indexed": true,
          "internalType": "address",
          "name": "taker",
          "type": "address"
        },
        {
          "indexed": true,
          "internalType": "address",
          "name": "maker",
          "type": "address"
        },
        {
          "indexed": true,
          "internalType": "address",
          "name": "strategy",
          "type": "address"
        },
        {
          "indexed": false,
          "internalType": "address",
          "name": "currency",
          "type": "address"
        },
        {
          "indexed": false,
          "internalType": "address",
          "name": "collection",
          "type": "address"
        },
        {
          "indexed": false,
          "internalType": "uint256",
          "name": "tokenId",
          "type": "uint256"
        },
        {
          "indexed": false,
          "internalType": "uint256",
          "name": "amount",
          "type": "uint256"
        },
        {
          "indexed": false,
          "internalType": "uint256",
          "name": "price",
          "type": "uint256"
        }
      ],
      "name": "TakerAsk",
      "type": "event"
    },
    {
      "anonymous": false,
      "inputs": [
        {
          "indexed": false,
          "internalType": "bytes32",
          "name": "orderHash",
          "type": "bytes32"
        },
        {
          "indexed": false,
          "internalType": "uint256",
          "name": "orderNonce",
          "type": "uint256"
        },
        {
          "indexed": true,
          "internalType": "address",
          "name": "taker",
          "type": "address"
        },
        {
          "indexed": true,
          "internalType": "address",
          "name": "maker",
          "type": "address"
        },
        {
          "indexed": true,
          "internalType": "address",
          "name": "strategy",
          "type": "address"
        },
        {
          "indexed": false,
          "internalType": "address",
          "name": "currency",
          "type": "address"
        },
        {
          "indexed": false,
          "internalType": "address",
          "name": "collection",
          "type": "address"
        },
        {
          "indexed": false,
          "internalType": "uint256",
          "name": "tokenId",
          "type": "uint256"
        },
        {
          "indexed": false,
          "internalType": "uint256",
          "name": "amount",
          "type": "uint256"
        },
        {
          "indexed": false,
          "internalType": "uint256",
          "name": "price",
          "type": "uint256"
        }
      ],
      "name": "TakerBid",
      "type": "event"
    },
    {
      "inputs": [],
      "name": "DEFAULT_ADMIN_ROLE",
      "outputs": [
        {
          "internalType": "bytes32",
          "name": "",
          "type": "bytes32"
        }
      ],
      "stateMutability": "view",
      "type": "function"
    },
    {
      "inputs": [],
      "name": "DOMAIN_SEPARATOR",
      "outputs": [
        {
          "internalType": "bytes32",
          "name": "",
          "type": "bytes32"
        }
      ],
      "stateMutability": "view",
      "type": "function"
    },
    {
      "inputs": [],
      "name": "WETH",
      "outputs": [
        {
          "internalType": "address",
          "name": "",
          "type": "address"
        }
      ],
      "stateMutability": "view",
      "type": "function"
    },
    {
      "inputs": [
        {
          "internalType": "uint256",
          "name": "minNonce",
          "type": "uint256"
        }
      ],
      "name": "cancelAllOrdersForSender",
      "outputs": [],
      "stateMutability": "nonpayable",
      "type": "function"
    },
    {
      "inputs": [
        {
          "internalType": "uint256[]",
          "name": "orderNonces",
          "type": "uint256[]"
        }
      ],
      "name": "cancelMultipleMakerOrders",
      "outputs": [],
      "stateMutability": "nonpayable",
      "type": "function"
    },
    {
      "inputs": [],
      "name": "currencyManager",
      "outputs": [
        {
          "internalType": "contract ICurrencyManager",
          "name": "",
          "type": "address"
        }
      ],
      "stateMutability": "view",
      "type": "function"
    },
    {
      "inputs": [],
      "name": "executionManager",
      "outputs": [
        {
          "internalType": "contract IExecutionManager",
          "name": "",
          "type": "address"
        }
      ],
      "stateMutability": "view",
      "type": "function"
    },
    {
      "inputs": [
        {
          "internalType": "bytes32",
          "name": "role",
          "type": "bytes32"
        }
      ],
      "name": "getRoleAdmin",
      "outputs": [
        {
          "internalType": "bytes32",
          "name": "",
          "type": "bytes32"
        }
      ],
      "stateMutability": "view",
      "type": "function"
    },
    {
      "inputs": [
        {
          "internalType": "bytes32",
          "name": "role",
          "type": "bytes32"
        },
        {
          "internalType": "address",
          "name": "account",
          "type": "address"
        }
      ],
      "name": "grantRole",
      "outputs": [],
      "stateMutability": "nonpayable",
      "type": "function"
    },
    {
      "inputs": [
        {
          "internalType": "bytes32",
          "name": "role",
          "type": "bytes32"
        },
        {
          "internalType": "address",
          "name": "account",
          "type": "address"
        }
      ],
      "name": "hasRole",
      "outputs": [
        {
          "internalType": "bool",
          "name": "",
          "type": "bool"
        }
      ],
      "stateMutability": "view",
      "type": "function"
    },
    {
      "inputs": [
        {
          "internalType": "address",
          "name": "owner",
          "type": "address"
        },
        {
          "internalType": "address",
          "name": "_currencyManager",
          "type": "address"
        },
        {
          "internalType": "address",
          "name": "_executionManager",
          "type": "address"
        },
        {
          "internalType": "address",
          "name": "_royaltyFeeManager",
          "type": "address"
        },
        {
          "internalType": "address",
          "name": "_WETH",
          "type": "address"
        },
        {
          "internalType": "address",
          "name": "_protocolFeeRecipient",
          "type": "address"
        }
      ],
      "name": "initialize",
      "outputs": [],
      "stateMutability": "nonpayable",
      "type": "function"
    },
    {
      "inputs": [
        {
          "internalType": "address",
          "name": "user",
          "type": "address"
        },
        {
          "internalType": "uint256",
          "name": "orderNonce",
          "type": "uint256"
        }
      ],
      "name": "isUserOrderNonceExecutedOrCancelled",
      "outputs": [
        {
          "internalType": "bool",
          "name": "",
          "type": "bool"
        }
      ],
      "stateMutability": "view",
      "type": "function"
    },
    {
      "inputs": [
        {
          "components": [
            {
              "internalType": "bool",
              "name": "isOrderAsk",
              "type": "bool"
            },
            {
              "internalType": "address",
              "name": "taker",
              "type": "address"
            },
            {
              "internalType": "uint256",
              "name": "price",
              "type": "uint256"
            },
            {
              "internalType": "uint256",
              "name": "tokenId",
              "type": "uint256"
            },
            {
              "internalType": "uint256",
              "name": "minPercentageToAsk",
              "type": "uint256"
            },
            {
              "internalType": "bytes",
              "name": "params",
              "type": "bytes"
            }
          ],
          "internalType": "struct OrderTypes.TakerOrder",
          "name": "takerBid",
          "type": "tuple"
        },
        {
          "components": [
            {
              "internalType": "bool",
              "name": "isOrderAsk",
              "type": "bool"
            },
            {
              "internalType": "address",
              "name": "signer",
              "type": "address"
            },
            {
              "internalType": "address",
              "name": "collection",
              "type": "address"
            },
            {
              "internalType": "uint256",
              "name": "price",
              "type": "uint256"
            },
            {
              "internalType": "uint256",
              "name": "tokenId",
              "type": "uint256"
            },
            {
              "internalType": "uint256",
              "name": "amount",
              "type": "uint256"
            },
            {
              "internalType": "address",
              "name": "strategy",
              "type": "address"
            },
            {
              "internalType": "address",
              "name": "currency",
              "type": "address"
            },
            {
              "internalType": "uint256",
              "name": "nonce",
              "type": "uint256"
            },
            {
              "internalType": "uint256",
              "name": "startTime",
              "type": "uint256"
            },
            {
              "internalType": "uint256",
              "name": "endTime",
              "type": "uint256"
            },
            {
              "internalType": "uint256",
              "name": "minPercentageToAsk",
              "type": "uint256"
            },
            {
              "internalType": "bytes",
              "name": "params",
              "type": "bytes"
            },
            {
              "internalType": "uint8",
              "name": "v",
              "type": "uint8"
            },
            {
              "internalType": "bytes32",
              "name": "r",
              "type": "bytes32"
            },
            {
              "internalType": "bytes32",
              "name": "s",
              "type": "bytes32"
            }
          ],
          "internalType": "struct OrderTypes.MakerOrder",
          "name": "makerAsk",
          "type": "tuple"
        }
      ],
      "name": "matchAskWithTakerBid",
      "outputs": [],
      "stateMutability": "nonpayable",
      "type": "function"
    },
    {
      "inputs": [
        {
          "components": [
            {
              "internalType": "bool",
              "name": "isOrderAsk",
              "type": "bool"
            },
            {
              "internalType": "address",
              "name": "taker",
              "type": "address"
            },
            {
              "internalType": "uint256",
              "name": "price",
              "type": "uint256"
            },
            {
              "internalType": "uint256",
              "name": "tokenId",
              "type": "uint256"
            },
            {
              "internalType": "uint256",
              "name": "minPercentageToAsk",
              "type": "uint256"
            },
            {
              "internalType": "bytes",
              "name": "params",
              "type": "bytes"
            }
          ],
          "internalType": "struct OrderTypes.TakerOrder",
          "name": "takerBid",
          "type": "tuple"
        },
        {
          "components": [
            {
              "internalType": "bool",
              "name": "isOrderAsk",
              "type": "bool"
            },
            {
              "internalType": "address",
              "name": "signer",
              "type": "address"
            },
            {
              "internalType": "address",
              "name": "collection",
              "type": "address"
            },
            {
              "internalType": "uint256",
              "name": "price",
              "type": "uint256"
            },
            {
              "internalType": "uint256",
              "name": "tokenId",
              "type": "uint256"
            },
            {
              "internalType": "uint256",
              "name": "amount",
              "type": "uint256"
            },
            {
              "internalType": "address",
              "name": "strategy",
              "type": "address"
            },
            {
              "internalType": "address",
              "name": "currency",
              "type": "address"
            },
            {
              "internalType": "uint256",
              "name": "nonce",
              "type": "uint256"
            },
            {
              "internalType": "uint256",
              "name": "startTime",
              "type": "uint256"
            },
            {
              "internalType": "uint256",
              "name": "endTime",
              "type": "uint256"
            },
            {
              "internalType": "uint256",
              "name": "minPercentageToAsk",
              "type": "uint256"
            },
            {
              "internalType": "bytes",
              "name": "params",
              "type": "bytes"
            },
            {
              "internalType": "uint8",
              "name": "v",
              "type": "uint8"
            },
            {
              "internalType": "bytes32",
              "name": "r",
              "type": "bytes32"
            },
            {
              "internalType": "bytes32",
              "name": "s",
              "type": "bytes32"
            }
          ],
          "internalType": "struct OrderTypes.MakerOrder",
          "name": "makerAsk",
          "type": "tuple"
        }
      ],
      "name": "matchAskWithTakerBidUsingETHAndWETH",
      "outputs": [],
      "stateMutability": "payable",
      "type": "function"
    },
    {
      "inputs": [
        {
          "components": [
            {
              "internalType": "bool",
              "name": "isOrderAsk",
              "type": "bool"
            },
            {
              "internalType": "address",
              "name": "taker",
              "type": "address"
            },
            {
              "internalType": "uint256",
              "name": "price",
              "type": "uint256"
            },
            {
              "internalType": "uint256",
              "name": "tokenId",
              "type": "uint256"
            },
            {
              "internalType": "uint256",
              "name": "minPercentageToAsk",
              "type": "uint256"
            },
            {
              "internalType": "bytes",
              "name": "params",
              "type": "bytes"
            }
          ],
          "internalType": "struct OrderTypes.TakerOrder",
          "name": "takerAsk",
          "type": "tuple"
        },
        {
          "components": [
            {
              "internalType": "bool",
              "name": "isOrderAsk",
              "type": "bool"
            },
            {
              "internalType": "address",
              "name": "signer",
              "type": "address"
            },
            {
              "internalType": "address",
              "name": "collection",
              "type": "address"
            },
            {
              "internalType": "uint256",
              "name": "price",
              "type": "uint256"
            },
            {
              "internalType": "uint256",
              "name": "tokenId",
              "type": "uint256"
            },
            {
              "internalType": "uint256",
              "name": "amount",
              "type": "uint256"
            },
            {
              "internalType": "address",
              "name": "strategy",
              "type": "address"
            },
            {
              "internalType": "address",
              "name": "currency",
              "type": "address"
            },
            {
              "internalType": "uint256",
              "name": "nonce",
              "type": "uint256"
            },
            {
              "internalType": "uint256",
              "name": "startTime",
              "type": "uint256"
            },
            {
              "internalType": "uint256",
              "name": "endTime",
              "type": "uint256"
            },
            {
              "internalType": "uint256",
              "name": "minPercentageToAsk",
              "type": "uint256"
            },
            {
              "internalType": "bytes",
              "name": "params",
              "type": "bytes"
            },
            {
              "internalType": "uint8",
              "name": "v",
              "type": "uint8"
            },
            {
              "internalType": "bytes32",
              "name": "r",
              "type": "bytes32"
            },
            {
              "internalType": "bytes32",
              "name": "s",
              "type": "bytes32"
            }
          ],
          "internalType": "struct OrderTypes.MakerOrder",
          "name": "makerBid",
          "type": "tuple"
        }
      ],
      "name": "matchBidWithTakerAsk",
      "outputs": [],
      "stateMutability": "nonpayable",
      "type": "function"
    },
    {
      "inputs": [],
      "name": "protocolFeeRecipient",
      "outputs": [
        {
          "internalType": "address",
          "name": "",
          "type": "address"
        }
      ],
      "stateMutability": "view",
      "type": "function"
    },
    {
      "inputs": [
        {
          "internalType": "bytes32",
          "name": "role",
          "type": "bytes32"
        },
        {
          "internalType": "address",
          "name": "account",
          "type": "address"
        }
      ],
      "name": "renounceRole",
      "outputs": [],
      "stateMutability": "nonpayable",
      "type": "function"
    },
    {
      "inputs": [
        {
          "internalType": "bytes32",
          "name": "role",
          "type": "bytes32"
        },
        {
          "internalType": "address",
          "name": "account",
          "type": "address"
        }
      ],
      "name": "revokeRole",
      "outputs": [],
      "stateMutability": "nonpayable",
      "type": "function"
    },
    {
      "inputs": [],
      "name": "royaltyFeeManager",
      "outputs": [
        {
          "internalType": "contract IRoyaltyFeeManager",
          "name": "",
          "type": "address"
        }
      ],
      "stateMutability": "view",
      "type": "function"
    },
    {
      "inputs": [
        {
          "internalType": "bytes4",
          "name": "interfaceId",
          "type": "bytes4"
        }
      ],
      "name": "supportsInterface",
      "outputs": [
        {
          "internalType": "bool",
          "name": "",
          "type": "bool"
        }
      ],
      "stateMutability": "view",
      "type": "function"
    },
    {
      "inputs": [],
      "name": "transferSelectorNFT",
      "outputs": [
        {
          "internalType": "contract ITransferSelectorNFT",
          "name": "",
          "type": "address"
        }
      ],
      "stateMutability": "view",
      "type": "function"
    },
    {
      "inputs": [
        {
          "internalType": "address",
          "name": "_currencyManager",
          "type": "address"
        }
      ],
      "name": "updateCurrencyManager",
      "outputs": [],
      "stateMutability": "nonpayable",
      "type": "function"
    },
    {
      "inputs": [
        {
          "internalType": "address",
          "name": "_executionManager",
          "type": "address"
        }
      ],
      "name": "updateExecutionManager",
      "outputs": [],
      "stateMutability": "nonpayable",
      "type": "function"
    },
    {
      "inputs": [
        {
          "internalType": "address",
          "name": "_protocolFeeRecipient",
          "type": "address"
        }
      ],
      "name": "updateProtocolFeeRecipient",
      "outputs": [],
      "stateMutability": "nonpayable",
      "type": "function"
    },
    {
      "inputs": [
        {
          "internalType": "address",
          "name": "_royaltyFeeManager",
          "type": "address"
        }
      ],
      "name": "updateRoyaltyFeeManager",
      "outputs": [],
      "stateMutability": "nonpayable",
      "type": "function"
    },
    {
      "inputs": [
        {
          "internalType": "address",
          "name": "_transferSelectorNFT",
          "type": "address"
        }
      ],
      "name": "updateTransferSelectorNFT",
      "outputs": [],
      "stateMutability": "nonpayable",
      "type": "function"
    },
    {
      "inputs": [],
      "name": "updateWBNB",
      "outputs": [],
      "stateMutability": "nonpayable",
      "type": "function"
    },
    {
      "inputs": [
        {
          "internalType": "address",
          "name": "",
          "type": "address"
        }
      ],
      "name": "userMinOrderNonce",
      "outputs": [
        {
          "internalType": "uint256",
          "name": "",
          "type": "uint256"
        }
      ],
      "stateMutability": "view",
      "type": "function"
    }
  ],
  "transactionHash": "0x6d51fd8fbb0a7cd16bd7c3058508836aa66ff3e8106cf2977e646624f1169e91",
  "args": [],
  "numDeployments": 3,
  "solcInputHash": "27d2decf6703e818b0febabd6eb88198",
  "bytecode": "0x60806040523480156200001157600080fd5b506200001c62000022565b620000e4565b600054610100900460ff16156200008f5760405162461bcd60e51b815260206004820152602760248201527f496e697469616c697a61626c653a20636f6e747261637420697320696e697469604482015266616c697a696e6760c81b606482015260840160405180910390fd5b60005460ff9081161015620000e2576000805460ff191660ff9081179091556040519081527f7f26b83ff96e1f2b6a682f133852f6798a09c465da95921460cefb38474024989060200160405180910390a15b565b61392580620000f46000396000f3fe6080604052600436106101b75760003560e01c806364df049e116100ec578063b4e4b2961161008a578063cc2a9a5b11610064578063cc2a9a5b14610532578063d4ff41dc14610552578063d547741f14610572578063f75ff53f1461059257600080fd5b8063b4e4b296146104df578063c5498769146104f2578063cbd2ec651461051257600080fd5b806391d14854116100c657806391d148541461046a5780639e53a69a1461048a578063a217fddf146104aa578063ad5c4648146104bf57600080fd5b806364df049e146103f2578063869232621461041257806387e4401f1461044a57600080fd5b806336568abe116101595780634266581e116101335780634266581e14610365578063483abb9f146103925780635ce052d7146103b25780635e14f68e146103d257600080fd5b806336568abe1461030557806338e29209146103255780633b6d032e1461034557600080fd5b8063248a9ca311610195578063248a9ca31461024b5780632f2ff15d1461028957806331e27e27146102a95780633644e515146102ef57600080fd5b806301ffc9a7146101bc5780630f747d74146101f15780631df47f8014610229575b600080fd5b3480156101c857600080fd5b506101dc6101d7366004613028565b6105b2565b60405190151581526020015b60405180910390f35b3480156101fd57600080fd5b5060cc54610211906001600160a01b031681565b6040516001600160a01b0390911681526020016101e8565b34801561023557600080fd5b50610249610244366004612de3565b6105e9565b005b34801561025757600080fd5b5061027b610266366004612fdf565b60009081526065602052604090206001015490565b6040519081526020016101e8565b34801561029557600080fd5b506102496102a4366004612ff8565b61063f565b3480156102b557600080fd5b506101dc6102c4366004612e9f565b6001600160a01b0391909116600090815260d160209081526040808320938352929052205460ff1690565b3480156102fb57600080fd5b5061027b60ca5481565b34801561031157600080fd5b50610249610320366004612ff8565b610669565b34801561033157600080fd5b50610249610340366004613062565b6106ec565b34801561035157600080fd5b50610249610360366004613062565b610acf565b34801561037157600080fd5b5061027b610380366004612de3565b60d06020526000908152604090205481565b34801561039e57600080fd5b5060cd54610211906001600160a01b031681565b3480156103be57600080fd5b506102496103cd366004612de3565b610db6565b3480156103de57600080fd5b5060cf54610211906001600160a01b031681565b3480156103fe57600080fd5b5060cb54610211906001600160a01b031681565b34801561041e57600080fd5b5061024960c980546001600160a01b03191673ae13d989dac2f0debff460ac112a837c89baa7cd179055565b34801561045657600080fd5b5060ce54610211906001600160a01b031681565b34801561047657600080fd5b506101dc610485366004612ff8565b610e32565b34801561049657600080fd5b506102496104a5366004612ef9565b610e5d565b3480156104b657600080fd5b5061027b600081565b3480156104cb57600080fd5b5060c954610211906001600160a01b031681565b6102496104ed366004613062565b610fa7565b3480156104fe57600080fd5b5061024961050d366004612de3565b61130b565b34801561051e57600080fd5b5061024961052d366004612fdf565b611387565b34801561053e57600080fd5b5061024961054d366004612e1d565b611479565b34801561055e57600080fd5b5061024961056d366004612de3565b6116b7565b34801561057e57600080fd5b5061024961058d366004612ff8565b611733565b34801561059e57600080fd5b506102496105ad366004612de3565b611758565b60006001600160e01b03198216637965db0b60e01b14806105e357506301ffc9a760e01b6001600160e01b03198316145b92915050565b60006105f4816117d4565b60cb80546001600160a01b0319166001600160a01b0384169081179091556040517f8cffb07faa2874440346743bdc0a86b06c3335cc47dc49b327d10e77b73ceb1090600090a25050565b60008281526065602052604090206001015461065a816117d4565b61066483836117e1565b505050565b6001600160a01b03811633146106de5760405162461bcd60e51b815260206004820152602f60248201527f416363657373436f6e74726f6c3a2063616e206f6e6c792072656e6f756e636560448201526e103937b632b9903337b91039b2b63360891b60648201526084015b60405180910390fd5b6106e88282611867565b5050565b6106f46118ce565b6107016020820182612f6e565b801561071757506107156020830183612f6e565b155b6107335760405162461bcd60e51b81526004016106d590613472565b6107436040830160208401612de3565b6001600160a01b0316336001600160a01b0316146107735760405162461bcd60e51b81526004016106d590613557565b600061078661078183613705565b611928565b905061079282826119cf565b600080806107a660e0860160c08701612de3565b6001600160a01b031663865781ca87876040518363ffffffff1660e01b81526004016107d39291906135f9565b60606040518083038186803b1580156107eb57600080fd5b505afa1580156107ff573d6000803e3d6000fd5b505050506040513d601f19601f820116820180604052508101906108239190612fa8565b925092509250826108465760405162461bcd60e51b81526004016106d5906134d5565b600160d1600061085c6040890160208a01612de3565b6001600160a01b03168152602080820192909252604090810160009081206101008a013582529092529020805460ff19169115159190911790556108fc6108a960e0870160c08801612de3565b6040516359cb502960e11b906108c59089908b906024016135d4565b60408051601f198184030181529190526020810180516001600160e01b03166001600160e01b031990931692909217909152611d9d565b61095261090f60e0870160c08801612de3565b61091f6060880160408901612de3565b846109316101008a0160e08b01612de3565b3361094260408c0160208d01612de3565b8c604001358c6101600135611dcf565b61098161096560e0870160c08801612de3565b60405163041a318160e41b906108c59089908b906024016135d4565b6109bb6109946060870160408801612de3565b6109a46040880160208901612de3565b6109b460408a0160208b01612de3565b8585611fe1565b6109ea6109ce60e0870160c08801612de3565b60405163047a67ff60e21b906108c59089908b906024016135d4565b6109fa60e0860160c08701612de3565b6001600160a01b0316610a136040870160208801612de3565b6001600160a01b0316610a2c6040890160208a01612de3565b6001600160a01b03167f95fb6205e23ff6bda16a2d1dba56b9ad7c783f67c96fa149785052f47696f2be876101008a01803590610a6c9060e08d01612de3565b610a7c60608d0160408e01612de3565b6040805194855260208501939093526001600160a01b03918216848401521660608301526080820188905260a082018790528b013560c082015260e00160405180910390a4505050506106e86001609755565b610ad76118ce565b610ae46020820182612f6e565b158015610af95750610af96020830183612f6e565b610b155760405162461bcd60e51b81526004016106d590613472565b610b256040830160208401612de3565b6001600160a01b0316336001600160a01b031614610b555760405162461bcd60e51b81526004016106d590613557565b6000610b6361078183613705565b9050610b6f82826119cf565b60008080610b8360e0860160c08701612de3565b6001600160a01b031663ad2390ac87876040518363ffffffff1660e01b8152600401610bb09291906135f9565b60606040518083038186803b158015610bc857600080fd5b505afa158015610bdc573d6000803e3d6000fd5b505050506040513d601f19601f82011682018060405250810190610c009190612fa8565b92509250925082610c235760405162461bcd60e51b81526004016106d5906134d5565b600160d16000610c396040890160208a01612de3565b6001600160a01b03168152602080820192909252604090810160009081206101008a013582529092529020805460ff1916911515919091179055610c866108a960e0870160c08801612de3565b610caa610c996060870160408801612de3565b336109b46040890160208a01612de3565b610cbd61096560e0870160c08801612de3565b610d21610cd060e0870160c08801612de3565b610ce06060880160408901612de3565b84610cf26101008a0160e08b01612de3565b610d0260408b0160208c01612de3565b610d1260408d0160208e01612de3565b8c604001358d60800135611dcf565b610d346109ce60e0870160c08801612de3565b610d4460e0860160c08701612de3565b6001600160a01b0316610d5d6040870160208801612de3565b6001600160a01b0316610d766040890160208a01612de3565b6001600160a01b03167f68cd251d4d267c6e2034ff0088b990352b97b2002c0476587d0c4da889c11330876101008a01803590610a6c9060e08d01612de3565b6000610dc1816117d4565b6001600160a01b038216610de75760405162461bcd60e51b81526004016106d59061349e565b60cc80546001600160a01b0319166001600160a01b0384169081179091556040517fb4f5db40df3aced29e88a4babbc3b46e305e07d34098525d18b1497056e6383890600090a25050565b60009182526065602090815260408084206001600160a01b0393909316845291905290205460ff1690565b80610eaa5760405162461bcd60e51b815260206004820152601760248201527f43616e63656c3a2043616e6e6f7420626520656d70747900000000000000000060448201526064016106d5565b60005b81811015610f5f5733600090815260d06020526040902054838383818110610ed757610ed761388a565b905060200201351015610efc5760405162461bcd60e51b81526004016106d59061358e565b33600090815260d160205260408120600191858585818110610f2057610f2061388a565b90506020020135815260200190815260200160002060006101000a81548160ff0219169083151502179055508080610f5790613859565b915050610ead565b50336001600160a01b03167ffa0ae5d80fe3763c880a3839fab0294171a6f730d1f82c4cd5392c6f67b417328383604051610f9b929190613377565b60405180910390a25050565b610faf6118ce565b610fbc6020820182612f6e565b8015610fd25750610fd06020830183612f6e565b155b610fee5760405162461bcd60e51b81526004016106d590613472565b60c9546001600160a01b031661100b610100830160e08401612de3565b6001600160a01b0316146110615760405162461bcd60e51b815260206004820152601c60248201527f4f726465723a2043757272656e6379206d75737420626520574554480000000060448201526064016106d5565b6110716040830160208401612de3565b6001600160a01b0316336001600160a01b0316146110a15760405162461bcd60e51b81526004016106d590613557565b34826040013511156110d9576110d433306110c03460408701356136ee565b60c9546001600160a01b0316929190612153565b61112c565b3482604001351461112c5760405162461bcd60e51b815260206004820152601960248201527f4f726465723a204d73672e76616c756520746f6f20686967680000000000000060448201526064016106d5565b60c960009054906101000a90046001600160a01b03166001600160a01b031663d0e30db0346040518263ffffffff1660e01b81526004016000604051808303818588803b15801561117c57600080fd5b505af1158015611190573d6000803e3d6000fd5b505050505060006111a48261078190613705565b90506111b082826119cf565b600080806111c460e0860160c08701612de3565b6001600160a01b031663865781ca87876040518363ffffffff1660e01b81526004016111f19291906135f9565b60606040518083038186803b15801561120957600080fd5b505afa15801561121d573d6000803e3d6000fd5b505050506040513d601f19601f820116820180604052508101906112419190612fa8565b925092509250826112645760405162461bcd60e51b81526004016106d5906134d5565b600160d1600061127a6040890160208a01612de3565b6001600160a01b03168152602080820192909252604090810160009081206101008a013582529092529020805460ff19169115159190911790556112c76108a960e0870160c08801612de3565b6109526112da60e0870160c08801612de3565b6112ea6060880160408901612de3565b846112fb60408a0160208b01612de3565b8a604001358a61016001356121c4565b6000611316816117d4565b6001600160a01b03821661133c5760405162461bcd60e51b81526004016106d59061349e565b60ce80546001600160a01b0319166001600160a01b0384169081179091556040517f80e3874461ebbd918ac3e81da0a92e5e51387d70f337237c9123e48d20e5a50890600090a25050565b33600090815260d0602052604090205481116113b55760405162461bcd60e51b81526004016106d59061358e565b33600090815260d060205260409020546113d2906207a120613695565b811061142a5760405162461bcd60e51b815260206004820152602160248201527f43616e63656c3a2043616e6e6f742063616e63656c206d6f7265206f726465726044820152607360f81b60648201526084016106d5565b33600081815260d0602052604090819020839055517f1e7178d84f0b0825c65795cd62e7972809ad3aac6917843aaec596161b2c0a979061146e9084815260200190565b60405180910390a250565b600054610100900460ff16158080156114995750600054600160ff909116105b806114b35750303b1580156114b3575060005460ff166001145b6115165760405162461bcd60e51b815260206004820152602e60248201527f496e697469616c697a61626c653a20636f6e747261637420697320616c72656160448201526d191e481a5b9a5d1a585b1a5e995960921b60648201526084016106d5565b6000805460ff191660011790558015611539576000805461ff0019166101001790555b6115416123be565b6115496123be565b6115516123e7565b336001600160a01b038816156115645750865b61156f6000826117e1565b604080517f8b73c3c69bb8fe3d512ecc4cf759cc79239f7b179b0ffacaa9a75d522b39400f60208201527f98edd044cc1f206866579fa6fe22cf25941c105647a51c9bd8dc8caddb1ebbad918101919091527fc89efdaa54c0f20c7adf612882df0950f5a951637e0307cdcb4c672f298b8bc660608201524660808201523060a082015260c00160408051808303601f19018152919052805160209091012060ca555060cc80546001600160a01b03199081166001600160a01b038981169190911790925560cd8054821688841617905560ce8054821687841617905560c98054821686841617905560cb805490911691841691909117905580156116ae576000805461ff0019169055604051600181527f7f26b83ff96e1f2b6a682f133852f6798a09c465da95921460cefb38474024989060200160405180910390a15b50505050505050565b60006116c2816117d4565b6001600160a01b0382166116e85760405162461bcd60e51b81526004016106d59061349e565b60cd80546001600160a01b0319166001600160a01b0384169081179091556040517f36e2a376eabc3bc60cb88f29c288f53e36874a95a7f407330ab4f166b090569890600090a25050565b60008281526065602052604090206001015461174e816117d4565b6106648383611867565b6000611763816117d4565b6001600160a01b0382166117895760405162461bcd60e51b81526004016106d59061349e565b60cf80546001600160a01b0319166001600160a01b0384169081179091556040517f205d78ab41afe80bd6b6aaa5d7599d5300ff8690da3ab1302c1b552f7baf7d8c90600090a25050565b6117de813361240e565b50565b6117eb8282610e32565b6106e85760008281526065602090815260408083206001600160a01b03851684529091529020805460ff191660011790556118233390565b6001600160a01b0316816001600160a01b0316837f2f8788117e7eff1d82e926ec794901d17c78024a50270940304540a733656f0d60405160405180910390a45050565b6118718282610e32565b156106e85760008281526065602090815260408083206001600160a01b0385168085529252808320805460ff1916905551339285917ff6391f5c32d9c69d2a47ea670b442974b53935d1edc7fd64eb21e047a839171b9190a45050565b600260975414156119215760405162461bcd60e51b815260206004820152601f60248201527f5265656e7472616e637947756172643a207265656e7472616e742063616c6c0060448201526064016106d5565b6002609755565b80516020808301516040808501516060860151608087015160a088015160c089015160e08a01516101008b01516101208c01516101408d01516101608e01516101808f01518051908e01209a5160009e6119b29e7f40261ade532fa1d2c7293df30aaadb9b3c616fae525a0b56d3d411c841a850289e919d919c9b9a9998979695949392016133b3565b604051602081830303815290604052805190602001209050919050565b60d160006119e36040850160208601612de3565b6001600160a01b0316815260208082019290925260409081016000908120610100860135825290925290205460ff16158015611a58575060d06000611a2e6040850160208601612de3565b6001600160a01b03166001600160a01b031681526020019081526020016000205482610100013510155b611aa45760405162461bcd60e51b815260206004820152601d60248201527f4f726465723a204d61746368696e67206f72646572206578706972656400000060448201526064016106d5565b6000611ab66040840160208501612de3565b6001600160a01b03161415611b055760405162461bcd60e51b815260206004820152601560248201527427b93232b91d1024b73b30b634b21039b4b3b732b960591b60448201526064016106d5565b60008260a0013511611b595760405162461bcd60e51b815260206004820152601960248201527f4f726465723a20416d6f756e742063616e6e6f7420626520300000000000000060448201526064016106d5565b611b9381611b6d6040850160208601612de3565b611b7f6101c086016101a087016130e4565b856101c00135866101e0013560ca54612467565b611bd45760405162461bcd60e51b815260206004820152601260248201527114da59db985d1d5c994e88125b9d985b1a5960721b60448201526064016106d5565b60cc546001600160a01b03166343b938c5611bf6610100850160e08601612de3565b6040516001600160e01b031960e084901b1681526001600160a01b03909116600482015260240160206040518083038186803b158015611c3557600080fd5b505afa158015611c49573d6000803e3d6000fd5b505050506040513d601f19601f82011682018060405250810190611c6d9190612f8b565b611cb95760405162461bcd60e51b815260206004820152601960248201527f43757272656e63793a204e6f742077686974656c69737465640000000000000060448201526064016106d5565b60cd546001600160a01b031663999ba27c611cda60e0850160c08601612de3565b6040516001600160e01b031960e084901b1681526001600160a01b03909116600482015260240160206040518083038186803b158015611d1957600080fd5b505afa158015611d2d573d6000803e3d6000fd5b505050506040513d601f19601f82011682018060405250810190611d519190612f8b565b6106e85760405162461bcd60e51b815260206004820152601960248201527f53747261746567793a204e6f742077686974656c69737465640000000000000060448201526064016106d5565b611db76001600160a01b0383166371ee13df60e11b6125b5565b156106e8576106646001600160a01b038316826125d8565b816000611ddc8a8361261c565b60cb549091506001600160a01b031615801590611df857508015155b15611e265760cb54611e19906001600160a01b038981169189911684612153565b611e2381836136ee565b91505b5060ce54604051637a7b1afd60e11b81526001600160a01b038a81166004830152602482018a905260448201869052600092839291169063f4f635fa90606401604080518083038186803b158015611e7d57600080fd5b505afa158015611e91573d6000803e3d6000fd5b505050506040513d601f19601f82011682018060405250810190611eb59190612ecb565b90925090506001600160a01b03821615801590611ed157508015155b15611f5a57611eeb6001600160a01b038916888484612153565b611ef581846136ee565b9250816001600160a01b0316898b6001600160a01b03167f27c4f0403323142b599832f26acd21c74a9e5b809f2215726e244a4ac588cd7d8b85604051611f519291906001600160a01b03929092168252602082015260400190565b60405180910390a45b50611f67905083836136cf565b611f73826127106136cf565b1015611fc15760405162461bcd60e51b815260206004820152601a60248201527f466565733a20486967686572207468616e20657870656374656400000000000060448201526064016106d5565b611fd66001600160a01b038716868684612153565b505050505050505050565b60cf5460405163cc15949360e01b81526001600160a01b038781166004830152600092169063cc1594939060240160206040518083038186803b15801561202757600080fd5b505afa15801561203b573d6000803e3d6000fd5b505050506040513d601f19601f8201168201806040525081019061205f9190612e00565b90506001600160a01b0381166120cb5760405162461bcd60e51b815260206004820152602b60248201527f5472616e736665723a204e6f204e4654207472616e73666572206d616e61676560448201526a7220617661696c61626c6560a81b60648201526084016106d5565b6040516333f2fa9f60e01b81526001600160a01b0387811660048301528681166024830152858116604483015260648201859052608482018490528216906333f2fa9f9060a401600060405180830381600087803b15801561212c57600080fd5b505af1158015612140573d6000803e3d6000fd5b50505050505050505050565b6001609755565b6040516001600160a01b03808516602483015283166044820152606481018290526121be9085906323b872dd60e01b906084015b60408051601f198184030181529190526020810180516001600160e01b03166001600160e01b0319909316929092179091526126b1565b50505050565b8160006121d1888361261c565b60cb549091506001600160a01b0316158015906121ed57508015155b1561221c5760cb5460c95461220f916001600160a01b03918216911683612783565b61221981836136ee565b91505b5060ce54604051637a7b1afd60e11b81526001600160a01b0388811660048301526024820188905260448201869052600092839291169063f4f635fa90606401604080518083038186803b15801561227357600080fd5b505afa158015612287573d6000803e3d6000fd5b505050506040513d601f19601f820116820180604052508101906122ab9190612ecb565b90925090506001600160a01b038216158015906122c757508015155b156123405760c9546122e3906001600160a01b03168383612783565b6122ed81846136ee565b60c954604080516001600160a01b03928316815260208101859052929550818516928a928c16917f27c4f0403323142b599832f26acd21c74a9e5b809f2215726e244a4ac588cd7d910160405180910390a45b5061234d905083836136cf565b612359826127106136cf565b10156123a75760405162461bcd60e51b815260206004820152601a60248201527f466565733a20486967686572207468616e20657870656374656400000000000060448201526064016106d5565b60c9546116ae906001600160a01b03168583612783565b600054610100900460ff166123e55760405162461bcd60e51b81526004016106d59061350c565b565b600054610100900460ff1661214c5760405162461bcd60e51b81526004016106d59061350c565b6124188282610e32565b6106e857612425816127b3565b6124308360206127c5565b604051602001612441929190613302565b60408051601f198184030181529082905262461bcd60e51b82526106d59160040161345f565b60405161190160f01b6020820152602281018290526042810187905260009081906062016040516020818303038152906040528051906020012090506124b6876001600160a01b03163b151590565b1561258757604080516020810187905280820186905260f888901b6001600160f81b0319166060820152815160418183030181526061820192839052630b135d3f60e11b9092526001600160a01b03891691631626ba7e9161251c918591606501613446565b60206040518083038186803b15801561253457600080fd5b505afa158015612548573d6000803e3d6000fd5b505050506040513d601f19601f8201168201806040525081019061256c9190613045565b6001600160e01b031916631626ba7e60e01b149150506125ab565b866001600160a01b031661259d82888888612961565b6001600160a01b0316149150505b9695505050505050565b60006125c083612af4565b80156125d157506125d18383612b27565b9392505050565b60606125d1838360006040518060400160405280601e81526020017f416464726573733a206c6f772d6c6576656c2063616c6c206661696c65640000815250612bb0565b600080836001600160a01b0316639dd1cda66040518163ffffffff1660e01b815260040160206040518083038186803b15801561265857600080fd5b505afa15801561266c573d6000803e3d6000fd5b505050506040513d601f19601f8201168201806040525081019061269091906130cb565b905061271061269f84836136cf565b6126a991906136ad565b949350505050565b6000612706826040518060400160405280602081526020017f5361666545524332303a206c6f772d6c6576656c2063616c6c206661696c6564815250856001600160a01b0316612c809092919063ffffffff16565b80519091501561066457808060200190518101906127249190612f8b565b6106645760405162461bcd60e51b815260206004820152602a60248201527f5361666545524332303a204552433230206f7065726174696f6e20646964206e6044820152691bdd081cdd58d8d9595960b21b60648201526084016106d5565b6040516001600160a01b03831660248201526044810182905261066490849063a9059cbb60e01b90606401612187565b60606105e36001600160a01b03831660145b606060006127d48360026136cf565b6127df906002613695565b67ffffffffffffffff8111156127f7576127f76138a0565b6040519080825280601f01601f191660200182016040528015612821576020820181803683370190505b509050600360fc1b8160008151811061283c5761283c61388a565b60200101906001600160f81b031916908160001a905350600f60fb1b8160018151811061286b5761286b61388a565b60200101906001600160f81b031916908160001a905350600061288f8460026136cf565b61289a906001613695565b90505b6001811115612912576f181899199a1a9b1b9c1cb0b131b232b360811b85600f16601081106128ce576128ce61388a565b1a60f81b8282815181106128e4576128e461388a565b60200101906001600160f81b031916908160001a90535060049490941c9361290b81613842565b905061289d565b5083156125d15760405162461bcd60e51b815260206004820181905260248201527f537472696e67733a20686578206c656e67746820696e73756666696369656e7460448201526064016106d5565b60007f7fffffffffffffffffffffffffffffff5d576e7357a4501ddfe92f46681b20a08211156129d35760405162461bcd60e51b815260206004820152601e60248201527f5369676e61747572653a20496e76616c6964207320706172616d65746572000060448201526064016106d5565b8360ff16601b14806129e857508360ff16601c145b612a345760405162461bcd60e51b815260206004820152601e60248201527f5369676e61747572653a20496e76616c6964207620706172616d65746572000060448201526064016106d5565b6040805160008082526020820180845288905260ff871692820192909252606081018590526080810184905260019060a0016020604051602081039080840390855afa158015612a88573d6000803e3d6000fd5b5050604051601f1901519150506001600160a01b038116612aeb5760405162461bcd60e51b815260206004820152601960248201527f5369676e61747572653a20496e76616c6964207369676e65720000000000000060448201526064016106d5565b95945050505050565b6000612b07826301ffc9a760e01b612b27565b80156105e35750612b20826001600160e01b0319612b27565b1592915050565b604080516001600160e01b03198316602480830191909152825180830390910181526044909101909152602080820180516001600160e01b03166301ffc9a760e01b178152825160009392849283928392918391908a617530fa92503d91506000519050828015612b99575060208210155b8015612ba55750600081115b979650505050505050565b606082471015612c115760405162461bcd60e51b815260206004820152602660248201527f416464726573733a20696e73756666696369656e742062616c616e636520666f6044820152651c8818d85b1b60d21b60648201526084016106d5565b600080866001600160a01b03168587604051612c2d91906132e6565b60006040518083038185875af1925050503d8060008114612c6a576040519150601f19603f3d011682016040523d82523d6000602084013e612c6f565b606091505b5091509150612ba587838387612c8f565b60606126a98484600085612bb0565b60608315612cfb578251612cf4576001600160a01b0385163b612cf45760405162461bcd60e51b815260206004820152601d60248201527f416464726573733a2063616c6c20746f206e6f6e2d636f6e747261637400000060448201526064016106d5565b50816126a9565b6126a98383815115612d105781518083602001fd5b8060405162461bcd60e51b81526004016106d5919061345f565b8035612d35816138b6565b919050565b8035612d35816138cb565b600082601f830112612d5657600080fd5b813567ffffffffffffffff80821115612d7157612d716138a0565b604051601f8301601f19908116603f01168101908282118183101715612d9957612d996138a0565b81604052838152866020858801011115612db257600080fd5b836020870160208301376000602085830101528094505050505092915050565b803560ff81168114612d3557600080fd5b600060208284031215612df557600080fd5b81356125d1816138b6565b600060208284031215612e1257600080fd5b81516125d1816138b6565b60008060008060008060c08789031215612e3657600080fd5b8635612e41816138b6565b95506020870135612e51816138b6565b94506040870135612e61816138b6565b93506060870135612e71816138b6565b92506080870135612e81816138b6565b915060a0870135612e91816138b6565b809150509295509295509295565b60008060408385031215612eb257600080fd5b8235612ebd816138b6565b946020939093013593505050565b60008060408385031215612ede57600080fd5b8251612ee9816138b6565b6020939093015192949293505050565b60008060208385031215612f0c57600080fd5b823567ffffffffffffffff80821115612f2457600080fd5b818501915085601f830112612f3857600080fd5b813581811115612f4757600080fd5b8660208260051b8501011115612f5c57600080fd5b60209290920196919550909350505050565b600060208284031215612f8057600080fd5b81356125d1816138cb565b600060208284031215612f9d57600080fd5b81516125d1816138cb565b600080600060608486031215612fbd57600080fd5b8351612fc8816138cb565b602085015160409095015190969495509392505050565b600060208284031215612ff157600080fd5b5035919050565b6000806040838503121561300b57600080fd5b82359150602083013561301d816138b6565b809150509250929050565b60006020828403121561303a57600080fd5b81356125d1816138d9565b60006020828403121561305757600080fd5b81516125d1816138d9565b6000806040838503121561307557600080fd5b823567ffffffffffffffff8082111561308d57600080fd5b9084019060c082870312156130a157600080fd5b909250602084013590808211156130b757600080fd5b508301610200818603121561301d57600080fd5b6000602082840312156130dd57600080fd5b5051919050565b6000602082840312156130f657600080fd5b6125d182612dd2565b81835281816020850137506000828201602090810191909152601f909101601f19169091010190565b60008151808452613140816020860160208601613816565b601f01601f19169290920160200192915050565b600061020061316c8461316685612d3a565b15159052565b61317860208401612d2a565b6001600160a01b0316602085015261319260408401612d2a565b6001600160a01b038116604086015250606083013560608501526080830135608085015260a083013560a08501526131cc60c08401612d2a565b6001600160a01b031660c08501526131e660e08401612d2a565b6001600160a01b031660e0850152610100838101359085015261012080840135908501526101408084013590850152610160808401359085015261018061322f81850185613648565b838388015261324184880182846130ff565b93505050506101a0613254818501612dd2565b60ff16908501526101c083810135908501526101e09283013592909301919091525090565b60008135613286816138cb565b151583526020820135613298816138b6565b6001600160a01b031660208401526040828101359084015260608083013590840152608080830135908401526132d160a0830183613648565b60c060a0860152612aeb60c0860182846130ff565b600082516132f8818460208701613816565b9190910192915050565b7f416363657373436f6e74726f6c3a206163636f756e742000000000000000000081526000835161333a816017850160208801613816565b7001034b99036b4b9b9b4b733903937b6329607d1b601791840191820152835161336b816028840160208801613816565b01602801949350505050565b6020808252810182905260006001600160fb1b0383111561339757600080fd5b8260051b80856040850137600092016040019182525092915050565b8e81528d151560208201526001600160a01b038d811660408301528c1660608201526101c081018b60808301528a60a08301528960c083015261340160e083018a6001600160a01b03169052565b6001600160a01b0388166101008301526101208201969096526101408101949094526101608401929092526101808301526101a0909101529998505050505050505050565b8281526040602082015260006126a96040830184613128565b6020815260006125d16020830184613128565b6020808252601290820152714f726465723a2057726f6e6720736964657360701b604082015260600190565b6020808252601d908201527f4f776e65723a2043616e6e6f74206265206e756c6c2061646472657373000000604082015260600190565b6020808252601b908201527f53747261746567793a20457865637574696f6e20696e76616c69640000000000604082015260600190565b6020808252602b908201527f496e697469616c697a61626c653a20636f6e7472616374206973206e6f74206960408201526a6e697469616c697a696e6760a81b606082015260800190565b6020808252601f908201527f4f726465723a2054616b6572206d757374206265207468652073656e64657200604082015260600190565b60208082526026908201527f43616e63656c3a204f72646572206e6f6e6365206c6f776572207468616e20636040820152651d5c9c995b9d60d21b606082015260800190565b6040815260006135e76040830185613154565b8281036020840152612aeb8185613279565b60408152600061360c6040830185613279565b8281036020840152612aeb8185613154565b604051610200810167ffffffffffffffff81118282101715613642576136426138a0565b60405290565b6000808335601e1984360301811261365f57600080fd5b830160208101925035905067ffffffffffffffff81111561367f57600080fd5b80360383131561368e57600080fd5b9250929050565b600082198211156136a8576136a8613874565b500190565b6000826136ca57634e487b7160e01b600052601260045260246000fd5b500490565b60008160001904831182151516156136e9576136e9613874565b500290565b60008282101561370057613700613874565b500390565b6000610200823603121561371857600080fd5b61372061361e565b61372983612d3a565b815261373760208401612d2a565b602082015261374860408401612d2a565b6040820152606083013560608201526080830135608082015260a083013560a082015261377760c08401612d2a565b60c082015261378860e08401612d2a565b60e082015261010083810135908201526101208084013590820152610140808401359082015261016080840135908201526101808084013567ffffffffffffffff8111156137d557600080fd5b6137e136828701612d45565b8284015250506101a06137f5818501612dd2565b908201526101c083810135908201526101e092830135928101929092525090565b60005b83811015613831578181015183820152602001613819565b838111156121be5750506000910152565b60008161385157613851613874565b506000190190565b600060001982141561386d5761386d613874565b5060010190565b634e487b7160e01b600052601160045260246000fd5b634e487b7160e01b600052603260045260246000fd5b634e487b7160e01b600052604160045260246000fd5b6001600160a01b03811681146117de57600080fd5b80151581146117de57600080fd5b6001600160e01b0319811681146117de57600080fdfea26469706673582212207af0fdd9630b697bd9c77fee2afd988954f45117fa5e26c791ba5d98f823786864736f6c63430008070033",
  "devdoc": {
    "kind": "dev",
    "methods": {
      "cancelAllOrdersForSender(uint256)": {
        "params": {
          "minNonce": "minimum user nonce"
        }
      },
      "cancelMultipleMakerOrders(uint256[])": {
        "params": {
          "orderNonces": "array of order nonces"
        }
      },
      "constructor": {
        "custom:oz-upgrades-unsafe-allow": "constructor"
      },
      "getRoleAdmin(bytes32)": {
        "details": "Returns the admin role that controls `role`. See {grantRole} and {revokeRole}. To change a role's admin, use {_setRoleAdmin}."
      },
      "grantRole(bytes32,address)": {
        "details": "Grants `role` to `account`. If `account` had not been already granted `role`, emits a {RoleGranted} event. Requirements: - the caller must have ``role``'s admin role. May emit a {RoleGranted} event."
      },
      "hasRole(bytes32,address)": {
        "details": "Returns `true` if `account` has been granted `role`."
      },
      "initialize(address,address,address,address,address,address)": {
        "params": {
          "_WETH": "wrapped ether address (for other chains, use wrapped native asset)",
          "_currencyManager": "currency manager address",
          "_executionManager": "execution manager address",
          "_protocolFeeRecipient": "protocol fee recipient",
          "_royaltyFeeManager": "royalty fee manager address",
          "owner": "admin address"
        }
      },
      "isUserOrderNonceExecutedOrCancelled(address,uint256)": {
        "params": {
          "orderNonce": "nonce of the order",
          "user": "address of user"
        }
      },
      "matchAskWithTakerBid((bool,address,uint256,uint256,uint256,bytes),(bool,address,address,uint256,uint256,uint256,address,address,uint256,uint256,uint256,uint256,bytes,uint8,bytes32,bytes32))": {
        "params": {
          "makerAsk": "maker ask order",
          "takerBid": "taker bid order"
        }
      },
      "matchAskWithTakerBidUsingETHAndWETH((bool,address,uint256,uint256,uint256,bytes),(bool,address,address,uint256,uint256,uint256,address,address,uint256,uint256,uint256,uint256,bytes,uint8,bytes32,bytes32))": {
        "params": {
          "makerAsk": "maker ask order",
          "takerBid": "taker bid order"
        }
      },
      "matchBidWithTakerAsk((bool,address,uint256,uint256,uint256,bytes),(bool,address,address,uint256,uint256,uint256,address,address,uint256,uint256,uint256,uint256,bytes,uint8,bytes32,bytes32))": {
        "params": {
          "makerBid": "maker bid order",
          "takerAsk": "taker ask order"
        }
      },
      "renounceRole(bytes32,address)": {
        "details": "Revokes `role` from the calling account. Roles are often managed via {grantRole} and {revokeRole}: this function's purpose is to provide a mechanism for accounts to lose their privileges if they are compromised (such as when a trusted device is misplaced). If the calling account had been revoked `role`, emits a {RoleRevoked} event. Requirements: - the caller must be `account`. May emit a {RoleRevoked} event."
      },
      "revokeRole(bytes32,address)": {
        "details": "Revokes `role` from `account`. If `account` had been granted `role`, emits a {RoleRevoked} event. Requirements: - the caller must have ``role``'s admin role. May emit a {RoleRevoked} event."
      },
      "supportsInterface(bytes4)": {
        "details": "See {IERC165-supportsInterface}."
      },
      "updateCurrencyManager(address)": {
        "params": {
          "_currencyManager": "new currency manager address"
        }
      },
      "updateExecutionManager(address)": {
        "params": {
          "_executionManager": "new execution manager address"
        }
      },
      "updateProtocolFeeRecipient(address)": {
        "params": {
          "_protocolFeeRecipient": "new recipient for protocol fees"
        }
      },
      "updateRoyaltyFeeManager(address)": {
        "params": {
          "_royaltyFeeManager": "new fee manager address"
        }
      },
      "updateTransferSelectorNFT(address)": {
        "params": {
          "_transferSelectorNFT": "new transfer selector address"
        }
      }
    },
    "title": "VemoMarket",
    "version": 1
  },
  "userdoc": {
    "kind": "user",
    "methods": {
      "cancelAllOrdersForSender(uint256)": {
        "notice": "Cancel all pending orders for a sender"
      },
      "cancelMultipleMakerOrders(uint256[])": {
        "notice": "Cancel maker orders"
      },
      "initialize(address,address,address,address,address,address)": {
        "notice": "Initialize"
      },
      "isUserOrderNonceExecutedOrCancelled(address,uint256)": {
        "notice": "Check whether user order nonce is executed or cancelled"
      },
      "matchAskWithTakerBid((bool,address,uint256,uint256,uint256,bytes),(bool,address,address,uint256,uint256,uint256,address,address,uint256,uint256,uint256,uint256,bytes,uint8,bytes32,bytes32))": {
        "notice": "Match a takerBid with a matchAsk"
      },
      "matchAskWithTakerBidUsingETHAndWETH((bool,address,uint256,uint256,uint256,bytes),(bool,address,address,uint256,uint256,uint256,address,address,uint256,uint256,uint256,uint256,bytes,uint8,bytes32,bytes32))": {
        "notice": "Match ask with a taker bid order using ETH"
      },
      "matchBidWithTakerAsk((bool,address,uint256,uint256,uint256,bytes),(bool,address,address,uint256,uint256,uint256,address,address,uint256,uint256,uint256,uint256,bytes,uint8,bytes32,bytes32))": {
        "notice": "Match a takerAsk with a makerBid"
      },
      "updateCurrencyManager(address)": {
        "notice": "Update currency manager"
      },
      "updateExecutionManager(address)": {
        "notice": "Update execution manager"
      },
      "updateProtocolFeeRecipient(address)": {
        "notice": "Update protocol fee and recipient"
      },
      "updateRoyaltyFeeManager(address)": {
        "notice": "Update royalty fee manager"
      },
      "updateTransferSelectorNFT(address)": {
        "notice": "Update transfer selector NFT"
      }
    },
    "notice": "It is the core contract of the VemoMarket.",
    "version": 1
  },
  "storageLayout": {
    "storage": [
      {
        "astId": 415,
        "contract": "contracts/VemoMarket.sol:VemoMarket",
        "label": "_initialized",
        "offset": 0,
        "slot": "0",
        "type": "t_uint8"
      },
      {
        "astId": 418,
        "contract": "contracts/VemoMarket.sol:VemoMarket",
        "label": "_initializing",
        "offset": 1,
        "slot": "0",
        "type": "t_bool"
      },
      {
        "astId": 975,
        "contract": "contracts/VemoMarket.sol:VemoMarket",
        "label": "__gap",
        "offset": 0,
        "slot": "1",
        "type": "t_array(t_uint256)50_storage"
      },
      {
        "astId": 1194,
        "contract": "contracts/VemoMarket.sol:VemoMarket",
        "label": "__gap",
        "offset": 0,
        "slot": "51",
        "type": "t_array(t_uint256)50_storage"
      },
      {
        "astId": 39,
        "contract": "contracts/VemoMarket.sol:VemoMarket",
        "label": "_roles",
        "offset": 0,
        "slot": "101",
        "type": "t_mapping(t_bytes32,t_struct(RoleData)34_storage)"
      },
      {
        "astId": 334,
        "contract": "contracts/VemoMarket.sol:VemoMarket",
        "label": "__gap",
        "offset": 0,
        "slot": "102",
        "type": "t_array(t_uint256)49_storage"
      },
      {
        "astId": 591,
        "contract": "contracts/VemoMarket.sol:VemoMarket",
        "label": "_status",
        "offset": 0,
        "slot": "151",
        "type": "t_uint256"
      },
      {
        "astId": 649,
        "contract": "contracts/VemoMarket.sol:VemoMarket",
        "label": "__gap",
        "offset": 0,
        "slot": "152",
        "type": "t_array(t_uint256)49_storage"
      },
      {
        "astId": 8799,
        "contract": "contracts/VemoMarket.sol:VemoMarket",
        "label": "WETH",
        "offset": 0,
        "slot": "201",
        "type": "t_address"
      },
      {
        "astId": 8801,
        "contract": "contracts/VemoMarket.sol:VemoMarket",
        "label": "DOMAIN_SEPARATOR",
        "offset": 0,
        "slot": "202",
        "type": "t_bytes32"
      },
      {
        "astId": 8803,
        "contract": "contracts/VemoMarket.sol:VemoMarket",
        "label": "protocolFeeRecipient",
        "offset": 0,
        "slot": "203",
        "type": "t_address"
      },
      {
        "astId": 8806,
        "contract": "contracts/VemoMarket.sol:VemoMarket",
        "label": "currencyManager",
        "offset": 0,
        "slot": "204",
        "type": "t_contract(ICurrencyManager)12639"
      },
      {
        "astId": 8809,
        "contract": "contracts/VemoMarket.sol:VemoMarket",
        "label": "executionManager",
        "offset": 0,
        "slot": "205",
        "type": "t_contract(IExecutionManager)12708"
      },
      {
        "astId": 8812,
        "contract": "contracts/VemoMarket.sol:VemoMarket",
        "label": "royaltyFeeManager",
        "offset": 0,
        "slot": "206",
        "type": "t_contract(IRoyaltyFeeManager)12782"
      },
      {
        "astId": 8815,
        "contract": "contracts/VemoMarket.sol:VemoMarket",
        "label": "transferSelectorNFT",
        "offset": 0,
        "slot": "207",
        "type": "t_contract(ITransferSelectorNFT)12849"
      },
      {
        "astId": 8819,
        "contract": "contracts/VemoMarket.sol:VemoMarket",
        "label": "userMinOrderNonce",
        "offset": 0,
        "slot": "208",
        "type": "t_mapping(t_address,t_uint256)"
      },
      {
        "astId": 8825,
        "contract": "contracts/VemoMarket.sol:VemoMarket",
        "label": "_isUserOrderNonceExecutedOrCancelled",
        "offset": 0,
        "slot": "209",
        "type": "t_mapping(t_address,t_mapping(t_uint256,t_bool))"
      }
    ],
    "types": {
      "t_address": {
        "encoding": "inplace",
        "label": "address",
        "numberOfBytes": "20"
      },
      "t_array(t_uint256)49_storage": {
        "base": "t_uint256",
        "encoding": "inplace",
        "label": "uint256[49]",
        "numberOfBytes": "1568"
      },
      "t_array(t_uint256)50_storage": {
        "base": "t_uint256",
        "encoding": "inplace",
        "label": "uint256[50]",
        "numberOfBytes": "1600"
      },
      "t_bool": {
        "encoding": "inplace",
        "label": "bool",
        "numberOfBytes": "1"
      },
      "t_bytes32": {
        "encoding": "inplace",
        "label": "bytes32",
        "numberOfBytes": "32"
      },
      "t_contract(ICurrencyManager)12639": {
        "encoding": "inplace",
        "label": "contract ICurrencyManager",
        "numberOfBytes": "20"
      },
      "t_contract(IExecutionManager)12708": {
        "encoding": "inplace",
        "label": "contract IExecutionManager",
        "numberOfBytes": "20"
      },
      "t_contract(IRoyaltyFeeManager)12782": {
        "encoding": "inplace",
        "label": "contract IRoyaltyFeeManager",
        "numberOfBytes": "20"
      },
      "t_contract(ITransferSelectorNFT)12849": {
        "encoding": "inplace",
        "label": "contract ITransferSelectorNFT",
        "numberOfBytes": "20"
      },
      "t_mapping(t_address,t_bool)": {
        "encoding": "mapping",
        "key": "t_address",
        "label": "mapping(address => bool)",
        "numberOfBytes": "32",
        "value": "t_bool"
      },
      "t_mapping(t_address,t_mapping(t_uint256,t_bool))": {
        "encoding": "mapping",
        "key": "t_address",
        "label": "mapping(address => mapping(uint256 => bool))",
        "numberOfBytes": "32",
        "value": "t_mapping(t_uint256,t_bool)"
      },
      "t_mapping(t_address,t_uint256)": {
        "encoding": "mapping",
        "key": "t_address",
        "label": "mapping(address => uint256)",
        "numberOfBytes": "32",
        "value": "t_uint256"
      },
      "t_mapping(t_bytes32,t_struct(RoleData)34_storage)": {
        "encoding": "mapping",
        "key": "t_bytes32",
        "label": "mapping(bytes32 => struct AccessControlUpgradeable.RoleData)",
        "numberOfBytes": "32",
        "value": "t_struct(RoleData)34_storage"
      },
      "t_mapping(t_uint256,t_bool)": {
        "encoding": "mapping",
        "key": "t_uint256",
        "label": "mapping(uint256 => bool)",
        "numberOfBytes": "32",
        "value": "t_bool"
      },
      "t_struct(RoleData)34_storage": {
        "encoding": "inplace",
        "label": "struct AccessControlUpgradeable.RoleData",
        "members": [
          {
            "astId": 31,
            "contract": "contracts/VemoMarket.sol:VemoMarket",
            "label": "members",
            "offset": 0,
            "slot": "0",
            "type": "t_mapping(t_address,t_bool)"
          },
          {
            "astId": 33,
            "contract": "contracts/VemoMarket.sol:VemoMarket",
            "label": "adminRole",
            "offset": 0,
            "slot": "1",
            "type": "t_bytes32"
          }
        ],
        "numberOfBytes": "64"
      },
      "t_uint256": {
        "encoding": "inplace",
        "label": "uint256",
        "numberOfBytes": "32"
      },
      "t_uint8": {
        "encoding": "inplace",
        "label": "uint8",
        "numberOfBytes": "1"
      }
    }
  }
}