{
  "address": "0x4d3403228C61222Bd68F5eC219492C311b523aaB",
  "abi": [
    {
      "inputs": [],
      "stateMutability": "nonpayable",
      "type": "constructor"
    },
    {
      "anonymous": false,
      "inputs": [
        {
          "indexed": false,
          "internalType": "uint8",
          "name": "version",
          "type": "uint8"
        }
      ],
      "name": "Initialized",
      "type": "event"
    },
    {
      "anonymous": false,
      "inputs": [
        {
          "indexed": true,
          "internalType": "bytes32",
          "name": "role",
          "type": "bytes32"
        },
        {
          "indexed": true,
          "internalType": "bytes32",
          "name": "previousAdminRole",
          "type": "bytes32"
        },
        {
          "indexed": true,
          "internalType": "bytes32",
          "name": "newAdminRole",
          "type": "bytes32"
        }
      ],
      "name": "RoleAdminChanged",
      "type": "event"
    },
    {
      "anonymous": false,
      "inputs": [
        {
          "indexed": true,
          "internalType": "bytes32",
          "name": "role",
          "type": "bytes32"
        },
        {
          "indexed": true,
          "internalType": "address",
          "name": "account",
          "type": "address"
        },
        {
          "indexed": true,
          "internalType": "address",
          "name": "sender",
          "type": "address"
        }
      ],
      "name": "RoleGranted",
      "type": "event"
    },
    {
      "anonymous": false,
      "inputs": [
        {
          "indexed": true,
          "internalType": "bytes32",
          "name": "role",
          "type": "bytes32"
        },
        {
          "indexed": true,
          "internalType": "address",
          "name": "account",
          "type": "address"
        },
        {
          "indexed": true,
          "internalType": "address",
          "name": "sender",
          "type": "address"
        }
      ],
      "name": "RoleRevoked",
      "type": "event"
    },
    {
      "inputs": [],
      "name": "CRITERIA_GROUPS",
      "outputs": [
        {
          "internalType": "uint256",
          "name": "",
          "type": "uint256"
        }
      ],
      "stateMutability": "view",
      "type": "function"
    },
    {
      "inputs": [],
      "name": "DEFAULT_ADMIN_ROLE",
      "outputs": [
        {
          "internalType": "bytes32",
          "name": "",
          "type": "bytes32"
        }
      ],
      "stateMutability": "view",
      "type": "function"
    },
    {
      "inputs": [],
      "name": "DOMAIN_SEPARATOR",
      "outputs": [
        {
          "internalType": "bytes32",
          "name": "",
          "type": "bytes32"
        }
      ],
      "stateMutability": "view",
      "type": "function"
    },
    {
      "inputs": [],
      "name": "INTERFACE_ID_ERC1155",
      "outputs": [
        {
          "internalType": "bytes4",
          "name": "",
          "type": "bytes4"
        }
      ],
      "stateMutability": "view",
      "type": "function"
    },
    {
      "inputs": [],
      "name": "INTERFACE_ID_ERC2981",
      "outputs": [
        {
          "internalType": "bytes4",
          "name": "",
          "type": "bytes4"
        }
      ],
      "stateMutability": "view",
      "type": "function"
    },
    {
      "inputs": [],
      "name": "INTERFACE_ID_ERC721",
      "outputs": [
        {
          "internalType": "bytes4",
          "name": "",
          "type": "bytes4"
        }
      ],
      "stateMutability": "view",
      "type": "function"
    },
    {
      "inputs": [],
      "name": "MAGIC_VALUE_EIP1271",
      "outputs": [
        {
          "internalType": "bytes4",
          "name": "",
          "type": "bytes4"
        }
      ],
      "stateMutability": "view",
      "type": "function"
    },
    {
      "inputs": [],
      "name": "STANDARD_ROYALTY_FEE",
      "outputs": [
        {
          "internalType": "uint256",
          "name": "",
          "type": "uint256"
        }
      ],
      "stateMutability": "view",
      "type": "function"
    },
    {
      "inputs": [],
      "name": "TRANSFER_MANAGER_ERC1155",
      "outputs": [
        {
          "internalType": "address",
          "name": "",
          "type": "address"
        }
      ],
      "stateMutability": "view",
      "type": "function"
    },
    {
      "inputs": [],
      "name": "TRANSFER_MANAGER_ERC721",
      "outputs": [
        {
          "internalType": "address",
          "name": "",
          "type": "address"
        }
      ],
      "stateMutability": "view",
      "type": "function"
    },
    {
      "inputs": [
        {
          "components": [
            {
              "internalType": "bool",
              "name": "isOrderAsk",
              "type": "bool"
            },
            {
              "internalType": "address",
              "name": "signer",
              "type": "address"
            },
            {
              "internalType": "address",
              "name": "collection",
              "type": "address"
            },
            {
              "internalType": "uint256",
              "name": "price",
              "type": "uint256"
            },
            {
              "internalType": "uint256",
              "name": "tokenId",
              "type": "uint256"
            },
            {
              "internalType": "uint256",
              "name": "amount",
              "type": "uint256"
            },
            {
              "internalType": "address",
              "name": "strategy",
              "type": "address"
            },
            {
              "internalType": "address",
              "name": "currency",
              "type": "address"
            },
            {
              "internalType": "uint256",
              "name": "nonce",
              "type": "uint256"
            },
            {
              "internalType": "uint256",
              "name": "startTime",
              "type": "uint256"
            },
            {
              "internalType": "uint256",
              "name": "endTime",
              "type": "uint256"
            },
            {
              "internalType": "uint256",
              "name": "minPercentageToAsk",
              "type": "uint256"
            },
            {
              "internalType": "bytes",
              "name": "params",
              "type": "bytes"
            },
            {
              "internalType": "uint8",
              "name": "v",
              "type": "uint8"
            },
            {
              "internalType": "bytes32",
              "name": "r",
              "type": "bytes32"
            },
            {
              "internalType": "bytes32",
              "name": "s",
              "type": "bytes32"
            }
          ],
          "internalType": "struct OrderTypes.MakerOrder[]",
          "name": "makerOrders",
          "type": "tuple[]"
        }
      ],
      "name": "checkMultipleOrderValidities",
      "outputs": [
        {
          "internalType": "uint256[][]",
          "name": "validationCodes",
          "type": "uint256[][]"
        }
      ],
      "stateMutability": "view",
      "type": "function"
    },
    {
      "inputs": [
        {
          "components": [
            {
              "internalType": "bool",
              "name": "isOrderAsk",
              "type": "bool"
            },
            {
              "internalType": "address",
              "name": "signer",
              "type": "address"
            },
            {
              "internalType": "address",
              "name": "collection",
              "type": "address"
            },
            {
              "internalType": "uint256",
              "name": "price",
              "type": "uint256"
            },
            {
              "internalType": "uint256",
              "name": "tokenId",
              "type": "uint256"
            },
            {
              "internalType": "uint256",
              "name": "amount",
              "type": "uint256"
            },
            {
              "internalType": "address",
              "name": "strategy",
              "type": "address"
            },
            {
              "internalType": "address",
              "name": "currency",
              "type": "address"
            },
            {
              "internalType": "uint256",
              "name": "nonce",
              "type": "uint256"
            },
            {
              "internalType": "uint256",
              "name": "startTime",
              "type": "uint256"
            },
            {
              "internalType": "uint256",
              "name": "endTime",
              "type": "uint256"
            },
            {
              "internalType": "uint256",
              "name": "minPercentageToAsk",
              "type": "uint256"
            },
            {
              "internalType": "bytes",
              "name": "params",
              "type": "bytes"
            },
            {
              "internalType": "uint8",
              "name": "v",
              "type": "uint8"
            },
            {
              "internalType": "bytes32",
              "name": "r",
              "type": "bytes32"
            },
            {
              "internalType": "bytes32",
              "name": "s",
              "type": "bytes32"
            }
          ],
          "internalType": "struct OrderTypes.MakerOrder",
          "name": "makerOrder",
          "type": "tuple"
        }
      ],
      "name": "checkOrderValidity",
      "outputs": [
        {
          "internalType": "uint256[]",
          "name": "validationCodes",
          "type": "uint256[]"
        }
      ],
      "stateMutability": "view",
      "type": "function"
    },
    {
      "inputs": [
        {
          "components": [
            {
              "internalType": "bool",
              "name": "isOrderAsk",
              "type": "bool"
            },
            {
              "internalType": "address",
              "name": "signer",
              "type": "address"
            },
            {
              "internalType": "address",
              "name": "collection",
              "type": "address"
            },
            {
              "internalType": "uint256",
              "name": "price",
              "type": "uint256"
            },
            {
              "internalType": "uint256",
              "name": "tokenId",
              "type": "uint256"
            },
            {
              "internalType": "uint256",
              "name": "amount",
              "type": "uint256"
            },
            {
              "internalType": "address",
              "name": "strategy",
              "type": "address"
            },
            {
              "internalType": "address",
              "name": "currency",
              "type": "address"
            },
            {
              "internalType": "uint256",
              "name": "nonce",
              "type": "uint256"
            },
            {
              "internalType": "uint256",
              "name": "startTime",
              "type": "uint256"
            },
            {
              "internalType": "uint256",
              "name": "endTime",
              "type": "uint256"
            },
            {
              "internalType": "uint256",
              "name": "minPercentageToAsk",
              "type": "uint256"
            },
            {
              "internalType": "bytes",
              "name": "params",
              "type": "bytes"
            },
            {
              "internalType": "uint8",
              "name": "v",
              "type": "uint8"
            },
            {
              "internalType": "bytes32",
              "name": "r",
              "type": "bytes32"
            },
            {
              "internalType": "bytes32",
              "name": "s",
              "type": "bytes32"
            }
          ],
          "internalType": "struct OrderTypes.MakerOrder",
          "name": "makerOrder",
          "type": "tuple"
        }
      ],
      "name": "checkValidityAmounts",
      "outputs": [
        {
          "internalType": "uint256",
          "name": "validationCode",
          "type": "uint256"
        }
      ],
      "stateMutability": "pure",
      "type": "function"
    },
    {
      "inputs": [
        {
          "components": [
            {
              "internalType": "bool",
              "name": "isOrderAsk",
              "type": "bool"
            },
            {
              "internalType": "address",
              "name": "signer",
              "type": "address"
            },
            {
              "internalType": "address",
              "name": "collection",
              "type": "address"
            },
            {
              "internalType": "uint256",
              "name": "price",
              "type": "uint256"
            },
            {
              "internalType": "uint256",
              "name": "tokenId",
              "type": "uint256"
            },
            {
              "internalType": "uint256",
              "name": "amount",
              "type": "uint256"
            },
            {
              "internalType": "address",
              "name": "strategy",
              "type": "address"
            },
            {
              "internalType": "address",
              "name": "currency",
              "type": "address"
            },
            {
              "internalType": "uint256",
              "name": "nonce",
              "type": "uint256"
            },
            {
              "internalType": "uint256",
              "name": "startTime",
              "type": "uint256"
            },
            {
              "internalType": "uint256",
              "name": "endTime",
              "type": "uint256"
            },
            {
              "internalType": "uint256",
              "name": "minPercentageToAsk",
              "type": "uint256"
            },
            {
              "internalType": "bytes",
              "name": "params",
              "type": "bytes"
            },
            {
              "internalType": "uint8",
              "name": "v",
              "type": "uint8"
            },
            {
              "internalType": "bytes32",
              "name": "r",
              "type": "bytes32"
            },
            {
              "internalType": "bytes32",
              "name": "s",
              "type": "bytes32"
            }
          ],
          "internalType": "struct OrderTypes.MakerOrder",
          "name": "makerOrder",
          "type": "tuple"
        }
      ],
      "name": "checkValidityApprovalsAndBalances",
      "outputs": [
        {
          "internalType": "uint256",
          "name": "validationCode",
          "type": "uint256"
        },
        {
          "internalType": "uint256",
          "name": "nftType",
          "type": "uint256"
        }
      ],
      "stateMutability": "view",
      "type": "function"
    },
    {
      "inputs": [
        {
          "components": [
            {
              "internalType": "bool",
              "name": "isOrderAsk",
              "type": "bool"
            },
            {
              "internalType": "address",
              "name": "signer",
              "type": "address"
            },
            {
              "internalType": "address",
              "name": "collection",
              "type": "address"
            },
            {
              "internalType": "uint256",
              "name": "price",
              "type": "uint256"
            },
            {
              "internalType": "uint256",
              "name": "tokenId",
              "type": "uint256"
            },
            {
              "internalType": "uint256",
              "name": "amount",
              "type": "uint256"
            },
            {
              "internalType": "address",
              "name": "strategy",
              "type": "address"
            },
            {
              "internalType": "address",
              "name": "currency",
              "type": "address"
            },
            {
              "internalType": "uint256",
              "name": "nonce",
              "type": "uint256"
            },
            {
              "internalType": "uint256",
              "name": "startTime",
              "type": "uint256"
            },
            {
              "internalType": "uint256",
              "name": "endTime",
              "type": "uint256"
            },
            {
              "internalType": "uint256",
              "name": "minPercentageToAsk",
              "type": "uint256"
            },
            {
              "internalType": "bytes",
              "name": "params",
              "type": "bytes"
            },
            {
              "internalType": "uint8",
              "name": "v",
              "type": "uint8"
            },
            {
              "internalType": "bytes32",
              "name": "r",
              "type": "bytes32"
            },
            {
              "internalType": "bytes32",
              "name": "s",
              "type": "bytes32"
            }
          ],
          "internalType": "struct OrderTypes.MakerOrder",
          "name": "makerOrder",
          "type": "tuple"
        }
      ],
      "name": "checkValidityMinPercentageToAsk",
      "outputs": [
        {
          "internalType": "uint256",
          "name": "validationCode",
          "type": "uint256"
        }
      ],
      "stateMutability": "view",
      "type": "function"
    },
    {
      "inputs": [
        {
          "components": [
            {
              "internalType": "bool",
              "name": "isOrderAsk",
              "type": "bool"
            },
            {
              "internalType": "address",
              "name": "signer",
              "type": "address"
            },
            {
              "internalType": "address",
              "name": "collection",
              "type": "address"
            },
            {
              "internalType": "uint256",
              "name": "price",
              "type": "uint256"
            },
            {
              "internalType": "uint256",
              "name": "tokenId",
              "type": "uint256"
            },
            {
              "internalType": "uint256",
              "name": "amount",
              "type": "uint256"
            },
            {
              "internalType": "address",
              "name": "strategy",
              "type": "address"
            },
            {
              "internalType": "address",
              "name": "currency",
              "type": "address"
            },
            {
              "internalType": "uint256",
              "name": "nonce",
              "type": "uint256"
            },
            {
              "internalType": "uint256",
              "name": "startTime",
              "type": "uint256"
            },
            {
              "internalType": "uint256",
              "name": "endTime",
              "type": "uint256"
            },
            {
              "internalType": "uint256",
              "name": "minPercentageToAsk",
              "type": "uint256"
            },
            {
              "internalType": "bytes",
              "name": "params",
              "type": "bytes"
            },
            {
              "internalType": "uint8",
              "name": "v",
              "type": "uint8"
            },
            {
              "internalType": "bytes32",
              "name": "r",
              "type": "bytes32"
            },
            {
              "internalType": "bytes32",
              "name": "s",
              "type": "bytes32"
            }
          ],
          "internalType": "struct OrderTypes.MakerOrder",
          "name": "makerOrder",
          "type": "tuple"
        }
      ],
      "name": "checkValidityNonces",
      "outputs": [
        {
          "internalType": "uint256",
          "name": "validationCode",
          "type": "uint256"
        }
      ],
      "stateMutability": "view",
      "type": "function"
    },
    {
      "inputs": [
        {
          "components": [
            {
              "internalType": "bool",
              "name": "isOrderAsk",
              "type": "bool"
            },
            {
              "internalType": "address",
              "name": "signer",
              "type": "address"
            },
            {
              "internalType": "address",
              "name": "collection",
              "type": "address"
            },
            {
              "internalType": "uint256",
              "name": "price",
              "type": "uint256"
            },
            {
              "internalType": "uint256",
              "name": "tokenId",
              "type": "uint256"
            },
            {
              "internalType": "uint256",
              "name": "amount",
              "type": "uint256"
            },
            {
              "internalType": "address",
              "name": "strategy",
              "type": "address"
            },
            {
              "internalType": "address",
              "name": "currency",
              "type": "address"
            },
            {
              "internalType": "uint256",
              "name": "nonce",
              "type": "uint256"
            },
            {
              "internalType": "uint256",
              "name": "startTime",
              "type": "uint256"
            },
            {
              "internalType": "uint256",
              "name": "endTime",
              "type": "uint256"
            },
            {
              "internalType": "uint256",
              "name": "minPercentageToAsk",
              "type": "uint256"
            },
            {
              "internalType": "bytes",
              "name": "params",
              "type": "bytes"
            },
            {
              "internalType": "uint8",
              "name": "v",
              "type": "uint8"
            },
            {
              "internalType": "bytes32",
              "name": "r",
              "type": "bytes32"
            },
            {
              "internalType": "bytes32",
              "name": "s",
              "type": "bytes32"
            }
          ],
          "internalType": "struct OrderTypes.MakerOrder",
          "name": "makerOrder",
          "type": "tuple"
        }
      ],
      "name": "checkValiditySignature",
      "outputs": [
        {
          "internalType": "uint256",
          "name": "validationCode",
          "type": "uint256"
        }
      ],
      "stateMutability": "view",
      "type": "function"
    },
    {
      "inputs": [
        {
          "components": [
            {
              "internalType": "bool",
              "name": "isOrderAsk",
              "type": "bool"
            },
            {
              "internalType": "address",
              "name": "signer",
              "type": "address"
            },
            {
              "internalType": "address",
              "name": "collection",
              "type": "address"
            },
            {
              "internalType": "uint256",
              "name": "price",
              "type": "uint256"
            },
            {
              "internalType": "uint256",
              "name": "tokenId",
              "type": "uint256"
            },
            {
              "internalType": "uint256",
              "name": "amount",
              "type": "uint256"
            },
            {
              "internalType": "address",
              "name": "strategy",
              "type": "address"
            },
            {
              "internalType": "address",
              "name": "currency",
              "type": "address"
            },
            {
              "internalType": "uint256",
              "name": "nonce",
              "type": "uint256"
            },
            {
              "internalType": "uint256",
              "name": "startTime",
              "type": "uint256"
            },
            {
              "internalType": "uint256",
              "name": "endTime",
              "type": "uint256"
            },
            {
              "internalType": "uint256",
              "name": "minPercentageToAsk",
              "type": "uint256"
            },
            {
              "internalType": "bytes",
              "name": "params",
              "type": "bytes"
            },
            {
              "internalType": "uint8",
              "name": "v",
              "type": "uint8"
            },
            {
              "internalType": "bytes32",
              "name": "r",
              "type": "bytes32"
            },
            {
              "internalType": "bytes32",
              "name": "s",
              "type": "bytes32"
            }
          ],
          "internalType": "struct OrderTypes.MakerOrder",
          "name": "makerOrder",
          "type": "tuple"
        }
      ],
      "name": "checkValidityTimestamps",
      "outputs": [
        {
          "internalType": "uint256",
          "name": "validationCode",
          "type": "uint256"
        }
      ],
      "stateMutability": "view",
      "type": "function"
    },
    {
      "inputs": [
        {
          "components": [
            {
              "internalType": "bool",
              "name": "isOrderAsk",
              "type": "bool"
            },
            {
              "internalType": "address",
              "name": "signer",
              "type": "address"
            },
            {
              "internalType": "address",
              "name": "collection",
              "type": "address"
            },
            {
              "internalType": "uint256",
              "name": "price",
              "type": "uint256"
            },
            {
              "internalType": "uint256",
              "name": "tokenId",
              "type": "uint256"
            },
            {
              "internalType": "uint256",
              "name": "amount",
              "type": "uint256"
            },
            {
              "internalType": "address",
              "name": "strategy",
              "type": "address"
            },
            {
              "internalType": "address",
              "name": "currency",
              "type": "address"
            },
            {
              "internalType": "uint256",
              "name": "nonce",
              "type": "uint256"
            },
            {
              "internalType": "uint256",
              "name": "startTime",
              "type": "uint256"
            },
            {
              "internalType": "uint256",
              "name": "endTime",
              "type": "uint256"
            },
            {
              "internalType": "uint256",
              "name": "minPercentageToAsk",
              "type": "uint256"
            },
            {
              "internalType": "bytes",
              "name": "params",
              "type": "bytes"
            },
            {
              "internalType": "uint8",
              "name": "v",
              "type": "uint8"
            },
            {
              "internalType": "bytes32",
              "name": "r",
              "type": "bytes32"
            },
            {
              "internalType": "bytes32",
              "name": "s",
              "type": "bytes32"
            }
          ],
          "internalType": "struct OrderTypes.MakerOrder",
          "name": "makerOrder",
          "type": "tuple"
        }
      ],
      "name": "checkValidityWhitelists",
      "outputs": [
        {
          "internalType": "uint256",
          "name": "validationCode",
          "type": "uint256"
        }
      ],
      "stateMutability": "view",
      "type": "function"
    },
    {
      "inputs": [],
      "name": "currencyManager",
      "outputs": [
        {
          "internalType": "contract ICurrencyManager",
          "name": "",
          "type": "address"
        }
      ],
      "stateMutability": "view",
      "type": "function"
    },
    {
      "inputs": [],
      "name": "dareMarket",
      "outputs": [
        {
          "internalType": "contract DareMarket",
          "name": "",
          "type": "address"
        }
      ],
      "stateMutability": "view",
      "type": "function"
    },
    {
      "inputs": [],
      "name": "executionManager",
      "outputs": [
        {
          "internalType": "contract IExecutionManager",
          "name": "",
          "type": "address"
        }
      ],
      "stateMutability": "view",
      "type": "function"
    },
    {
      "inputs": [
        {
          "internalType": "bytes32",
          "name": "role",
          "type": "bytes32"
        }
      ],
      "name": "getRoleAdmin",
      "outputs": [
        {
          "internalType": "bytes32",
          "name": "",
          "type": "bytes32"
        }
      ],
      "stateMutability": "view",
      "type": "function"
    },
    {
      "inputs": [
        {
          "internalType": "bytes32",
          "name": "role",
          "type": "bytes32"
        },
        {
          "internalType": "address",
          "name": "account",
          "type": "address"
        }
      ],
      "name": "grantRole",
      "outputs": [],
      "stateMutability": "nonpayable",
      "type": "function"
    },
    {
      "inputs": [
        {
          "internalType": "bytes32",
          "name": "role",
          "type": "bytes32"
        },
        {
          "internalType": "address",
          "name": "account",
          "type": "address"
        }
      ],
      "name": "hasRole",
      "outputs": [
        {
          "internalType": "bool",
          "name": "",
          "type": "bool"
        }
      ],
      "stateMutability": "view",
      "type": "function"
    },
    {
      "inputs": [
        {
          "internalType": "address",
          "name": "owner",
          "type": "address"
        },
        {
          "internalType": "address",
          "name": "_dareMarket",
          "type": "address"
        }
      ],
      "name": "initialize",
      "outputs": [],
      "stateMutability": "nonpayable",
      "type": "function"
    },
    {
      "inputs": [
        {
          "internalType": "bytes32",
          "name": "role",
          "type": "bytes32"
        },
        {
          "internalType": "address",
          "name": "account",
          "type": "address"
        }
      ],
      "name": "renounceRole",
      "outputs": [],
      "stateMutability": "nonpayable",
      "type": "function"
    },
    {
      "inputs": [
        {
          "internalType": "bytes32",
          "name": "role",
          "type": "bytes32"
        },
        {
          "internalType": "address",
          "name": "account",
          "type": "address"
        }
      ],
      "name": "revokeRole",
      "outputs": [],
      "stateMutability": "nonpayable",
      "type": "function"
    },
    {
      "inputs": [],
      "name": "royaltyFeeRegistry",
      "outputs": [
        {
          "internalType": "contract IRoyaltyFeeRegistry",
          "name": "",
          "type": "address"
        }
      ],
      "stateMutability": "view",
      "type": "function"
    },
    {
      "inputs": [
        {
          "internalType": "bytes4",
          "name": "interfaceId",
          "type": "bytes4"
        }
      ],
      "name": "supportsInterface",
      "outputs": [
        {
          "internalType": "bool",
          "name": "",
          "type": "bool"
        }
      ],
      "stateMutability": "view",
      "type": "function"
    },
    {
      "inputs": [],
      "name": "transferSelectorNFT",
      "outputs": [
        {
          "internalType": "contract ITransferSelectorNFTExtended",
          "name": "",
          "type": "address"
        }
      ],
      "stateMutability": "view",
      "type": "function"
    }
  ],
  "transactionHash": "0xb10c4bafe8001e4dea820109028e7247c8dc071f6509081471e9782f89f7d1b3",
  "args": [],
  "numDeployments": 3,
  "solcInputHash": "8c1ec2c9f75681c602cfb14faddac386",
  "bytecode": "0x60806040523480156200001157600080fd5b506200001c62000022565b620000e4565b600054610100900460ff16156200008f5760405162461bcd60e51b815260206004820152602760248201527f496e697469616c697a61626c653a20636f6e747261637420697320696e697469604482015266616c697a696e6760c81b606482015260840160405180910390fd5b60005460ff9081161015620000e2576000805460ff191660ff9081179091556040519081527f7f26b83ff96e1f2b6a682f133852f6798a09c465da95921460cefb38474024989060200160405180910390a15b565b612cae80620000f46000396000f3fe608060405234801561001057600080fd5b50600436106101e55760003560e01c80635e14f68e1161010f578063b1357ddd116100a2578063bedb62f511610071578063bedb62f514610452578063c16f515614610460578063d547741f14610473578063fabf85fa1461048657600080fd5b8063b1357ddd146103f6578063b4299ada14610409578063bc6bc0cd1461041c578063bd97d43b1461042a57600080fd5b8063a217fddf116100de578063a217fddf146103ad578063aa7ed32a146103b5578063ad01f085146103c8578063b060dd86146103e857600080fd5b80635e14f68e1461035457806367bcbd6d14610367578063751e89ba1461037a57806391d148541461039a57600080fd5b80632f2ff15d1161018757806338928956116101565780633892895614610308578063483abb9f1461031b578063485cc9551461032e5780635a2f5e821461034157600080fd5b80632f2ff15d146102b057806333bf6156146102c55780633644e515146102ec57806336568abe146102f557600080fd5b80630b460728116101c35780630b460728146102465780630f747d741461025957806323e0998b14610284578063248a9ca31461028d57600080fd5b806301ffc9a7146101ea57806305a0e6f2146102125780630abefed614610233575b600080fd5b6101fd6101f8366004612737565b61048e565b60405190151581526020015b60405180910390f35b610225610220366004612771565b6104c5565b604051908152602001610209565b610225610241366004612771565b6104f8565b610225610254366004612771565b61050b565b609b5461026c906001600160a01b031681565b6040516001600160a01b039091168152602001610209565b610225609a5481565b61022561029b3660046126e0565b60009081526065602052604090206001015490565b6102c36102be366004612712565b610621565b005b6102d3636cdb3d1360e11b81565b6040516001600160e01b03199091168152602001610209565b61022560995481565b6102c3610303366004612712565b61064b565b60985461026c906001600160a01b031681565b609c5461026c906001600160a01b031681565b6102c361033c3660046125f8565b6106ce565b61022561034f366004612771565b610d73565b609e5461026c906001600160a01b031681565b610225610375366004612771565b610ec1565b61038d610388366004612771565b611281565b6040516102099190612922565b6101fd6103a8366004612712565b6113ed565b610225600081565b609f5461026c906001600160a01b031681565b6103db6103d6366004612631565b611418565b60405161020991906128c0565b6102d363152a902d60e11b81565b60975461026c906001600160a01b031681565b610225610417366004612771565b6114c7565b6102d36380ac58cd60e01b81565b61043d610438366004612771565b611626565b60408051928352602083019190915201610209565b6102d3630b135d3f60e11b81565b609d5461026c906001600160a01b031681565b6102c3610481366004612712565b6116a4565b610225600881565b60006001600160e01b03198216637965db0b60e01b14806104bf57506301ffc9a760e01b6001600160e01b03198316145b92915050565b60004282610120013511156104dd5750610259919050565b4282610140013510156104f3575061025a919050565b919050565b600060a08201356104f3575060c9919050565b60008061051e6040840160208501612590565b6001600160a01b03161415610536575061012d919050565b600060995461054d8461054890612aa5565b6116c9565b60405161190160f01b6020820152602281019290925260428201526062016040516020818303038152906040528051906020012090506105a88360200160208101906105999190612590565b6001600160a01b03163b151590565b6105ea576105e3816105c06040860160208701612590565b6105d26101c087016101a088016127ad565b866101c00135876101e00135611770565b9392505050565b6105e3816105fe6040860160208701612590565b6106106101c087016101a088016127ad565b866101c00135876101e00135611872565b60008281526065602052604090206001015461063c816119af565b61064683836119bc565b505050565b6001600160a01b03811633146106c05760405162461bcd60e51b815260206004820152602f60248201527f416363657373436f6e74726f6c3a2063616e206f6e6c792072656e6f756e636560448201526e103937b632b9903337b91039b2b63360891b60648201526084015b60405180910390fd5b6106ca8282611a42565b5050565b600054610100900460ff16158080156106ee5750600054600160ff909116105b806107085750303b158015610708575060005460ff166001145b61076b5760405162461bcd60e51b815260206004820152602e60248201527f496e697469616c697a61626c653a20636f6e747261637420697320616c72656160448201526d191e481a5b9a5d1a585b1a5e995960921b60648201526084016106b7565b6000805460ff19166001179055801561078e576000805461ff0019166101001790555b610796611aa9565b61079e611aa9565b336001600160a01b038416156107b15750825b6107bc6000826119bc565b609f80546001600160a01b0319166001600160a01b03851690811790915560408051633644e51560e01b81529051633644e51591600480820192602092909190829003018186803b15801561081057600080fd5b505afa158015610824573d6000803e3d6000fd5b505050506040513d601f19601f8201168201806040525081019061084891906126f9565b609981905550826001600160a01b0316635e14f68e6040518163ffffffff1660e01b815260040160206040518083038186803b15801561088757600080fd5b505afa15801561089b573d6000803e3d6000fd5b505050506040513d601f19601f820116820180604052508101906108bf91906125ad565b6001600160a01b031663b1357ddd6040518163ffffffff1660e01b815260040160206040518083038186803b1580156108f757600080fd5b505afa15801561090b573d6000803e3d6000fd5b505050506040513d601f19601f8201168201806040525081019061092f91906125ad565b609760006101000a8154816001600160a01b0302191690836001600160a01b03160217905550826001600160a01b0316635e14f68e6040518163ffffffff1660e01b815260040160206040518083038186803b15801561098e57600080fd5b505afa1580156109a2573d6000803e3d6000fd5b505050506040513d601f19601f820116820180604052508101906109c691906125ad565b6001600160a01b031663389289566040518163ffffffff1660e01b815260040160206040518083038186803b1580156109fe57600080fd5b505afa158015610a12573d6000803e3d6000fd5b505050506040513d601f19601f82011682018060405250810190610a3691906125ad565b609860006101000a8154816001600160a01b0302191690836001600160a01b03160217905550826001600160a01b0316630f747d746040518163ffffffff1660e01b815260040160206040518083038186803b158015610a9557600080fd5b505afa158015610aa9573d6000803e3d6000fd5b505050506040513d601f19601f82011682018060405250810190610acd91906125ad565b609b60006101000a8154816001600160a01b0302191690836001600160a01b03160217905550826001600160a01b031663483abb9f6040518163ffffffff1660e01b815260040160206040518083038186803b158015610b2c57600080fd5b505afa158015610b40573d6000803e3d6000fd5b505050506040513d601f19601f82011682018060405250810190610b6491906125ad565b609c60006101000a8154816001600160a01b0302191690836001600160a01b03160217905550826001600160a01b0316635e14f68e6040518163ffffffff1660e01b815260040160206040518083038186803b158015610bc357600080fd5b505afa158015610bd7573d6000803e3d6000fd5b505050506040513d601f19601f82011682018060405250810190610bfb91906125ad565b609e60006101000a8154816001600160a01b0302191690836001600160a01b031602179055506000836001600160a01b03166387e4401f6040518163ffffffff1660e01b815260040160206040518083038186803b158015610c5c57600080fd5b505afa158015610c70573d6000803e3d6000fd5b505050506040513d601f19601f82011682018060405250810190610c9491906125ad565b9050806001600160a01b031663c16f51566040518163ffffffff1660e01b815260040160206040518083038186803b158015610ccf57600080fd5b505afa158015610ce3573d6000803e3d6000fd5b505050506040513d601f19601f82011682018060405250810190610d0791906125ad565b609d80546001600160a01b0319166001600160a01b039290921691909117905550508015610646576000805461ff0019169055604051600181527f7f26b83ff96e1f2b6a682f133852f6798a09c465da95921460cefb38474024989060200160405180910390a1505050565b609b546000906001600160a01b03166343b938c5610d98610100850160e08601612590565b6040516001600160e01b031960e084901b1681526001600160a01b03909116600482015260240160206040518083038186803b158015610dd757600080fd5b505afa158015610deb573d6000803e3d6000fd5b505050506040513d601f19601f82011682018060405250810190610e0f91906126c3565b610e1c5750610191919050565b609c546001600160a01b031663999ba27c610e3d60e0850160c08601612590565b6040516001600160e01b031960e084901b1681526001600160a01b03909116600482015260240160206040518083038186803b158015610e7c57600080fd5b505afa158015610e90573d6000803e3d6000fd5b505050506040513d601f19601f82011682018060405250810190610eb491906126c3565b6104f35750610192919050565b6000610ed060208301836126a6565b610edc57506000919050565b6000610ef16060840135610160850135612a6f565b905060608301356000612710610f0d60e0870160c08801612590565b6001600160a01b0316639dd1cda66040518163ffffffff1660e01b815260040160206040518083038186803b158015610f4557600080fd5b505afa158015610f59573d6000803e3d6000fd5b505050506040513d601f19601f82011682018060405250810190610f7d91906126f9565b610f8b906060880135612a6f565b610f959190612a4d565b9050610fa18183612a8e565b915082610fb083612710612a6f565b1015610fc257506101f5949350505050565b609d5460009081906001600160a01b0316632782d6c7610fe860608a0160408b01612590565b6040516001600160e01b031960e084901b1681526001600160a01b03909116600482015260608a01356024820152604401604080518083038186803b15801561103057600080fd5b505afa158015611044573d6000803e3d6000fd5b505050506040513d601f19601f8201168201806040525081019061106891906125ca565b90925090506001600160a01b0382161580159061108457508015155b156110bb576110938185612a8e565b9350846110a285612710612a6f565b10156110b657506101f69695505050505050565b611277565b6110cb6060880160408901612590565b6040516301ffc9a760e01b815263152a902d60e11b60048201526001600160a01b0391909116906301ffc9a79060240160206040518083038186803b15801561111357600080fd5b505afa158015611127573d6000803e3d6000fd5b505050506040513d601f19601f8201168201806040525081019061114b91906126c3565b156112775760008061116360608a0160408b01612590565b6040805160808c0135602482015260608c013560448083019190915282518083039091018152606490910182526020810180516001600160e01b031663152a902d60e11b17905290516001600160a01b0392909216916111c3919061282f565b600060405180830381855afa9150503d80600081146111fe576040519150601f19603f3d011682016040523d82523d6000602084013e611203565b606091505b50915091508161121d57506101f898975050505050505050565b8080602001905181019061123191906125ca565b90945092506001600160a01b038416156112745761124f8387612a8e565b95508661125e87612710612a6f565b101561127457506101f798975050505050505050565b50505b5050505050919050565b604080516008808252610120820190925260609160208201610100803683370190505090506112af826114c7565b816000815181106112c2576112c2612c13565b6020026020010181815250506112d7826104f8565b816001815181106112ea576112ea612c13565b6020026020010181815250506112ff8261050b565b8160028151811061131257611312612c13565b60200260200101818152505061132782610d73565b8160038151811061133a5761133a612c13565b60200260200101818152505061134f82610ec1565b8160048151811061136257611362612c13565b602002602001018181525050611377826104c5565b8160058151811061138a5761138a612c13565b6020026020010181815250506000806113a284611626565b9150915081836006815181106113ba576113ba612c13565b60200260200101818152505080836007815181106113da576113da612c13565b6020026020010181815250505050919050565b60009182526065602090815260408084206001600160a01b0393909316845291905290205460ff1690565b60608167ffffffffffffffff81111561143357611433612c29565b60405190808252806020026020018201604052801561146657816020015b60608152602001906001900390816114515790505b50905060005b828110156114c05761149b84848381811061148957611489612c13565b905060200281019061038891906129f4565b8282815181106114ad576114ad612c13565b602090810291909101015260010161146c565b5092915050565b609f546000906001600160a01b03166331e27e276114eb6040850160208601612590565b6040516001600160e01b031960e084901b1681526001600160a01b039091166004820152610100850135602482015260440160206040518083038186803b15801561153557600080fd5b505afa158015611549573d6000803e3d6000fd5b505050506040513d601f19601f8201168201806040525081019061156d91906126c3565b1561157a57506065919050565b609f546001600160a01b0316634266581e61159b6040850160208601612590565b6040516001600160e01b031960e084901b1681526001600160a01b03909116600482015260240160206040518083038186803b1580156115da57600080fd5b505afa1580156115ee573d6000803e3d6000fd5b505050506040513d601f19601f8201168201806040525081019061161291906126f9565b82610100013510156104f357506066919050565b60008061163660208401846126a6565b156116765761166d61164e6060850160408601612590565b61165e6040860160208701612590565b85608001358660a00135611b16565b91509150915091565b61166d61168a610100850160e08601612590565b61169a6040860160208701612590565b8560600135611d47565b6000828152606560205260409020600101546116bf816119af565b6106468383611a42565b80516020808301516040808501516060860151608087015160a088015160c089015160e08a01516101008b01516101208c01516101408d01516101608e01516101808f01518051908e01209a5160009e6117539e7f40261ade532fa1d2c7293df30aaadb9b3c616fae525a0b56d3d411c841a850289e919d919c9b9a999897969594939201612935565b604051602081830303815290604052805190602001209050919050565b60007f7fffffffffffffffffffffffffffffff5d576e7357a4501ddfe92f46681b20a08211156117a3575061012e611869565b8360ff16601b141580156117bb57508360ff16601c14155b156117c9575061012f611869565b6040805160008082526020820180845289905260ff871692820192909252606081018590526080810184905260019060a0016020604051602081039080840390855afa15801561181d573d6000803e3d6000fd5b5050604051601f1901519150506001600160a01b03811661184357610130915050611869565b856001600160a01b0316816001600160a01b03161461186757610131915050611869565b505b95945050505050565b604080516020810184905280820183905260f885901b6001600160f81b03191660608201528151604181830301815260618201909252600091829182916001600160a01b03891691630b135d3f60e11b916118d2918c91906085016129c8565b60408051601f198184030181529181526020820180516001600160e01b03166001600160e01b0319909416939093179092529051611910919061282f565b600060405180830381855afa9150503d806000811461194b576040519150601f19603f3d011682016040523d82523d6000602084013e611950565b606091505b5091509150816119665761013892505050611869565b60008180602001905181019061197c9190612754565b90506001600160e01b03198116630b135d3f60e11b146119a3576101379350505050611869565b50505095945050505050565b6119b98133611e78565b50565b6119c682826113ed565b6106ca5760008281526065602090815260408083206001600160a01b03851684529091529020805460ff191660011790556119fe3390565b6001600160a01b0316816001600160a01b0316837f2f8788117e7eff1d82e926ec794901d17c78024a50270940304540a733656f0d60405160405180910390a45050565b611a4c82826113ed565b156106ca5760008281526065602090815260408083206001600160a01b0385168085529252808320805460ff1916905551339285917ff6391f5c32d9c69d2a47ea670b442974b53935d1edc7fd64eb21e047a839171b9190a45050565b600054610100900460ff16611b145760405162461bcd60e51b815260206004820152602b60248201527f496e697469616c697a61626c653a20636f6e7472616374206973206e6f74206960448201526a6e697469616c697a696e6760a81b60648201526084016106b7565b565b6040516301ffc9a760e01b81526380ac58cd60e01b6004820152600090819081906001600160a01b038816906301ffc9a79060240160206040518083038186803b158015611b6357600080fd5b505afa158015611b77573d6000803e3d6000fd5b505050506040513d601f19601f82011682018060405250810190611b9b91906126c3565b15611bb75750506097546102d1906001600160a01b0316611cd1565b6040516301ffc9a760e01b8152636cdb3d1360e11b60048201526001600160a01b038816906301ffc9a79060240160206040518083038186803b158015611bfd57600080fd5b505afa158015611c11573d6000803e3d6000fd5b505050506040513d601f19601f82011682018060405250810190611c3591906126c3565b15611c51575050609854610483906001600160a01b0316611cd1565b609e54604051634216a75360e01b81526001600160a01b03898116600483015290911690634216a7539060240160206040518083038186803b158015611c9657600080fd5b505afa158015611caa573d6000803e3d6000fd5b505050506040513d601f19601f82011682018060405250810190611cce91906125ad565b90505b6001600160a01b038116611cea576102bd925050611d3e565b6097546001600160a01b0382811691161415611d1457611d0c87878388611ed1565b925050611d3e565b6098546001600160a01b0382811691161415611d3757611d0c8787838888612173565b6102be9250505b94509492505050565b6040516370a0823160e01b81526001600160a01b03838116600483015260009182918491908716906370a082319060240160206040518083038186803b158015611d9057600080fd5b505afa158015611da4573d6000803e3d6000fd5b505050506040513d601f19601f82011682018060405250810190611dc891906126f9565b1015611ddb57506102c790506014611e70565b609f54604051636eb1769f60e11b81526001600160a01b0386811660048301529182166024820152849187169063dd62ed3e9060440160206040518083038186803b158015611e2957600080fd5b505afa158015611e3d573d6000803e3d6000fd5b505050506040513d601f19601f82011682018060405250810190611e6191906126f9565b1015611e7057506102c8905060145b935093915050565b611e8282826113ed565b6106ca57611e8f8161232e565b611e9a836020612340565b604051602001611eab92919061284b565b60408051601f198184030181529082905262461bcd60e51b82526106b7916004016129e1565b6000806000866001600160a01b0316636352211e60e01b85604051602401611efb91815260200190565b60408051601f198184030181529181526020820180516001600160e01b03166001600160e01b0319909416939093179092529051611f39919061282f565b600060405180830381855afa9150503d8060008114611f74576040519150601f19603f3d011682016040523d82523d6000602084013e611f79565b606091505b509150915081611f8f576102d19250505061216b565b856001600160a01b031681806020019051810190611fad91906125ad565b6001600160a01b031614611fc7576102d29250505061216b565b604080516001600160a01b03888116602483015287811660448084019190915283518084039091018152606490920183526020820180516001600160e01b031663e985e9c560e01b179052915191891691612022919061282f565b600060405180830381855afa9150503d806000811461205d576040519150601f19603f3d011682016040523d82523d6000602084013e612062565b606091505b50909250905060008215612087578180602001905181019061208491906126c3565b90505b806121675760408051602480820188905282518083039091018152604490910182526020810180516001600160e01b031663020604bf60e21b17905290516001600160a01b038a16916120d99161282f565b600060405180830381855afa9150503d8060008114612114576040519150601f19603f3d011682016040523d82523d6000602084013e612119565b606091505b5090935091506000831561213e578280602001905181019061213b91906125ad565b90505b866001600160a01b0316816001600160a01b031614612165576102d394505050505061216b565b505b5050505b949350505050565b604080516001600160a01b038681166024830152604480830186905283518084039091018152606490920183526020820180516001600160e01b0316627eeac760e11b179052915160009283928392918a16916121d0919061282f565b600060405180830381855afa9150503d806000811461220b576040519150601f19603f3d011682016040523d82523d6000602084013e612210565b606091505b509150915081612226576102db92505050611869565b838180602001905181019061223b91906126f9565b101561224d576102dc92505050611869565b604080516001600160a01b03898116602483015288811660448084019190915283518084039091018152606490920183526020820180516001600160e01b031663e985e9c560e01b1790529151918a16916122a8919061282f565b600060405180830381855afa9150503d80600081146122e3576040519150601f19603f3d011682016040523d82523d6000602084013e6122e8565b606091505b509092509050816122ff576102dd92505050611869565b8080602001905181019061231391906126c3565b612323576102de92505050611869565b505095945050505050565b60606104bf6001600160a01b03831660145b6060600061234f836002612a6f565b61235a906002612a35565b67ffffffffffffffff81111561237257612372612c29565b6040519080825280601f01601f19166020018201604052801561239c576020820181803683370190505b509050600360fc1b816000815181106123b7576123b7612c13565b60200101906001600160f81b031916908160001a905350600f60fb1b816001815181106123e6576123e6612c13565b60200101906001600160f81b031916908160001a905350600061240a846002612a6f565b612415906001612a35565b90505b600181111561248d576f181899199a1a9b1b9c1cb0b131b232b360811b85600f166010811061244957612449612c13565b1a60f81b82828151811061245f5761245f612c13565b60200101906001600160f81b031916908160001a90535060049490941c9361248681612be6565b9050612418565b5083156105e35760405162461bcd60e51b815260206004820181905260248201527f537472696e67733a20686578206c656e67746820696e73756666696369656e7460448201526064016106b7565b80356104f381612c3f565b80356104f381612c54565b600082601f83011261250357600080fd5b813567ffffffffffffffff8082111561251e5761251e612c29565b604051601f8301601f19908116603f0116810190828211818310171561254657612546612c29565b8160405283815286602085880101111561255f57600080fd5b836020870160208301376000602085830101528094505050505092915050565b803560ff811681146104f357600080fd5b6000602082840312156125a257600080fd5b81356105e381612c3f565b6000602082840312156125bf57600080fd5b81516105e381612c3f565b600080604083850312156125dd57600080fd5b82516125e881612c3f565b6020939093015192949293505050565b6000806040838503121561260b57600080fd5b823561261681612c3f565b9150602083013561262681612c3f565b809150509250929050565b6000806020838503121561264457600080fd5b823567ffffffffffffffff8082111561265c57600080fd5b818501915085601f83011261267057600080fd5b81358181111561267f57600080fd5b8660208260051b850101111561269457600080fd5b60209290920196919550909350505050565b6000602082840312156126b857600080fd5b81356105e381612c54565b6000602082840312156126d557600080fd5b81516105e381612c54565b6000602082840312156126f257600080fd5b5035919050565b60006020828403121561270b57600080fd5b5051919050565b6000806040838503121561272557600080fd5b82359150602083013561262681612c3f565b60006020828403121561274957600080fd5b81356105e381612c62565b60006020828403121561276657600080fd5b81516105e381612c62565b60006020828403121561278357600080fd5b813567ffffffffffffffff81111561279a57600080fd5b820161020081850312156105e357600080fd5b6000602082840312156127bf57600080fd5b6105e38261257f565b600081518084526020808501945080840160005b838110156127f8578151875295820195908201906001016127dc565b509495945050505050565b6000815180845261281b816020860160208601612bb6565b601f01601f19169290920160200192915050565b60008251612841818460208701612bb6565b9190910192915050565b7f416363657373436f6e74726f6c3a206163636f756e7420000000000000000000815260008351612883816017850160208801612bb6565b7001034b99036b4b9b9b4b733903937b6329607d1b60179184019182015283516128b4816028840160208801612bb6565b01602801949350505050565b6000602080830181845280855180835260408601915060408160051b870101925083870160005b8281101561291557603f198886030184526129038583516127c8565b945092850192908501906001016128e7565b5092979650505050505050565b6020815260006105e360208301846127c8565b8e81528d151560208201526001600160a01b038d811660408301528c1660608201526101c081018b60808301528a60a08301528960c083015261298360e083018a6001600160a01b03169052565b6001600160a01b0388166101008301526101208201969096526101408101949094526101608401929092526101808301526101a0909101529998505050505050505050565b82815260406020820152600061216b6040830184612803565b6020815260006105e36020830184612803565b600082356101fe1983360301811261284157600080fd5b604051610200810167ffffffffffffffff81118282101715612a2f57612a2f612c29565b60405290565b60008219821115612a4857612a48612bfd565b500190565b600082612a6a57634e487b7160e01b600052601260045260246000fd5b500490565b6000816000190483118215151615612a8957612a89612bfd565b500290565b600082821015612aa057612aa0612bfd565b500390565b60006102008236031215612ab857600080fd5b612ac0612a0b565b612ac9836124e7565b8152612ad7602084016124dc565b6020820152612ae8604084016124dc565b6040820152606083013560608201526080830135608082015260a083013560a0820152612b1760c084016124dc565b60c0820152612b2860e084016124dc565b60e082015261010083810135908201526101208084013590820152610140808401359082015261016080840135908201526101808084013567ffffffffffffffff811115612b7557600080fd5b612b81368287016124f2565b8284015250506101a0612b9581850161257f565b908201526101c083810135908201526101e092830135928101929092525090565b60005b83811015612bd1578181015183820152602001612bb9565b83811115612be0576000848401525b50505050565b600081612bf557612bf5612bfd565b506000190190565b634e487b7160e01b600052601160045260246000fd5b634e487b7160e01b600052603260045260246000fd5b634e487b7160e01b600052604160045260246000fd5b6001600160a01b03811681146119b957600080fd5b80151581146119b957600080fd5b6001600160e01b0319811681146119b957600080fdfea2646970667358221220cba661ceb2f4ef64a1172b7af9353efc21e67262076b8c7704a43af03986aa7864736f6c63430008070033",
  "devdoc": {
    "kind": "dev",
    "methods": {
      "checkMultipleOrderValidities((bool,address,address,uint256,uint256,uint256,address,address,uint256,uint256,uint256,uint256,bytes,uint8,bytes32,bytes32)[])": {
        "params": {
          "makerOrders": "Array of maker order structs"
        },
        "returns": {
          "validationCodes": "Array of validation code arrays for the maker orders"
        }
      },
      "checkOrderValidity((bool,address,address,uint256,uint256,uint256,address,address,uint256,uint256,uint256,uint256,bytes,uint8,bytes32,bytes32))": {
        "params": {
          "makerOrder": "Maker order struct"
        },
        "returns": {
          "validationCodes": "Array of validations code for each group"
        }
      },
      "checkValidityAmounts((bool,address,address,uint256,uint256,uint256,address,address,uint256,uint256,uint256,uint256,bytes,uint8,bytes32,bytes32))": {
        "params": {
          "makerOrder": "Maker order struct"
        },
        "returns": {
          "validationCode": "Validation code"
        }
      },
      "checkValidityApprovalsAndBalances((bool,address,address,uint256,uint256,uint256,address,address,uint256,uint256,uint256,uint256,bytes,uint8,bytes32,bytes32))": {
        "params": {
          "makerOrder": "Maker order struct"
        },
        "returns": {
          "validationCode": "Validation code"
        }
      },
      "checkValidityMinPercentageToAsk((bool,address,address,uint256,uint256,uint256,address,address,uint256,uint256,uint256,uint256,bytes,uint8,bytes32,bytes32))": {
        "params": {
          "makerOrder": "Maker order struct"
        },
        "returns": {
          "validationCode": "Validation code"
        }
      },
      "checkValidityNonces((bool,address,address,uint256,uint256,uint256,address,address,uint256,uint256,uint256,uint256,bytes,uint8,bytes32,bytes32))": {
        "params": {
          "makerOrder": "Maker order struct"
        },
        "returns": {
          "validationCode": "Validation code"
        }
      },
      "checkValiditySignature((bool,address,address,uint256,uint256,uint256,address,address,uint256,uint256,uint256,uint256,bytes,uint8,bytes32,bytes32))": {
        "params": {
          "makerOrder": "Maker order struct"
        },
        "returns": {
          "validationCode": "Validation code"
        }
      },
      "checkValidityTimestamps((bool,address,address,uint256,uint256,uint256,address,address,uint256,uint256,uint256,uint256,bytes,uint8,bytes32,bytes32))": {
        "params": {
          "makerOrder": "Maker order struct"
        },
        "returns": {
          "validationCode": "Validation code"
        }
      },
      "checkValidityWhitelists((bool,address,address,uint256,uint256,uint256,address,address,uint256,uint256,uint256,uint256,bytes,uint8,bytes32,bytes32))": {
        "params": {
          "makerOrder": "Maker order struct"
        },
        "returns": {
          "validationCode": "Validation code"
        }
      },
      "constructor": {
        "custom:oz-upgrades-unsafe-allow": "constructor"
      },
      "getRoleAdmin(bytes32)": {
        "details": "Returns the admin role that controls `role`. See {grantRole} and {revokeRole}. To change a role's admin, use {_setRoleAdmin}."
      },
      "grantRole(bytes32,address)": {
        "details": "Grants `role` to `account`. If `account` had not been already granted `role`, emits a {RoleGranted} event. Requirements: - the caller must have ``role``'s admin role. May emit a {RoleGranted} event."
      },
      "hasRole(bytes32,address)": {
        "details": "Returns `true` if `account` has been granted `role`."
      },
      "initialize(address,address)": {
        "params": {
          "_dareMarket": "address of the DareMarket"
        }
      },
      "renounceRole(bytes32,address)": {
        "details": "Revokes `role` from the calling account. Roles are often managed via {grantRole} and {revokeRole}: this function's purpose is to provide a mechanism for accounts to lose their privileges if they are compromised (such as when a trusted device is misplaced). If the calling account had been revoked `role`, emits a {RoleRevoked} event. Requirements: - the caller must be `account`. May emit a {RoleRevoked} event."
      },
      "revokeRole(bytes32,address)": {
        "details": "Revokes `role` from `account`. If `account` had been granted `role`, emits a {RoleRevoked} event. Requirements: - the caller must have ``role``'s admin role. May emit a {RoleRevoked} event."
      },
      "supportsInterface(bytes4)": {
        "details": "See {IERC165-supportsInterface}."
      }
    },
    "title": "OrderValidator",
    "version": 1
  },
  "userdoc": {
    "kind": "user",
    "methods": {
      "checkMultipleOrderValidities((bool,address,address,uint256,uint256,uint256,address,address,uint256,uint256,uint256,uint256,bytes,uint8,bytes32,bytes32)[])": {
        "notice": "Check the validities for an array of maker orders"
      },
      "checkOrderValidity((bool,address,address,uint256,uint256,uint256,address,address,uint256,uint256,uint256,uint256,bytes,uint8,bytes32,bytes32))": {
        "notice": "Check the validity of a maker order"
      },
      "checkValidityAmounts((bool,address,address,uint256,uint256,uint256,address,address,uint256,uint256,uint256,uint256,bytes,uint8,bytes32,bytes32))": {
        "notice": "Check the validity of amounts"
      },
      "checkValidityApprovalsAndBalances((bool,address,address,uint256,uint256,uint256,address,address,uint256,uint256,uint256,uint256,bytes,uint8,bytes32,bytes32))": {
        "notice": "Check the validity of approvals and balances"
      },
      "checkValidityMinPercentageToAsk((bool,address,address,uint256,uint256,uint256,address,address,uint256,uint256,uint256,uint256,bytes,uint8,bytes32,bytes32))": {
        "notice": "Check the validity of min percentage to ask"
      },
      "checkValidityNonces((bool,address,address,uint256,uint256,uint256,address,address,uint256,uint256,uint256,uint256,bytes,uint8,bytes32,bytes32))": {
        "notice": "Check the validity for user nonces"
      },
      "checkValiditySignature((bool,address,address,uint256,uint256,uint256,address,address,uint256,uint256,uint256,uint256,bytes,uint8,bytes32,bytes32))": {
        "notice": "Check the validity of a signature"
      },
      "checkValidityTimestamps((bool,address,address,uint256,uint256,uint256,address,address,uint256,uint256,uint256,uint256,bytes,uint8,bytes32,bytes32))": {
        "notice": "Check the validity of order timestamps"
      },
      "checkValidityWhitelists((bool,address,address,uint256,uint256,uint256,address,address,uint256,uint256,uint256,uint256,bytes,uint8,bytes32,bytes32))": {
        "notice": "Check the validity for currency/strategy whitelists"
      },
      "initialize(address,address)": {
        "notice": "Initialize"
      }
    },
    "notice": "This contract is used to check the validity of a maker order in the Protocol (v1).         It performs checks for:         1. Nonce-related issues (e.g., nonce executed or cancelled)         2. Amount-related issues (e.g. order amount being 0)         3. Signature-related issues         4. Whitelist-related issues (i.e., currency or strategy not whitelisted)         5. Fee-related issues (e.g., minPercentageToAsk too high due to changes in royalties)         6. Timestamp-related issues (e.g., order expired)         7. Transfer-related issues for ERC20/ERC721/ERC1155 (approvals and balances)",
    "version": 1
  },
  "storageLayout": {
    "storage": [
      {
        "astId": 415,
        "contract": "contracts/orderValidation/OrderValidator.sol:OrderValidator",
        "label": "_initialized",
        "offset": 0,
        "slot": "0",
        "type": "t_uint8"
      },
      {
        "astId": 418,
        "contract": "contracts/orderValidation/OrderValidator.sol:OrderValidator",
        "label": "_initializing",
        "offset": 1,
        "slot": "0",
        "type": "t_bool"
      },
      {
        "astId": 975,
        "contract": "contracts/orderValidation/OrderValidator.sol:OrderValidator",
        "label": "__gap",
        "offset": 0,
        "slot": "1",
        "type": "t_array(t_uint256)50_storage"
      },
      {
        "astId": 1194,
        "contract": "contracts/orderValidation/OrderValidator.sol:OrderValidator",
        "label": "__gap",
        "offset": 0,
        "slot": "51",
        "type": "t_array(t_uint256)50_storage"
      },
      {
        "astId": 39,
        "contract": "contracts/orderValidation/OrderValidator.sol:OrderValidator",
        "label": "_roles",
        "offset": 0,
        "slot": "101",
        "type": "t_mapping(t_bytes32,t_struct(RoleData)34_storage)"
      },
      {
        "astId": 334,
        "contract": "contracts/orderValidation/OrderValidator.sol:OrderValidator",
        "label": "__gap",
        "offset": 0,
        "slot": "102",
        "type": "t_array(t_uint256)49_storage"
      },
      {
        "astId": 12983,
        "contract": "contracts/orderValidation/OrderValidator.sol:OrderValidator",
        "label": "TRANSFER_MANAGER_ERC721",
        "offset": 0,
        "slot": "151",
        "type": "t_address"
      },
      {
        "astId": 12985,
        "contract": "contracts/orderValidation/OrderValidator.sol:OrderValidator",
        "label": "TRANSFER_MANAGER_ERC1155",
        "offset": 0,
        "slot": "152",
        "type": "t_address"
      },
      {
        "astId": 12987,
        "contract": "contracts/orderValidation/OrderValidator.sol:OrderValidator",
        "label": "DOMAIN_SEPARATOR",
        "offset": 0,
        "slot": "153",
        "type": "t_bytes32"
      },
      {
        "astId": 12989,
        "contract": "contracts/orderValidation/OrderValidator.sol:OrderValidator",
        "label": "STANDARD_ROYALTY_FEE",
        "offset": 0,
        "slot": "154",
        "type": "t_uint256"
      },
      {
        "astId": 12992,
        "contract": "contracts/orderValidation/OrderValidator.sol:OrderValidator",
        "label": "currencyManager",
        "offset": 0,
        "slot": "155",
        "type": "t_contract(ICurrencyManager)12418"
      },
      {
        "astId": 12995,
        "contract": "contracts/orderValidation/OrderValidator.sol:OrderValidator",
        "label": "executionManager",
        "offset": 0,
        "slot": "156",
        "type": "t_contract(IExecutionManager)12487"
      },
      {
        "astId": 12998,
        "contract": "contracts/orderValidation/OrderValidator.sol:OrderValidator",
        "label": "royaltyFeeRegistry",
        "offset": 0,
        "slot": "157",
        "type": "t_contract(IRoyaltyFeeRegistry)12602"
      },
      {
        "astId": 13001,
        "contract": "contracts/orderValidation/OrderValidator.sol:OrderValidator",
        "label": "transferSelectorNFT",
        "offset": 0,
        "slot": "158",
        "type": "t_contract(ITransferSelectorNFTExtended)12922"
      },
      {
        "astId": 13004,
        "contract": "contracts/orderValidation/OrderValidator.sol:OrderValidator",
        "label": "dareMarket",
        "offset": 0,
        "slot": "159",
        "type": "t_contract(DareMarket)10242"
      }
    ],
    "types": {
      "t_address": {
        "encoding": "inplace",
        "label": "address",
        "numberOfBytes": "20"
      },
      "t_array(t_uint256)49_storage": {
        "base": "t_uint256",
        "encoding": "inplace",
        "label": "uint256[49]",
        "numberOfBytes": "1568"
      },
      "t_array(t_uint256)50_storage": {
        "base": "t_uint256",
        "encoding": "inplace",
        "label": "uint256[50]",
        "numberOfBytes": "1600"
      },
      "t_bool": {
        "encoding": "inplace",
        "label": "bool",
        "numberOfBytes": "1"
      },
      "t_bytes32": {
        "encoding": "inplace",
        "label": "bytes32",
        "numberOfBytes": "32"
      },
      "t_contract(DareMarket)10242": {
        "encoding": "inplace",
        "label": "contract DareMarket",
        "numberOfBytes": "20"
      },
      "t_contract(ICurrencyManager)12418": {
        "encoding": "inplace",
        "label": "contract ICurrencyManager",
        "numberOfBytes": "20"
      },
      "t_contract(IExecutionManager)12487": {
        "encoding": "inplace",
        "label": "contract IExecutionManager",
        "numberOfBytes": "20"
      },
      "t_contract(IRoyaltyFeeRegistry)12602": {
        "encoding": "inplace",
        "label": "contract IRoyaltyFeeRegistry",
        "numberOfBytes": "20"
      },
      "t_contract(ITransferSelectorNFTExtended)12922": {
        "encoding": "inplace",
        "label": "contract ITransferSelectorNFTExtended",
        "numberOfBytes": "20"
      },
      "t_mapping(t_address,t_bool)": {
        "encoding": "mapping",
        "key": "t_address",
        "label": "mapping(address => bool)",
        "numberOfBytes": "32",
        "value": "t_bool"
      },
      "t_mapping(t_bytes32,t_struct(RoleData)34_storage)": {
        "encoding": "mapping",
        "key": "t_bytes32",
        "label": "mapping(bytes32 => struct AccessControlUpgradeable.RoleData)",
        "numberOfBytes": "32",
        "value": "t_struct(RoleData)34_storage"
      },
      "t_struct(RoleData)34_storage": {
        "encoding": "inplace",
        "label": "struct AccessControlUpgradeable.RoleData",
        "members": [
          {
            "astId": 31,
            "contract": "contracts/orderValidation/OrderValidator.sol:OrderValidator",
            "label": "members",
            "offset": 0,
            "slot": "0",
            "type": "t_mapping(t_address,t_bool)"
          },
          {
            "astId": 33,
            "contract": "contracts/orderValidation/OrderValidator.sol:OrderValidator",
            "label": "adminRole",
            "offset": 0,
            "slot": "1",
            "type": "t_bytes32"
          }
        ],
        "numberOfBytes": "64"
      },
      "t_uint256": {
        "encoding": "inplace",
        "label": "uint256",
        "numberOfBytes": "32"
      },
      "t_uint8": {
        "encoding": "inplace",
        "label": "uint8",
        "numberOfBytes": "1"
      }
    }
  }
}