{
  "address": "0x8a49f1d3d8B234460939424FD7D9e34fD0FefF50",
  "abi": [
    {
      "inputs": [],
      "stateMutability": "nonpayable",
      "type": "constructor"
    },
    {
      "anonymous": false,
      "inputs": [
        {
          "indexed": false,
          "internalType": "uint8",
          "name": "version",
          "type": "uint8"
        }
      ],
      "name": "Initialized",
      "type": "event"
    },
    {
      "anonymous": false,
      "inputs": [
        {
          "indexed": true,
          "internalType": "bytes32",
          "name": "role",
          "type": "bytes32"
        },
        {
          "indexed": true,
          "internalType": "bytes32",
          "name": "previousAdminRole",
          "type": "bytes32"
        },
        {
          "indexed": true,
          "internalType": "bytes32",
          "name": "newAdminRole",
          "type": "bytes32"
        }
      ],
      "name": "RoleAdminChanged",
      "type": "event"
    },
    {
      "anonymous": false,
      "inputs": [
        {
          "indexed": true,
          "internalType": "bytes32",
          "name": "role",
          "type": "bytes32"
        },
        {
          "indexed": true,
          "internalType": "address",
          "name": "account",
          "type": "address"
        },
        {
          "indexed": true,
          "internalType": "address",
          "name": "sender",
          "type": "address"
        }
      ],
      "name": "RoleGranted",
      "type": "event"
    },
    {
      "anonymous": false,
      "inputs": [
        {
          "indexed": true,
          "internalType": "bytes32",
          "name": "role",
          "type": "bytes32"
        },
        {
          "indexed": true,
          "internalType": "address",
          "name": "account",
          "type": "address"
        },
        {
          "indexed": true,
          "internalType": "address",
          "name": "sender",
          "type": "address"
        }
      ],
      "name": "RoleRevoked",
      "type": "event"
    },
    {
      "inputs": [],
      "name": "DEFAULT_ADMIN_ROLE",
      "outputs": [
        {
          "internalType": "bytes32",
          "name": "",
          "type": "bytes32"
        }
      ],
      "stateMutability": "view",
      "type": "function"
    },
    {
      "inputs": [],
      "name": "INTERFACE_ID_ERC2981",
      "outputs": [
        {
          "internalType": "bytes4",
          "name": "",
          "type": "bytes4"
        }
      ],
      "stateMutability": "view",
      "type": "function"
    },
    {
      "inputs": [
        {
          "internalType": "address",
          "name": "collection",
          "type": "address"
        },
        {
          "internalType": "uint256",
          "name": "tokenId",
          "type": "uint256"
        },
        {
          "internalType": "uint256",
          "name": "amount",
          "type": "uint256"
        }
      ],
      "name": "calculateRoyaltyFeeAndGetRecipient",
      "outputs": [
        {
          "internalType": "address",
          "name": "",
          "type": "address"
        },
        {
          "internalType": "uint256",
          "name": "",
          "type": "uint256"
        }
      ],
      "stateMutability": "view",
      "type": "function"
    },
    {
      "inputs": [
        {
          "internalType": "bytes32",
          "name": "role",
          "type": "bytes32"
        }
      ],
      "name": "getRoleAdmin",
      "outputs": [
        {
          "internalType": "bytes32",
          "name": "",
          "type": "bytes32"
        }
      ],
      "stateMutability": "view",
      "type": "function"
    },
    {
      "inputs": [
        {
          "internalType": "bytes32",
          "name": "role",
          "type": "bytes32"
        },
        {
          "internalType": "address",
          "name": "account",
          "type": "address"
        }
      ],
      "name": "grantRole",
      "outputs": [],
      "stateMutability": "nonpayable",
      "type": "function"
    },
    {
      "inputs": [
        {
          "internalType": "bytes32",
          "name": "role",
          "type": "bytes32"
        },
        {
          "internalType": "address",
          "name": "account",
          "type": "address"
        }
      ],
      "name": "hasRole",
      "outputs": [
        {
          "internalType": "bool",
          "name": "",
          "type": "bool"
        }
      ],
      "stateMutability": "view",
      "type": "function"
    },
    {
      "inputs": [
        {
          "internalType": "address",
          "name": "owner",
          "type": "address"
        },
        {
          "internalType": "address",
          "name": "_royaltyFeeRegistry",
          "type": "address"
        }
      ],
      "name": "initialize",
      "outputs": [],
      "stateMutability": "nonpayable",
      "type": "function"
    },
    {
      "inputs": [
        {
          "internalType": "bytes32",
          "name": "role",
          "type": "bytes32"
        },
        {
          "internalType": "address",
          "name": "account",
          "type": "address"
        }
      ],
      "name": "renounceRole",
      "outputs": [],
      "stateMutability": "nonpayable",
      "type": "function"
    },
    {
      "inputs": [
        {
          "internalType": "bytes32",
          "name": "role",
          "type": "bytes32"
        },
        {
          "internalType": "address",
          "name": "account",
          "type": "address"
        }
      ],
      "name": "revokeRole",
      "outputs": [],
      "stateMutability": "nonpayable",
      "type": "function"
    },
    {
      "inputs": [],
      "name": "royaltyFeeRegistry",
      "outputs": [
        {
          "internalType": "contract IRoyaltyFeeRegistry",
          "name": "",
          "type": "address"
        }
      ],
      "stateMutability": "view",
      "type": "function"
    },
    {
      "inputs": [
        {
          "internalType": "bytes4",
          "name": "interfaceId",
          "type": "bytes4"
        }
      ],
      "name": "supportsInterface",
      "outputs": [
        {
          "internalType": "bool",
          "name": "",
          "type": "bool"
        }
      ],
      "stateMutability": "view",
      "type": "function"
    }
  ],
  "transactionHash": "0x94ab6f53226a39c87cbc1b9930233143e6cc24b90c41e34de4895c9fffb35a9e",
  "args": [],
  "numDeployments": 2,
  "solcInputHash": "8c1ec2c9f75681c602cfb14faddac386",
  "bytecode": "0x608060405234801561001057600080fd5b5061001961001e565b6100de565b600054610100900460ff161561008a5760405162461bcd60e51b815260206004820152602760248201527f496e697469616c697a61626c653a20636f6e747261637420697320696e697469604482015266616c697a696e6760c81b606482015260840160405180910390fd5b60005460ff90811610156100dc576000805460ff191660ff9081179091556040519081527f7f26b83ff96e1f2b6a682f133852f6798a09c465da95921460cefb38474024989060200160405180910390a15b565b610c85806100ed6000396000f3fe608060405234801561001057600080fd5b50600436106100a95760003560e01c806391d148541161007157806391d1485414610142578063a217fddf14610155578063b060dd861461015d578063c16f515614610184578063d547741f146101af578063f4f635fa146101c257600080fd5b806301ffc9a7146100ae578063248a9ca3146100d65780632f2ff15d1461010757806336568abe1461011c578063485cc9551461012f575b600080fd5b6100c16100bc366004610aa8565b6101f4565b60405190151581526020015b60405180910390f35b6100f96100e4366004610a6a565b60009081526065602052604090206001015490565b6040519081526020016100cd565b61011a610115366004610a83565b61022b565b005b61011a61012a366004610a83565b610255565b61011a61013d3660046109ac565b6102d8565b6100c1610150366004610a83565b61042c565b6100f9600081565b61016b63152a902d60e11b81565b6040516001600160e01b031990911681526020016100cd565b609754610197906001600160a01b031681565b6040516001600160a01b0390911681526020016100cd565b61011a6101bd366004610a83565b610457565b6101d56101d0366004610a13565b61047c565b604080516001600160a01b0390931683526020830191909152016100cd565b60006001600160e01b03198216637965db0b60e01b148061022557506301ffc9a760e01b6001600160e01b03198316145b92915050565b60008281526065602052604090206001015461024681610637565b6102508383610644565b505050565b6001600160a01b03811633146102ca5760405162461bcd60e51b815260206004820152602f60248201527f416363657373436f6e74726f6c3a2063616e206f6e6c792072656e6f756e636560448201526e103937b632b9903337b91039b2b63360891b60648201526084015b60405180910390fd5b6102d482826106ca565b5050565b600054610100900460ff16158080156102f85750600054600160ff909116105b806103125750303b158015610312575060005460ff166001145b6103755760405162461bcd60e51b815260206004820152602e60248201527f496e697469616c697a61626c653a20636f6e747261637420697320616c72656160448201526d191e481a5b9a5d1a585b1a5e995960921b60648201526084016102c1565b6000805460ff191660011790558015610398576000805461ff0019166101001790555b6103a0610731565b6103a8610731565b336001600160a01b038416156103bb5750825b6103c6600082610644565b50609780546001600160a01b0319166001600160a01b0384161790558015610250576000805461ff0019169055604051600181527f7f26b83ff96e1f2b6a682f133852f6798a09c465da95921460cefb38474024989060200160405180910390a1505050565b60009182526065602090815260408084206001600160a01b0393909316845291905290205460ff1690565b60008281526065602052604090206001015461047281610637565b61025083836106ca565b609754604051632782d6c760e01b81526001600160a01b038581166004830152602482018490526000928392839283921690632782d6c790604401604080518083038186803b1580156104ce57600080fd5b505afa1580156104e2573d6000803e3d6000fd5b505050506040513d601f19601f8201168201806040525081019061050691906109e5565b90925090506001600160a01b038216158061051f575080155b1561062b576040516301ffc9a760e01b815263152a902d60e11b60048201526001600160a01b038816906301ffc9a79060240160206040518083038186803b15801561056a57600080fd5b505afa15801561057e573d6000803e3d6000fd5b505050506040513d601f19601f820116820180604052508101906105a29190610a48565b1561062b5760405163152a902d60e11b815260048101879052602481018690526001600160a01b03881690632a55205a90604401604080518083038186803b1580156105ed57600080fd5b505afa158015610601573d6000803e3d6000fd5b505050506040513d601f19601f8201168201806040525081019061062591906109e5565b90925090505b90969095509350505050565b610641813361079e565b50565b61064e828261042c565b6102d45760008281526065602090815260408083206001600160a01b03851684529091529020805460ff191660011790556106863390565b6001600160a01b0316816001600160a01b0316837f2f8788117e7eff1d82e926ec794901d17c78024a50270940304540a733656f0d60405160405180910390a45050565b6106d4828261042c565b156102d45760008281526065602090815260408083206001600160a01b0385168085529252808320805460ff1916905551339285917ff6391f5c32d9c69d2a47ea670b442974b53935d1edc7fd64eb21e047a839171b9190a45050565b600054610100900460ff1661079c5760405162461bcd60e51b815260206004820152602b60248201527f496e697469616c697a61626c653a20636f6e7472616374206973206e6f74206960448201526a6e697469616c697a696e6760a81b60648201526084016102c1565b565b6107a8828261042c565b6102d4576107b5816107f7565b6107c0836020610809565b6040516020016107d1929190610ad2565b60408051601f198184030181529082905262461bcd60e51b82526102c191600401610b47565b60606102256001600160a01b03831660145b60606000610818836002610b92565b610823906002610b7a565b67ffffffffffffffff81111561083b5761083b610c24565b6040519080825280601f01601f191660200182016040528015610865576020820181803683370190505b509050600360fc1b8160008151811061088057610880610c0e565b60200101906001600160f81b031916908160001a905350600f60fb1b816001815181106108af576108af610c0e565b60200101906001600160f81b031916908160001a90535060006108d3846002610b92565b6108de906001610b7a565b90505b6001811115610956576f181899199a1a9b1b9c1cb0b131b232b360811b85600f166010811061091257610912610c0e565b1a60f81b82828151811061092857610928610c0e565b60200101906001600160f81b031916908160001a90535060049490941c9361094f81610be1565b90506108e1565b5083156109a55760405162461bcd60e51b815260206004820181905260248201527f537472696e67733a20686578206c656e67746820696e73756666696369656e7460448201526064016102c1565b9392505050565b600080604083850312156109bf57600080fd5b82356109ca81610c3a565b915060208301356109da81610c3a565b809150509250929050565b600080604083850312156109f857600080fd5b8251610a0381610c3a565b6020939093015192949293505050565b600080600060608486031215610a2857600080fd5b8335610a3381610c3a565b95602085013595506040909401359392505050565b600060208284031215610a5a57600080fd5b815180151581146109a557600080fd5b600060208284031215610a7c57600080fd5b5035919050565b60008060408385031215610a9657600080fd5b8235915060208301356109da81610c3a565b600060208284031215610aba57600080fd5b81356001600160e01b0319811681146109a557600080fd5b7f416363657373436f6e74726f6c3a206163636f756e7420000000000000000000815260008351610b0a816017850160208801610bb1565b7001034b99036b4b9b9b4b733903937b6329607d1b6017918401918201528351610b3b816028840160208801610bb1565b01602801949350505050565b6020815260008251806020840152610b66816040850160208701610bb1565b601f01601f19169190910160400192915050565b60008219821115610b8d57610b8d610bf8565b500190565b6000816000190483118215151615610bac57610bac610bf8565b500290565b60005b83811015610bcc578181015183820152602001610bb4565b83811115610bdb576000848401525b50505050565b600081610bf057610bf0610bf8565b506000190190565b634e487b7160e01b600052601160045260246000fd5b634e487b7160e01b600052603260045260246000fd5b634e487b7160e01b600052604160045260246000fd5b6001600160a01b038116811461064157600080fdfea264697066735822122091fdb1ef7b57a28c748ad9b578b253169029f6294416979dc2e779437f5856c464736f6c63430008070033",
  "devdoc": {
    "kind": "dev",
    "methods": {
      "calculateRoyaltyFeeAndGetRecipient(address,uint256,uint256)": {
        "params": {
          "amount": "amount to transfer",
          "collection": "address of the NFT contract",
          "tokenId": "tokenId"
        }
      },
      "constructor": {
        "custom:oz-upgrades-unsafe-allow": "constructor"
      },
      "getRoleAdmin(bytes32)": {
        "details": "Returns the admin role that controls `role`. See {grantRole} and {revokeRole}. To change a role's admin, use {_setRoleAdmin}."
      },
      "grantRole(bytes32,address)": {
        "details": "Grants `role` to `account`. If `account` had not been already granted `role`, emits a {RoleGranted} event. Requirements: - the caller must have ``role``'s admin role. May emit a {RoleGranted} event."
      },
      "hasRole(bytes32,address)": {
        "details": "Returns `true` if `account` has been granted `role`."
      },
      "initialize(address,address)": {
        "params": {
          "_royaltyFeeRegistry": "address of the RoyaltyFeeRegistry"
        }
      },
      "renounceRole(bytes32,address)": {
        "details": "Revokes `role` from the calling account. Roles are often managed via {grantRole} and {revokeRole}: this function's purpose is to provide a mechanism for accounts to lose their privileges if they are compromised (such as when a trusted device is misplaced). If the calling account had been revoked `role`, emits a {RoleRevoked} event. Requirements: - the caller must be `account`. May emit a {RoleRevoked} event."
      },
      "revokeRole(bytes32,address)": {
        "details": "Revokes `role` from `account`. If `account` had been granted `role`, emits a {RoleRevoked} event. Requirements: - the caller must have ``role``'s admin role. May emit a {RoleRevoked} event."
      },
      "supportsInterface(bytes4)": {
        "details": "See {IERC165-supportsInterface}."
      }
    },
    "title": "RoyaltyFeeManager",
    "version": 1
  },
  "userdoc": {
    "kind": "user",
    "methods": {
      "calculateRoyaltyFeeAndGetRecipient(address,uint256,uint256)": {
        "notice": "Calculate royalty fee and get recipient"
      },
      "initialize(address,address)": {
        "notice": "Initialize"
      }
    },
    "notice": "It handles the logic to check and transfer royalty fees (if any).",
    "version": 1
  },
  "storageLayout": {
    "storage": [
      {
        "astId": 415,
        "contract": "contracts/RoyaltyFeeManager.sol:RoyaltyFeeManager",
        "label": "_initialized",
        "offset": 0,
        "slot": "0",
        "type": "t_uint8"
      },
      {
        "astId": 418,
        "contract": "contracts/RoyaltyFeeManager.sol:RoyaltyFeeManager",
        "label": "_initializing",
        "offset": 1,
        "slot": "0",
        "type": "t_bool"
      },
      {
        "astId": 975,
        "contract": "contracts/RoyaltyFeeManager.sol:RoyaltyFeeManager",
        "label": "__gap",
        "offset": 0,
        "slot": "1",
        "type": "t_array(t_uint256)50_storage"
      },
      {
        "astId": 1194,
        "contract": "contracts/RoyaltyFeeManager.sol:RoyaltyFeeManager",
        "label": "__gap",
        "offset": 0,
        "slot": "51",
        "type": "t_array(t_uint256)50_storage"
      },
      {
        "astId": 39,
        "contract": "contracts/RoyaltyFeeManager.sol:RoyaltyFeeManager",
        "label": "_roles",
        "offset": 0,
        "slot": "101",
        "type": "t_mapping(t_bytes32,t_struct(RoleData)34_storage)"
      },
      {
        "astId": 334,
        "contract": "contracts/RoyaltyFeeManager.sol:RoyaltyFeeManager",
        "label": "__gap",
        "offset": 0,
        "slot": "102",
        "type": "t_array(t_uint256)49_storage"
      },
      {
        "astId": 10503,
        "contract": "contracts/RoyaltyFeeManager.sol:RoyaltyFeeManager",
        "label": "royaltyFeeRegistry",
        "offset": 0,
        "slot": "151",
        "type": "t_contract(IRoyaltyFeeRegistry)12602"
      }
    ],
    "types": {
      "t_address": {
        "encoding": "inplace",
        "label": "address",
        "numberOfBytes": "20"
      },
      "t_array(t_uint256)49_storage": {
        "base": "t_uint256",
        "encoding": "inplace",
        "label": "uint256[49]",
        "numberOfBytes": "1568"
      },
      "t_array(t_uint256)50_storage": {
        "base": "t_uint256",
        "encoding": "inplace",
        "label": "uint256[50]",
        "numberOfBytes": "1600"
      },
      "t_bool": {
        "encoding": "inplace",
        "label": "bool",
        "numberOfBytes": "1"
      },
      "t_bytes32": {
        "encoding": "inplace",
        "label": "bytes32",
        "numberOfBytes": "32"
      },
      "t_contract(IRoyaltyFeeRegistry)12602": {
        "encoding": "inplace",
        "label": "contract IRoyaltyFeeRegistry",
        "numberOfBytes": "20"
      },
      "t_mapping(t_address,t_bool)": {
        "encoding": "mapping",
        "key": "t_address",
        "label": "mapping(address => bool)",
        "numberOfBytes": "32",
        "value": "t_bool"
      },
      "t_mapping(t_bytes32,t_struct(RoleData)34_storage)": {
        "encoding": "mapping",
        "key": "t_bytes32",
        "label": "mapping(bytes32 => struct AccessControlUpgradeable.RoleData)",
        "numberOfBytes": "32",
        "value": "t_struct(RoleData)34_storage"
      },
      "t_struct(RoleData)34_storage": {
        "encoding": "inplace",
        "label": "struct AccessControlUpgradeable.RoleData",
        "members": [
          {
            "astId": 31,
            "contract": "contracts/RoyaltyFeeManager.sol:RoyaltyFeeManager",
            "label": "members",
            "offset": 0,
            "slot": "0",
            "type": "t_mapping(t_address,t_bool)"
          },
          {
            "astId": 33,
            "contract": "contracts/RoyaltyFeeManager.sol:RoyaltyFeeManager",
            "label": "adminRole",
            "offset": 0,
            "slot": "1",
            "type": "t_bytes32"
          }
        ],
        "numberOfBytes": "64"
      },
      "t_uint256": {
        "encoding": "inplace",
        "label": "uint256",
        "numberOfBytes": "32"
      },
      "t_uint8": {
        "encoding": "inplace",
        "label": "uint8",
        "numberOfBytes": "1"
      }
    }
  }
}