{
  "address": "0x454FbDfB8053C7D744dbC4DAEe71810C56285dA4",
  "abi": [
    {
      "inputs": [],
      "stateMutability": "nonpayable",
      "type": "constructor"
    },
    {
      "anonymous": false,
      "inputs": [
        {
          "indexed": false,
          "internalType": "uint256",
          "name": "protocolFee",
          "type": "uint256"
        }
      ],
      "name": "NewProtocolFee",
      "type": "event"
    },
    {
      "anonymous": false,
      "inputs": [
        {
          "indexed": true,
          "internalType": "address",
          "name": "previousOwner",
          "type": "address"
        },
        {
          "indexed": true,
          "internalType": "address",
          "name": "newOwner",
          "type": "address"
        }
      ],
      "name": "OwnershipTransferred",
      "type": "event"
    },
    {
      "anonymous": false,
      "inputs": [
        {
          "indexed": true,
          "internalType": "address",
          "name": "collection",
          "type": "address"
        },
        {
          "indexed": true,
          "internalType": "uint256",
          "name": "tokenId",
          "type": "uint256"
        },
        {
          "indexed": false,
          "internalType": "uint256",
          "name": "startTime",
          "type": "uint256"
        },
        {
          "indexed": false,
          "internalType": "uint256",
          "name": "endTime",
          "type": "uint256"
        }
      ],
      "name": "UpdateValidTime",
      "type": "event"
    },
    {
      "inputs": [
        {
          "components": [
            {
              "internalType": "bool",
              "name": "isOrderAsk",
              "type": "bool"
            },
            {
              "internalType": "address",
              "name": "taker",
              "type": "address"
            },
            {
              "internalType": "uint256",
              "name": "price",
              "type": "uint256"
            },
            {
              "internalType": "uint256",
              "name": "tokenId",
              "type": "uint256"
            },
            {
              "internalType": "uint256",
              "name": "minPercentageToAsk",
              "type": "uint256"
            },
            {
              "internalType": "bytes",
              "name": "params",
              "type": "bytes"
            }
          ],
          "internalType": "struct OrderTypes.TakerOrder",
          "name": "takerAsk",
          "type": "tuple"
        },
        {
          "components": [
            {
              "internalType": "bool",
              "name": "isOrderAsk",
              "type": "bool"
            },
            {
              "internalType": "address",
              "name": "signer",
              "type": "address"
            },
            {
              "internalType": "address",
              "name": "collection",
              "type": "address"
            },
            {
              "internalType": "uint256",
              "name": "price",
              "type": "uint256"
            },
            {
              "internalType": "uint256",
              "name": "tokenId",
              "type": "uint256"
            },
            {
              "internalType": "uint256",
              "name": "amount",
              "type": "uint256"
            },
            {
              "internalType": "address",
              "name": "strategy",
              "type": "address"
            },
            {
              "internalType": "address",
              "name": "currency",
              "type": "address"
            },
            {
              "internalType": "uint256",
              "name": "nonce",
              "type": "uint256"
            },
            {
              "internalType": "uint256",
              "name": "startTime",
              "type": "uint256"
            },
            {
              "internalType": "uint256",
              "name": "endTime",
              "type": "uint256"
            },
            {
              "internalType": "uint256",
              "name": "minPercentageToAsk",
              "type": "uint256"
            },
            {
              "internalType": "bytes",
              "name": "params",
              "type": "bytes"
            },
            {
              "internalType": "uint8",
              "name": "v",
              "type": "uint8"
            },
            {
              "internalType": "bytes32",
              "name": "r",
              "type": "bytes32"
            },
            {
              "internalType": "bytes32",
              "name": "s",
              "type": "bytes32"
            }
          ],
          "internalType": "struct OrderTypes.MakerOrder",
          "name": "makerBid",
          "type": "tuple"
        }
      ],
      "name": "canExecuteTakerAsk",
      "outputs": [
        {
          "internalType": "bool",
          "name": "",
          "type": "bool"
        },
        {
          "internalType": "uint256",
          "name": "",
          "type": "uint256"
        },
        {
          "internalType": "uint256",
          "name": "",
          "type": "uint256"
        }
      ],
      "stateMutability": "view",
      "type": "function"
    },
    {
      "inputs": [
        {
          "components": [
            {
              "internalType": "bool",
              "name": "isOrderAsk",
              "type": "bool"
            },
            {
              "internalType": "address",
              "name": "taker",
              "type": "address"
            },
            {
              "internalType": "uint256",
              "name": "price",
              "type": "uint256"
            },
            {
              "internalType": "uint256",
              "name": "tokenId",
              "type": "uint256"
            },
            {
              "internalType": "uint256",
              "name": "minPercentageToAsk",
              "type": "uint256"
            },
            {
              "internalType": "bytes",
              "name": "params",
              "type": "bytes"
            }
          ],
          "internalType": "struct OrderTypes.TakerOrder",
          "name": "takerBid",
          "type": "tuple"
        },
        {
          "components": [
            {
              "internalType": "bool",
              "name": "isOrderAsk",
              "type": "bool"
            },
            {
              "internalType": "address",
              "name": "signer",
              "type": "address"
            },
            {
              "internalType": "address",
              "name": "collection",
              "type": "address"
            },
            {
              "internalType": "uint256",
              "name": "price",
              "type": "uint256"
            },
            {
              "internalType": "uint256",
              "name": "tokenId",
              "type": "uint256"
            },
            {
              "internalType": "uint256",
              "name": "amount",
              "type": "uint256"
            },
            {
              "internalType": "address",
              "name": "strategy",
              "type": "address"
            },
            {
              "internalType": "address",
              "name": "currency",
              "type": "address"
            },
            {
              "internalType": "uint256",
              "name": "nonce",
              "type": "uint256"
            },
            {
              "internalType": "uint256",
              "name": "startTime",
              "type": "uint256"
            },
            {
              "internalType": "uint256",
              "name": "endTime",
              "type": "uint256"
            },
            {
              "internalType": "uint256",
              "name": "minPercentageToAsk",
              "type": "uint256"
            },
            {
              "internalType": "bytes",
              "name": "params",
              "type": "bytes"
            },
            {
              "internalType": "uint8",
              "name": "v",
              "type": "uint8"
            },
            {
              "internalType": "bytes32",
              "name": "r",
              "type": "bytes32"
            },
            {
              "internalType": "bytes32",
              "name": "s",
              "type": "bytes32"
            }
          ],
          "internalType": "struct OrderTypes.MakerOrder",
          "name": "makerAsk",
          "type": "tuple"
        }
      ],
      "name": "canExecuteTakerBid",
      "outputs": [
        {
          "internalType": "bool",
          "name": "",
          "type": "bool"
        },
        {
          "internalType": "uint256",
          "name": "",
          "type": "uint256"
        },
        {
          "internalType": "uint256",
          "name": "",
          "type": "uint256"
        }
      ],
      "stateMutability": "view",
      "type": "function"
    },
    {
      "inputs": [],
      "name": "derivativeNFTInterfaceId",
      "outputs": [
        {
          "internalType": "bytes4",
          "name": "",
          "type": "bytes4"
        }
      ],
      "stateMutability": "view",
      "type": "function"
    },
    {
      "inputs": [],
      "name": "owner",
      "outputs": [
        {
          "internalType": "address",
          "name": "",
          "type": "address"
        }
      ],
      "stateMutability": "view",
      "type": "function"
    },
    {
      "inputs": [],
      "name": "renounceOwnership",
      "outputs": [],
      "stateMutability": "nonpayable",
      "type": "function"
    },
    {
      "inputs": [
        {
          "internalType": "bytes4",
          "name": "interfaceId",
          "type": "bytes4"
        }
      ],
      "name": "setDerivativeNFTInterfaceId",
      "outputs": [],
      "stateMutability": "nonpayable",
      "type": "function"
    },
    {
      "inputs": [
        {
          "internalType": "uint256",
          "name": "newProtocolFee",
          "type": "uint256"
        }
      ],
      "name": "setProtocolFee",
      "outputs": [],
      "stateMutability": "nonpayable",
      "type": "function"
    },
    {
      "inputs": [
        {
          "internalType": "bytes4",
          "name": "interfaceId",
          "type": "bytes4"
        }
      ],
      "name": "supportsInterface",
      "outputs": [
        {
          "internalType": "bool",
          "name": "",
          "type": "bool"
        }
      ],
      "stateMutability": "view",
      "type": "function"
    },
    {
      "inputs": [
        {
          "internalType": "address",
          "name": "newOwner",
          "type": "address"
        }
      ],
      "name": "transferOwnership",
      "outputs": [],
      "stateMutability": "nonpayable",
      "type": "function"
    },
    {
      "inputs": [],
      "name": "viewProtocolFee",
      "outputs": [
        {
          "internalType": "uint256",
          "name": "",
          "type": "uint256"
        }
      ],
      "stateMutability": "view",
      "type": "function"
    }
  ],
  "transactionHash": "0xf067db35b5ae5efe05e963c57924afc852e8cb4abab3e47a6d978e229f68216b",
  "args": [],
  "numDeployments": 5,
  "solcInputHash": "c72002ff3a68ffab7092fc689a582fa4",
  "bytecode": "0x6080604052609660015534801561001557600080fd5b5061001f33610034565b61002f6337db764960e01b610084565b610105565b600080546001600160a01b038381166001600160a01b0319831681178455604051919092169283917f8be0079c531659141344cd1fd0a4f28419497f9722a3daafe3b4186f6b6457e09190a35050565b61008c6100a5565b6002805463ffffffff191660e09290921c919091179055565b6000546001600160a01b031633146101035760405162461bcd60e51b815260206004820181905260248201527f4f776e61626c653a2063616c6c6572206973206e6f7420746865206f776e6572604482015260640160405180910390fd5b565b610a98806101146000396000f3fe608060405234801561001057600080fd5b506004361061009e5760003560e01c8063865781ca11610066578063865781ca146101215780638da5cb5b146101515780639dd1cda61461016c578063ad2390ac1461017d578063f2fde38b1461019057600080fd5b806301ffc9a7146100a357806365f04bb3146100cb5780636964f21b146100f1578063715018a614610106578063787dce3d1461010e575b600080fd5b6100b66100b13660046108ba565b6101a3565b60405190151581526020015b60405180910390f35b6002546100d89060e01b81565b6040516001600160e01b031990911681526020016100c2565b6101046100ff3660046108ba565b6101da565b005b6101046101fb565b61010461011c3660046109a8565b61020f565b61013461012f366004610934565b6102a8565b6040805193151584526020840192909252908201526060016100c2565b6000546040516001600160a01b0390911681526020016100c2565b6001546040519081526020016100c2565b61013461018b366004610934565b6103a1565b61010461019e366004610880565b61055a565b60006301ffc9a760e01b6001600160e01b0319831614806101d457506001600160e01b031982166302da977360e61b145b92915050565b6101e26105d3565b6002805463ffffffff191660e09290921c919091179055565b6102036105d3565b61020d600061062d565b565b6102176105d3565b600154811061026d5760405162461bcd60e51b815260206004820152601c60248201527f4f776e65723a2050726f746f636f6c2066656520746f6f20686967680000000060448201526064015b60405180910390fd5b60018190556040518181527f3e1c6f794380f768303ee10adb978482d0ee037b0517bdabf3118141632078a69060200160405180910390a150565b600254600090819081906102d89060e01b6102c96060870160408801610880565b6001600160a01b03169061067d565b6102f157506000915050608082013560a083013561039a565b60006103016101808601866109da565b81019061030e91906108e4565b90506103306103236060870160408801610880565b82516080880135906106a0565b61034a5750600092505050608082013560a083013561039a565b85604001358560600135148015610368575085606001358560800135145b801561037957504285610120013511155b801561038a57504285610140013510155b9350505050608082013560a08301355b9250925092565b600254600090819081906103c29060e01b6102c96060870160408801610880565b6103db57506000915050608082013560a083013561039a565b60006103ed6060860160408701610880565b60405163934689a960e01b8152608087013560048201526001600160a01b03919091169063934689a99060240160206040518083038186803b15801561043257600080fd5b505afa158015610446573d6000803e3d6000fd5b505050506040513d601f19601f8201168201806040525081019061046a919061089d565b90506001600160a01b0381166104866040870160208801610880565b6001600160a01b0316146104aa5750600092505050608082013560a083013561039a565b60006104b960a08801886109da565b8101906104c691906108e4565b90506104e86104db6060880160408901610880565b825160608a0135906106a0565b610503575060009350505050608082013560a083013561039a565b86604001358660600135148015610521575086606001358660800135145b801561053257504286610120013511155b801561054357504286610140013510155b976080870135975060a09096013595945050505050565b6105626105d3565b6001600160a01b0381166105c75760405162461bcd60e51b815260206004820152602660248201527f4f776e61626c653a206e6577206f776e657220697320746865207a65726f206160448201526564647265737360d01b6064820152608401610264565b6105d08161062d565b50565b6000546001600160a01b0316331461020d5760405162461bcd60e51b815260206004820181905260248201527f4f776e61626c653a2063616c6c6572206973206e6f7420746865206f776e65726044820152606401610264565b600080546001600160a01b038381166001600160a01b0319831681178455604051919092169283917f8be0079c531659141344cd1fd0a4f28419497f9722a3daafe3b4186f6b6457e09190a35050565b6000610688836107c4565b8015610699575061069983836107f7565b9392505050565b604051634ea3325560e01b81526004810183905260009081906001600160a01b03861690634ea332559060240160206040518083038186803b1580156106e557600080fd5b505afa1580156106f9573d6000803e3d6000fd5b505050506040513d601f19601f8201168201806040525081019061071d91906109c1565b60405163753199c360e11b8152600481018690529091506000906001600160a01b0387169063ea6333869060240160206040518083038186803b15801561076357600080fd5b505afa158015610777573d6000803e3d6000fd5b505050506040513d601f19601f8201168201806040525081019061079b91906109c1565b9050836107a88383610a28565b106107b857600192505050610699565b50600095945050505050565b60006107d7826301ffc9a760e01b6107f7565b80156101d457506107f0826001600160e01b03196107f7565b1592915050565b604080516001600160e01b03198316602480830191909152825180830390910181526044909101909152602080820180516001600160e01b03166301ffc9a760e01b178152825160009392849283928392918391908a617530fa92503d91506000519050828015610869575060208210155b80156108755750600081115b979650505050505050565b60006020828403121561089257600080fd5b813561069981610a4d565b6000602082840312156108af57600080fd5b815161069981610a4d565b6000602082840312156108cc57600080fd5b81356001600160e01b03198116811461069957600080fd5b6000602082840312156108f657600080fd5b6040516020810181811067ffffffffffffffff8211171561092757634e487b7160e01b600052604160045260246000fd5b6040529135825250919050565b6000806040838503121561094757600080fd5b823567ffffffffffffffff8082111561095f57600080fd5b9084019060c0828703121561097357600080fd5b9092506020840135908082111561098957600080fd5b508301610200818603121561099d57600080fd5b809150509250929050565b6000602082840312156109ba57600080fd5b5035919050565b6000602082840312156109d357600080fd5b5051919050565b6000808335601e198436030181126109f157600080fd5b83018035915067ffffffffffffffff821115610a0c57600080fd5b602001915036819003821315610a2157600080fd5b9250929050565b600082821015610a4857634e487b7160e01b600052601160045260246000fd5b500390565b6001600160a01b03811681146105d057600080fdfea26469706673582212201236d5a35c47c3cd268138290b00caa6cd796507431aaac2eac0327449bf6a1a64736f6c63430008070033",
  "devdoc": {
    "kind": "dev",
    "methods": {
      "canExecuteTakerAsk((bool,address,uint256,uint256,uint256,bytes),(bool,address,address,uint256,uint256,uint256,address,address,uint256,uint256,uint256,uint256,bytes,uint8,bytes32,bytes32))": {
        "params": {
          "makerBid": "maker bid order",
          "takerAsk": "taker ask order"
        },
        "returns": {
          "_0": "(whether strategy can be executed, tokenId to execute, amount of tokens to execute)"
        }
      },
      "canExecuteTakerBid((bool,address,uint256,uint256,uint256,bytes),(bool,address,address,uint256,uint256,uint256,address,address,uint256,uint256,uint256,uint256,bytes,uint8,bytes32,bytes32))": {
        "params": {
          "makerAsk": "maker ask order",
          "takerBid": "taker bid order"
        },
        "returns": {
          "_0": "(whether strategy can be executed, tokenId to execute, amount of tokens to execute)"
        }
      },
      "owner()": {
        "details": "Returns the address of the current owner."
      },
      "renounceOwnership()": {
        "details": "Leaves the contract without owner. It will not be possible to call `onlyOwner` functions anymore. Can only be called by the current owner. NOTE: Renouncing ownership will leave the contract without an owner, thereby removing any functionality that is only available to the owner."
      },
      "setProtocolFee(uint256)": {
        "params": {
          "newProtocolFee": "protocol fee"
        }
      },
      "supportsInterface(bytes4)": {
        "details": "See {IERC165-supportsInterface}."
      },
      "transferOwnership(address)": {
        "details": "Transfers ownership of the contract to a new account (`newOwner`). Can only be called by the current owner."
      },
      "viewProtocolFee()": {
        "returns": {
          "_0": "protocol fee"
        }
      }
    },
    "title": "StrategyStandardSaleForFixedPriceV1B",
    "version": 1
  },
  "userdoc": {
    "kind": "user",
    "methods": {
      "canExecuteTakerAsk((bool,address,uint256,uint256,uint256,bytes),(bool,address,address,uint256,uint256,uint256,address,address,uint256,uint256,uint256,uint256,bytes,uint8,bytes32,bytes32))": {
        "notice": "Check whether a taker ask order can be executed against a maker bid"
      },
      "canExecuteTakerBid((bool,address,uint256,uint256,uint256,bytes),(bool,address,address,uint256,uint256,uint256,address,address,uint256,uint256,uint256,uint256,bytes,uint8,bytes32,bytes32))": {
        "notice": "Check whether a taker bid order can be executed against a maker ask"
      },
      "setProtocolFee(uint256)": {
        "notice": "Set new protocol fee for this strategy"
      },
      "viewProtocolFee()": {
        "notice": "Return protocol fee for this strategy"
      }
    },
    "notice": "Strategy that executes an order at a fixed price that can be taken either by a bid or an ask.",
    "version": 1
  },
  "storageLayout": {
    "storage": [
      {
        "astId": 2693,
        "contract": "contracts/executionStrategies/StrategyStandardSaleForFixedPriceDNFT.sol:StrategyStandardSaleForFixedPriceDNFT",
        "label": "_owner",
        "offset": 0,
        "slot": "0",
        "type": "t_address"
      },
      {
        "astId": 11967,
        "contract": "contracts/executionStrategies/StrategyStandardSaleForFixedPriceDNFT.sol:StrategyStandardSaleForFixedPriceDNFT",
        "label": "_protocolFee",
        "offset": 0,
        "slot": "1",
        "type": "t_uint256"
      },
      {
        "astId": 11969,
        "contract": "contracts/executionStrategies/StrategyStandardSaleForFixedPriceDNFT.sol:StrategyStandardSaleForFixedPriceDNFT",
        "label": "derivativeNFTInterfaceId",
        "offset": 0,
        "slot": "2",
        "type": "t_bytes4"
      }
    ],
    "types": {
      "t_address": {
        "encoding": "inplace",
        "label": "address",
        "numberOfBytes": "20"
      },
      "t_bytes4": {
        "encoding": "inplace",
        "label": "bytes4",
        "numberOfBytes": "4"
      },
      "t_uint256": {
        "encoding": "inplace",
        "label": "uint256",
        "numberOfBytes": "32"
      }
    }
  }
}