{
  "address": "0x8e1E0fEa08610Cd2927E587C9b7436063165b980",
  "abi": [
    {
      "inputs": [],
      "stateMutability": "nonpayable",
      "type": "constructor"
    },
    {
      "anonymous": false,
      "inputs": [
        {
          "indexed": false,
          "internalType": "uint8",
          "name": "version",
          "type": "uint8"
        }
      ],
      "name": "Initialized",
      "type": "event"
    },
    {
      "anonymous": false,
      "inputs": [
        {
          "indexed": true,
          "internalType": "bytes32",
          "name": "role",
          "type": "bytes32"
        },
        {
          "indexed": true,
          "internalType": "bytes32",
          "name": "previousAdminRole",
          "type": "bytes32"
        },
        {
          "indexed": true,
          "internalType": "bytes32",
          "name": "newAdminRole",
          "type": "bytes32"
        }
      ],
      "name": "RoleAdminChanged",
      "type": "event"
    },
    {
      "anonymous": false,
      "inputs": [
        {
          "indexed": true,
          "internalType": "bytes32",
          "name": "role",
          "type": "bytes32"
        },
        {
          "indexed": true,
          "internalType": "address",
          "name": "account",
          "type": "address"
        },
        {
          "indexed": true,
          "internalType": "address",
          "name": "sender",
          "type": "address"
        }
      ],
      "name": "RoleGranted",
      "type": "event"
    },
    {
      "anonymous": false,
      "inputs": [
        {
          "indexed": true,
          "internalType": "bytes32",
          "name": "role",
          "type": "bytes32"
        },
        {
          "indexed": true,
          "internalType": "address",
          "name": "account",
          "type": "address"
        },
        {
          "indexed": true,
          "internalType": "address",
          "name": "sender",
          "type": "address"
        }
      ],
      "name": "RoleRevoked",
      "type": "event"
    },
    {
      "inputs": [],
      "name": "DEFAULT_ADMIN_ROLE",
      "outputs": [
        {
          "internalType": "bytes32",
          "name": "",
          "type": "bytes32"
        }
      ],
      "stateMutability": "view",
      "type": "function"
    },
    {
      "inputs": [],
      "name": "INTERFACE_ID_ERC1155",
      "outputs": [
        {
          "internalType": "bytes4",
          "name": "",
          "type": "bytes4"
        }
      ],
      "stateMutability": "view",
      "type": "function"
    },
    {
      "inputs": [],
      "name": "INTERFACE_ID_ERC2981",
      "outputs": [
        {
          "internalType": "bytes4",
          "name": "",
          "type": "bytes4"
        }
      ],
      "stateMutability": "view",
      "type": "function"
    },
    {
      "inputs": [],
      "name": "INTERFACE_ID_ERC721",
      "outputs": [
        {
          "internalType": "bytes4",
          "name": "",
          "type": "bytes4"
        }
      ],
      "stateMutability": "view",
      "type": "function"
    },
    {
      "inputs": [
        {
          "internalType": "address",
          "name": "collection",
          "type": "address"
        }
      ],
      "name": "checkForCollectionSetter",
      "outputs": [
        {
          "internalType": "address",
          "name": "",
          "type": "address"
        },
        {
          "internalType": "uint8",
          "name": "",
          "type": "uint8"
        }
      ],
      "stateMutability": "view",
      "type": "function"
    },
    {
      "inputs": [
        {
          "internalType": "bytes32",
          "name": "role",
          "type": "bytes32"
        }
      ],
      "name": "getRoleAdmin",
      "outputs": [
        {
          "internalType": "bytes32",
          "name": "",
          "type": "bytes32"
        }
      ],
      "stateMutability": "view",
      "type": "function"
    },
    {
      "inputs": [
        {
          "internalType": "bytes32",
          "name": "role",
          "type": "bytes32"
        },
        {
          "internalType": "address",
          "name": "account",
          "type": "address"
        }
      ],
      "name": "grantRole",
      "outputs": [],
      "stateMutability": "nonpayable",
      "type": "function"
    },
    {
      "inputs": [
        {
          "internalType": "bytes32",
          "name": "role",
          "type": "bytes32"
        },
        {
          "internalType": "address",
          "name": "account",
          "type": "address"
        }
      ],
      "name": "hasRole",
      "outputs": [
        {
          "internalType": "bool",
          "name": "",
          "type": "bool"
        }
      ],
      "stateMutability": "view",
      "type": "function"
    },
    {
      "inputs": [
        {
          "internalType": "address",
          "name": "owner",
          "type": "address"
        },
        {
          "internalType": "address",
          "name": "_royaltyFeeRegistry",
          "type": "address"
        }
      ],
      "name": "initialize",
      "outputs": [],
      "stateMutability": "nonpayable",
      "type": "function"
    },
    {
      "inputs": [
        {
          "internalType": "bytes32",
          "name": "role",
          "type": "bytes32"
        },
        {
          "internalType": "address",
          "name": "account",
          "type": "address"
        }
      ],
      "name": "renounceRole",
      "outputs": [],
      "stateMutability": "nonpayable",
      "type": "function"
    },
    {
      "inputs": [
        {
          "internalType": "bytes32",
          "name": "role",
          "type": "bytes32"
        },
        {
          "internalType": "address",
          "name": "account",
          "type": "address"
        }
      ],
      "name": "revokeRole",
      "outputs": [],
      "stateMutability": "nonpayable",
      "type": "function"
    },
    {
      "inputs": [],
      "name": "royaltyFeeRegistry",
      "outputs": [
        {
          "internalType": "address",
          "name": "",
          "type": "address"
        }
      ],
      "stateMutability": "view",
      "type": "function"
    },
    {
      "inputs": [
        {
          "internalType": "bytes4",
          "name": "interfaceId",
          "type": "bytes4"
        }
      ],
      "name": "supportsInterface",
      "outputs": [
        {
          "internalType": "bool",
          "name": "",
          "type": "bool"
        }
      ],
      "stateMutability": "view",
      "type": "function"
    },
    {
      "inputs": [
        {
          "internalType": "uint256",
          "name": "_royaltyFeeLimit",
          "type": "uint256"
        }
      ],
      "name": "updateRoyaltyFeeLimit",
      "outputs": [],
      "stateMutability": "nonpayable",
      "type": "function"
    },
    {
      "inputs": [
        {
          "internalType": "address",
          "name": "collection",
          "type": "address"
        },
        {
          "internalType": "address",
          "name": "setter",
          "type": "address"
        },
        {
          "internalType": "address",
          "name": "receiver",
          "type": "address"
        },
        {
          "internalType": "uint256",
          "name": "fee",
          "type": "uint256"
        }
      ],
      "name": "updateRoyaltyInfoForCollection",
      "outputs": [],
      "stateMutability": "nonpayable",
      "type": "function"
    },
    {
      "inputs": [
        {
          "internalType": "address",
          "name": "collection",
          "type": "address"
        },
        {
          "internalType": "address",
          "name": "setter",
          "type": "address"
        },
        {
          "internalType": "address",
          "name": "receiver",
          "type": "address"
        },
        {
          "internalType": "uint256",
          "name": "fee",
          "type": "uint256"
        }
      ],
      "name": "updateRoyaltyInfoForCollectionIfAdmin",
      "outputs": [],
      "stateMutability": "nonpayable",
      "type": "function"
    },
    {
      "inputs": [
        {
          "internalType": "address",
          "name": "collection",
          "type": "address"
        },
        {
          "internalType": "address",
          "name": "setter",
          "type": "address"
        },
        {
          "internalType": "address",
          "name": "receiver",
          "type": "address"
        },
        {
          "internalType": "uint256",
          "name": "fee",
          "type": "uint256"
        }
      ],
      "name": "updateRoyaltyInfoForCollectionIfOwner",
      "outputs": [],
      "stateMutability": "nonpayable",
      "type": "function"
    },
    {
      "inputs": [
        {
          "internalType": "address",
          "name": "collection",
          "type": "address"
        },
        {
          "internalType": "address",
          "name": "setter",
          "type": "address"
        },
        {
          "internalType": "address",
          "name": "receiver",
          "type": "address"
        },
        {
          "internalType": "uint256",
          "name": "fee",
          "type": "uint256"
        }
      ],
      "name": "updateRoyaltyInfoForCollectionIfSetter",
      "outputs": [],
      "stateMutability": "nonpayable",
      "type": "function"
    }
  ],
  "transactionHash": "0x688f2445b78b22344e1f8fa2ad72889c31537048ef7516e280f71068d4a0c95d",
  "args": [],
  "numDeployments": 1,
  "solcInputHash": "c72002ff3a68ffab7092fc689a582fa4",
  "bytecode": "0x608060405234801561001057600080fd5b5061001961001e565b6100de565b600054610100900460ff161561008a5760405162461bcd60e51b815260206004820152602760248201527f496e697469616c697a61626c653a20636f6e747261637420697320696e697469604482015266616c697a696e6760c81b606482015260840160405180910390fd5b60005460ff90811610156100dc576000805460ff191660ff9081179091556040519081527f7f26b83ff96e1f2b6a682f133852f6798a09c465da95921460cefb38474024989060200160405180910390a15b565b611590806100ed6000396000f3fe608060405234801561001057600080fd5b50600436106101165760003560e01c8063a217fddf116100a2578063bbdf9b6811610071578063bbdf9b681461023f578063bc6bc0cd14610252578063c16f515614610260578063c54e54971461028b578063d547741f146102bf57600080fd5b8063a217fddf14610203578063ab0166701461020b578063b060dd861461021e578063b9223c9d1461022c57600080fd5b806333bf6156116100e957806333bf61561461019c57806336568abe146101b75780633755fa80146101ca578063485cc955146101dd57806391d14854146101f057600080fd5b806301ffc9a71461011b578063248a9ca314610143578063275da5ef146101745780632f2ff15d14610189575b600080fd5b61012e6101293660046113a2565b6102d2565b60405190151581526020015b60405180910390f35b610166610151366004611364565b60009081526065602052604090206001015490565b60405190815260200161013a565b6101876101823660046112ae565b610309565b005b61018761019736600461137d565b61045f565b6101aa636cdb3d1360e11b81565b60405161013a9190611441565b6101876101c536600461137d565b610489565b6101876101d83660046112ae565b610507565b6101876101eb366004611275565b6106b1565b61012e6101fe36600461137d565b610805565b610166600081565b6101876102193660046112ae565b610830565b6101aa63152a902d60e11b81565b61018761023a366004611364565b6109c8565b61018761024d3660046112ae565b610a35565b6101aa6380ac58cd60e01b81565b609754610273906001600160a01b031681565b6040516001600160a01b03909116815260200161013a565b61029e61029936600461123b565b610a40565b604080516001600160a01b03909316835260ff90911660208301520161013a565b6101876102cd36600461137d565b610c79565b60006001600160e01b03198216637965db0b60e01b148061030357506301ffc9a760e01b6001600160e01b03198316145b92915050565b6097546040516338c7be4760e21b81526001600160a01b038681166004830152600092169063e31ef91c9060240160606040518083038186803b15801561034f57600080fd5b505afa158015610363573d6000803e3d6000fd5b505050506040513d601f19601f8201168201806040525081019061038791906112ff565b5090915050336001600160a01b038216146103e25760405162461bcd60e51b815260206004820152601660248201527529b2ba3a32b91d102737ba103a34329039b2ba3a32b960511b60448201526064015b60405180910390fd5b60975460405163177bf36d60e31b81526001600160a01b03878116600483015286811660248301528581166044830152606482018590529091169063bbdf9b6890608401600060405180830381600087803b15801561044057600080fd5b505af1158015610454573d6000803e3d6000fd5b505050505050505050565b60008281526065602052604090206001015461047a81610c9e565b6104848383610cab565b505050565b6001600160a01b03811633146104f95760405162461bcd60e51b815260206004820152602f60248201527f416363657373436f6e74726f6c3a2063616e206f6e6c792072656e6f756e636560448201526e103937b632b9903337b91039b2b63360891b60648201526084016103d9565b6105038282610d31565b5050565b6040516301ffc9a760e01b81526001600160a01b038516906301ffc9a79061053a9063152a902d60e11b90600401611441565b60206040518083038186803b15801561055257600080fd5b505afa158015610566573d6000803e3d6000fd5b505050506040513d601f19601f8201168201806040525081019061058a9190611342565b156105d75760405162461bcd60e51b815260206004820152601a60248201527f4f776e65723a204d757374206e6f74206265204552433239383100000000000060448201526064016103d9565b836001600160a01b0316638da5cb5b6040518163ffffffff1660e01b815260040160206040518083038186803b15801561061057600080fd5b505afa158015610624573d6000803e3d6000fd5b505050506040513d601f19601f820116820180604052508101906106489190611258565b6001600160a01b0316336001600160a01b03161461069f5760405162461bcd60e51b815260206004820152601460248201527327bbb732b91d102737ba103a34329037bbb732b960611b60448201526064016103d9565b6106ab84848484610d98565b50505050565b600054610100900460ff16158080156106d15750600054600160ff909116105b806106eb5750303b1580156106eb575060005460ff166001145b61074e5760405162461bcd60e51b815260206004820152602e60248201527f496e697469616c697a61626c653a20636f6e747261637420697320616c72656160448201526d191e481a5b9a5d1a585b1a5e995960921b60648201526084016103d9565b6000805460ff191660011790558015610771576000805461ff0019166101001790555b610779610fc0565b610781610fc0565b336001600160a01b038416156107945750825b61079f600082610cab565b50609780546001600160a01b0319166001600160a01b0384161790558015610484576000805461ff0019169055604051600181527f7f26b83ff96e1f2b6a682f133852f6798a09c465da95921460cefb38474024989060200160405180910390a1505050565b60009182526065602090815260408084206001600160a01b0393909316845291905290205460ff1690565b6040516301ffc9a760e01b81526001600160a01b038516906301ffc9a7906108639063152a902d60e11b90600401611441565b60206040518083038186803b15801561087b57600080fd5b505afa15801561088f573d6000803e3d6000fd5b505050506040513d601f19601f820116820180604052508101906108b39190611342565b156109005760405162461bcd60e51b815260206004820152601a60248201527f41646d696e3a204d757374206e6f74206265204552433239383100000000000060448201526064016103d9565b836001600160a01b031663f851a4406040518163ffffffff1660e01b815260040160206040518083038186803b15801561093957600080fd5b505afa15801561094d573d6000803e3d6000fd5b505050506040513d601f19601f820116820180604052508101906109719190611258565b6001600160a01b0316336001600160a01b03161461069f5760405162461bcd60e51b815260206004820152601460248201527320b236b4b71d102737ba103a34329030b236b4b760611b60448201526064016103d9565b60006109d381610c9e565b60975460405163b9223c9d60e01b8152600481018490526001600160a01b039091169063b9223c9d90602401600060405180830381600087803b158015610a1957600080fd5b505af1158015610a2d573d6000803e3d6000fd5b505050505050565b60006103e281610c9e565b6097546040516338c7be4760e21b81526001600160a01b038381166004830152600092839283929091169063e31ef91c9060240160606040518083038186803b158015610a8c57600080fd5b505afa158015610aa0573d6000803e3d6000fd5b505050506040513d601f19601f82011682018060405250810190610ac491906112ff565b50909150506001600160a01b03811615610ae2579360009350915050565b6040516301ffc9a760e01b81526001600160a01b038516906301ffc9a790610b159063152a902d60e11b90600401611441565b60206040518083038186803b158015610b2d57600080fd5b505afa925050508015610b5d575060408051601f3d908101601f19168201909252610b5a91810190611342565b60015b610b6657610b7c565b8015610b7a57506000946001945092505050565b505b836001600160a01b0316638da5cb5b6040518163ffffffff1660e01b815260040160206040518083038186803b158015610bb557600080fd5b505afa925050508015610be5575060408051601f3d908101601f19168201909252610be291810190611258565b60015b610c6e57836001600160a01b031663f851a4406040518163ffffffff1660e01b815260040160206040518083038186803b158015610c2257600080fd5b505afa925050508015610c52575060408051601f3d908101601f19168201909252610c4f91810190611258565b60015b610c63575060009360049350915050565b946003945092505050565b946002945092505050565b600082815260656020526040902060010154610c9481610c9e565b6104848383610d31565b610ca8813361102d565b50565b610cb58282610805565b6105035760008281526065602090815260408083206001600160a01b03851684529091529020805460ff19166001179055610ced3390565b6001600160a01b0316816001600160a01b0316837f2f8788117e7eff1d82e926ec794901d17c78024a50270940304540a733656f0d60405160405180910390a45050565b610d3b8282610805565b156105035760008281526065602090815260408083206001600160a01b0385168085529252808320805460ff1916905551339285917ff6391f5c32d9c69d2a47ea670b442974b53935d1edc7fd64eb21e047a839171b9190a45050565b6097546040516338c7be4760e21b81526001600160a01b038681166004830152600092169063e31ef91c9060240160606040518083038186803b158015610dde57600080fd5b505afa158015610df2573d6000803e3d6000fd5b505050506040513d601f19601f82011682018060405250810190610e1691906112ff565b50909150506001600160a01b03811615610e685760405162461bcd60e51b815260206004820152601360248201527214d95d1d195c8e88105b1c9958591e481cd95d606a1b60448201526064016103d9565b6040516301ffc9a760e01b81526001600160a01b038616906301ffc9a790610e9b906380ac58cd60e01b90600401611441565b60206040518083038186803b158015610eb357600080fd5b505afa158015610ec7573d6000803e3d6000fd5b505050506040513d601f19601f82011682018060405250810190610eeb9190611342565b80610f7457506040516301ffc9a760e01b81526001600160a01b038616906301ffc9a790610f2490636cdb3d1360e11b90600401611441565b60206040518083038186803b158015610f3c57600080fd5b505afa158015610f50573d6000803e3d6000fd5b505050506040513d601f19601f82011682018060405250810190610f749190611342565b6103e25760405162461bcd60e51b815260206004820152601a60248201527f5365747465723a204e6f74204552433732312f4552433131353500000000000060448201526064016103d9565b600054610100900460ff1661102b5760405162461bcd60e51b815260206004820152602b60248201527f496e697469616c697a61626c653a20636f6e7472616374206973206e6f74206960448201526a6e697469616c697a696e6760a81b60648201526084016103d9565b565b6110378282610805565b6105035761104481611086565b61104f836020611098565b6040516020016110609291906113cc565b60408051601f198184030181529082905262461bcd60e51b82526103d991600401611456565b60606103036001600160a01b03831660145b606060006110a78360026114a1565b6110b2906002611489565b67ffffffffffffffff8111156110ca576110ca61152f565b6040519080825280601f01601f1916602001820160405280156110f4576020820181803683370190505b509050600360fc1b8160008151811061110f5761110f611519565b60200101906001600160f81b031916908160001a905350600f60fb1b8160018151811061113e5761113e611519565b60200101906001600160f81b031916908160001a90535060006111628460026114a1565b61116d906001611489565b90505b60018111156111e5576f181899199a1a9b1b9c1cb0b131b232b360811b85600f16601081106111a1576111a1611519565b1a60f81b8282815181106111b7576111b7611519565b60200101906001600160f81b031916908160001a90535060049490941c936111de816114ec565b9050611170565b5083156112345760405162461bcd60e51b815260206004820181905260248201527f537472696e67733a20686578206c656e67746820696e73756666696369656e7460448201526064016103d9565b9392505050565b60006020828403121561124d57600080fd5b813561123481611545565b60006020828403121561126a57600080fd5b815161123481611545565b6000806040838503121561128857600080fd5b823561129381611545565b915060208301356112a381611545565b809150509250929050565b600080600080608085870312156112c457600080fd5b84356112cf81611545565b935060208501356112df81611545565b925060408501356112ef81611545565b9396929550929360600135925050565b60008060006060848603121561131457600080fd5b835161131f81611545565b602085015190935061133081611545565b80925050604084015190509250925092565b60006020828403121561135457600080fd5b8151801515811461123457600080fd5b60006020828403121561137657600080fd5b5035919050565b6000806040838503121561139057600080fd5b8235915060208301356112a381611545565b6000602082840312156113b457600080fd5b81356001600160e01b03198116811461123457600080fd5b7f416363657373436f6e74726f6c3a206163636f756e74200000000000000000008152600083516114048160178501602088016114c0565b7001034b99036b4b9b9b4b733903937b6329607d1b60179184019182015283516114358160288401602088016114c0565b01602801949350505050565b6001600160e01b031991909116815260200190565b60208152600082518060208401526114758160408501602087016114c0565b601f01601f19169190910160400192915050565b6000821982111561149c5761149c611503565b500190565b60008160001904831182151516156114bb576114bb611503565b500290565b60005b838110156114db5781810151838201526020016114c3565b838111156106ab5750506000910152565b6000816114fb576114fb611503565b506000190190565b634e487b7160e01b600052601160045260246000fd5b634e487b7160e01b600052603260045260246000fd5b634e487b7160e01b600052604160045260246000fd5b6001600160a01b0381168114610ca857600080fdfea2646970667358221220474d70ff456211e80f122e1561618dae3876329e2981edcdd3821e8d8ff7b60864736f6c63430008070033",
  "devdoc": {
    "kind": "dev",
    "methods": {
      "checkForCollectionSetter(address)": {
        "params": {
          "collection": "collection address"
        },
        "returns": {
          "_0": "(whether there is a setter (address(0 if not)), Position 0: Royalty setter is set in the registry 1: ERC2981 and no setter 2: setter can be set using owner() 3: setter can be set using admin() 4: setter cannot be set, nor support for ERC2981"
        }
      },
      "constructor": {
        "custom:oz-upgrades-unsafe-allow": "constructor"
      },
      "getRoleAdmin(bytes32)": {
        "details": "Returns the admin role that controls `role`. See {grantRole} and {revokeRole}. To change a role's admin, use {_setRoleAdmin}."
      },
      "grantRole(bytes32,address)": {
        "details": "Grants `role` to `account`. If `account` had not been already granted `role`, emits a {RoleGranted} event. Requirements: - the caller must have ``role``'s admin role. May emit a {RoleGranted} event."
      },
      "hasRole(bytes32,address)": {
        "details": "Returns `true` if `account` has been granted `role`."
      },
      "initialize(address,address)": {
        "params": {
          "_royaltyFeeRegistry": "address of the royalty fee registry"
        }
      },
      "renounceRole(bytes32,address)": {
        "details": "Revokes `role` from the calling account. Roles are often managed via {grantRole} and {revokeRole}: this function's purpose is to provide a mechanism for accounts to lose their privileges if they are compromised (such as when a trusted device is misplaced). If the calling account had been revoked `role`, emits a {RoleRevoked} event. Requirements: - the caller must be `account`. May emit a {RoleRevoked} event."
      },
      "revokeRole(bytes32,address)": {
        "details": "Revokes `role` from `account`. If `account` had been granted `role`, emits a {RoleRevoked} event. Requirements: - the caller must have ``role``'s admin role. May emit a {RoleRevoked} event."
      },
      "supportsInterface(bytes4)": {
        "details": "See {IERC165-supportsInterface}."
      },
      "updateRoyaltyFeeLimit(uint256)": {
        "params": {
          "_royaltyFeeLimit": "new royalty fee limit (500 = 5%, 1,000 = 10%)"
        }
      },
      "updateRoyaltyInfoForCollection(address,address,address,uint256)": {
        "details": "Can only be called by contract owner (of this)",
        "params": {
          "collection": "address of the NFT contract",
          "fee": "fee (500 = 5%, 1,000 = 10%)",
          "receiver": "receiver for the royalty fee",
          "setter": "address that sets the receiver"
        }
      },
      "updateRoyaltyInfoForCollectionIfAdmin(address,address,address,uint256)": {
        "details": "Only to be called if there is no setter address",
        "params": {
          "collection": "address of the NFT contract",
          "fee": "fee (500 = 5%, 1,000 = 10%)",
          "receiver": "receiver for the royalty fee",
          "setter": "address that sets the receiver"
        }
      },
      "updateRoyaltyInfoForCollectionIfOwner(address,address,address,uint256)": {
        "details": "Only to be called if there is no setter address",
        "params": {
          "collection": "address of the NFT contract",
          "fee": "fee (500 = 5%, 1,000 = 10%)",
          "receiver": "receiver for the royalty fee",
          "setter": "address that sets the receiver"
        }
      },
      "updateRoyaltyInfoForCollectionIfSetter(address,address,address,uint256)": {
        "details": "Only to be called if there msg.sender is the setter",
        "params": {
          "collection": "address of the NFT contract",
          "fee": "fee (500 = 5%, 1,000 = 10%)",
          "receiver": "receiver for the royalty fee",
          "setter": "address that sets the receiver"
        }
      }
    },
    "title": "RoyaltyFeeSetter",
    "version": 1
  },
  "userdoc": {
    "kind": "user",
    "methods": {
      "checkForCollectionSetter(address)": {
        "notice": "Check royalty info for collection"
      },
      "initialize(address,address)": {
        "notice": "Initialize"
      },
      "updateRoyaltyFeeLimit(uint256)": {
        "notice": "Update royalty info for collection"
      },
      "updateRoyaltyInfoForCollection(address,address,address,uint256)": {
        "notice": "Update royalty info for collection"
      },
      "updateRoyaltyInfoForCollectionIfAdmin(address,address,address,uint256)": {
        "notice": "Update royalty info for collection if admin"
      },
      "updateRoyaltyInfoForCollectionIfOwner(address,address,address,uint256)": {
        "notice": "Update royalty info for collection if owner"
      },
      "updateRoyaltyInfoForCollectionIfSetter(address,address,address,uint256)": {
        "notice": "Update royalty info for collection"
      }
    },
    "notice": "It is used to allow creators to set royalty parameters in the RoyaltyFeeRegistry.",
    "version": 1
  },
  "storageLayout": {
    "storage": [
      {
        "astId": 415,
        "contract": "contracts/royaltyFeeHelpers/RoyaltyFeeSetter.sol:RoyaltyFeeSetter",
        "label": "_initialized",
        "offset": 0,
        "slot": "0",
        "type": "t_uint8"
      },
      {
        "astId": 418,
        "contract": "contracts/royaltyFeeHelpers/RoyaltyFeeSetter.sol:RoyaltyFeeSetter",
        "label": "_initializing",
        "offset": 1,
        "slot": "0",
        "type": "t_bool"
      },
      {
        "astId": 975,
        "contract": "contracts/royaltyFeeHelpers/RoyaltyFeeSetter.sol:RoyaltyFeeSetter",
        "label": "__gap",
        "offset": 0,
        "slot": "1",
        "type": "t_array(t_uint256)50_storage"
      },
      {
        "astId": 1194,
        "contract": "contracts/royaltyFeeHelpers/RoyaltyFeeSetter.sol:RoyaltyFeeSetter",
        "label": "__gap",
        "offset": 0,
        "slot": "51",
        "type": "t_array(t_uint256)50_storage"
      },
      {
        "astId": 39,
        "contract": "contracts/royaltyFeeHelpers/RoyaltyFeeSetter.sol:RoyaltyFeeSetter",
        "label": "_roles",
        "offset": 0,
        "slot": "101",
        "type": "t_mapping(t_bytes32,t_struct(RoleData)34_storage)"
      },
      {
        "astId": 334,
        "contract": "contracts/royaltyFeeHelpers/RoyaltyFeeSetter.sol:RoyaltyFeeSetter",
        "label": "__gap",
        "offset": 0,
        "slot": "102",
        "type": "t_array(t_uint256)49_storage"
      },
      {
        "astId": 14596,
        "contract": "contracts/royaltyFeeHelpers/RoyaltyFeeSetter.sol:RoyaltyFeeSetter",
        "label": "royaltyFeeRegistry",
        "offset": 0,
        "slot": "151",
        "type": "t_address"
      }
    ],
    "types": {
      "t_address": {
        "encoding": "inplace",
        "label": "address",
        "numberOfBytes": "20"
      },
      "t_array(t_uint256)49_storage": {
        "base": "t_uint256",
        "encoding": "inplace",
        "label": "uint256[49]",
        "numberOfBytes": "1568"
      },
      "t_array(t_uint256)50_storage": {
        "base": "t_uint256",
        "encoding": "inplace",
        "label": "uint256[50]",
        "numberOfBytes": "1600"
      },
      "t_bool": {
        "encoding": "inplace",
        "label": "bool",
        "numberOfBytes": "1"
      },
      "t_bytes32": {
        "encoding": "inplace",
        "label": "bytes32",
        "numberOfBytes": "32"
      },
      "t_mapping(t_address,t_bool)": {
        "encoding": "mapping",
        "key": "t_address",
        "label": "mapping(address => bool)",
        "numberOfBytes": "32",
        "value": "t_bool"
      },
      "t_mapping(t_bytes32,t_struct(RoleData)34_storage)": {
        "encoding": "mapping",
        "key": "t_bytes32",
        "label": "mapping(bytes32 => struct AccessControlUpgradeable.RoleData)",
        "numberOfBytes": "32",
        "value": "t_struct(RoleData)34_storage"
      },
      "t_struct(RoleData)34_storage": {
        "encoding": "inplace",
        "label": "struct AccessControlUpgradeable.RoleData",
        "members": [
          {
            "astId": 31,
            "contract": "contracts/royaltyFeeHelpers/RoyaltyFeeSetter.sol:RoyaltyFeeSetter",
            "label": "members",
            "offset": 0,
            "slot": "0",
            "type": "t_mapping(t_address,t_bool)"
          },
          {
            "astId": 33,
            "contract": "contracts/royaltyFeeHelpers/RoyaltyFeeSetter.sol:RoyaltyFeeSetter",
            "label": "adminRole",
            "offset": 0,
            "slot": "1",
            "type": "t_bytes32"
          }
        ],
        "numberOfBytes": "64"
      },
      "t_uint256": {
        "encoding": "inplace",
        "label": "uint256",
        "numberOfBytes": "32"
      },
      "t_uint8": {
        "encoding": "inplace",
        "label": "uint8",
        "numberOfBytes": "1"
      }
    }
  }
}