{
  "address": "0xa27f1C00ea0057C593D844840c2A5edFD4594894",
  "abi": [
    {
      "inputs": [],
      "stateMutability": "nonpayable",
      "type": "constructor"
    },
    {
      "anonymous": false,
      "inputs": [
        {
          "indexed": false,
          "internalType": "uint8",
          "name": "version",
          "type": "uint8"
        }
      ],
      "name": "Initialized",
      "type": "event"
    },
    {
      "anonymous": false,
      "inputs": [
        {
          "indexed": false,
          "internalType": "uint256",
          "name": "royaltyFeeLimit",
          "type": "uint256"
        }
      ],
      "name": "NewRoyaltyFeeLimit",
      "type": "event"
    },
    {
      "anonymous": false,
      "inputs": [
        {
          "indexed": true,
          "internalType": "bytes32",
          "name": "role",
          "type": "bytes32"
        },
        {
          "indexed": true,
          "internalType": "bytes32",
          "name": "previousAdminRole",
          "type": "bytes32"
        },
        {
          "indexed": true,
          "internalType": "bytes32",
          "name": "newAdminRole",
          "type": "bytes32"
        }
      ],
      "name": "RoleAdminChanged",
      "type": "event"
    },
    {
      "anonymous": false,
      "inputs": [
        {
          "indexed": true,
          "internalType": "bytes32",
          "name": "role",
          "type": "bytes32"
        },
        {
          "indexed": true,
          "internalType": "address",
          "name": "account",
          "type": "address"
        },
        {
          "indexed": true,
          "internalType": "address",
          "name": "sender",
          "type": "address"
        }
      ],
      "name": "RoleGranted",
      "type": "event"
    },
    {
      "anonymous": false,
      "inputs": [
        {
          "indexed": true,
          "internalType": "bytes32",
          "name": "role",
          "type": "bytes32"
        },
        {
          "indexed": true,
          "internalType": "address",
          "name": "account",
          "type": "address"
        },
        {
          "indexed": true,
          "internalType": "address",
          "name": "sender",
          "type": "address"
        }
      ],
      "name": "RoleRevoked",
      "type": "event"
    },
    {
      "anonymous": false,
      "inputs": [
        {
          "indexed": true,
          "internalType": "address",
          "name": "collection",
          "type": "address"
        },
        {
          "indexed": true,
          "internalType": "address",
          "name": "setter",
          "type": "address"
        },
        {
          "indexed": true,
          "internalType": "address",
          "name": "receiver",
          "type": "address"
        },
        {
          "indexed": false,
          "internalType": "uint256",
          "name": "fee",
          "type": "uint256"
        }
      ],
      "name": "RoyaltyFeeUpdate",
      "type": "event"
    },
    {
      "inputs": [],
      "name": "DEFAULT_ADMIN_ROLE",
      "outputs": [
        {
          "internalType": "bytes32",
          "name": "",
          "type": "bytes32"
        }
      ],
      "stateMutability": "view",
      "type": "function"
    },
    {
      "inputs": [],
      "name": "INTERACTABLE_ROLE",
      "outputs": [
        {
          "internalType": "bytes32",
          "name": "",
          "type": "bytes32"
        }
      ],
      "stateMutability": "view",
      "type": "function"
    },
    {
      "inputs": [
        {
          "internalType": "bytes32",
          "name": "role",
          "type": "bytes32"
        }
      ],
      "name": "getRoleAdmin",
      "outputs": [
        {
          "internalType": "bytes32",
          "name": "",
          "type": "bytes32"
        }
      ],
      "stateMutability": "view",
      "type": "function"
    },
    {
      "inputs": [
        {
          "internalType": "bytes32",
          "name": "role",
          "type": "bytes32"
        },
        {
          "internalType": "address",
          "name": "account",
          "type": "address"
        }
      ],
      "name": "grantRole",
      "outputs": [],
      "stateMutability": "nonpayable",
      "type": "function"
    },
    {
      "inputs": [
        {
          "internalType": "bytes32",
          "name": "role",
          "type": "bytes32"
        },
        {
          "internalType": "address",
          "name": "account",
          "type": "address"
        }
      ],
      "name": "hasRole",
      "outputs": [
        {
          "internalType": "bool",
          "name": "",
          "type": "bool"
        }
      ],
      "stateMutability": "view",
      "type": "function"
    },
    {
      "inputs": [
        {
          "internalType": "address",
          "name": "owner",
          "type": "address"
        },
        {
          "internalType": "uint256",
          "name": "_royaltyFeeLimit",
          "type": "uint256"
        }
      ],
      "name": "initialize",
      "outputs": [],
      "stateMutability": "nonpayable",
      "type": "function"
    },
    {
      "inputs": [
        {
          "internalType": "bytes32",
          "name": "role",
          "type": "bytes32"
        },
        {
          "internalType": "address",
          "name": "account",
          "type": "address"
        }
      ],
      "name": "renounceRole",
      "outputs": [],
      "stateMutability": "nonpayable",
      "type": "function"
    },
    {
      "inputs": [
        {
          "internalType": "bytes32",
          "name": "role",
          "type": "bytes32"
        },
        {
          "internalType": "address",
          "name": "account",
          "type": "address"
        }
      ],
      "name": "revokeRole",
      "outputs": [],
      "stateMutability": "nonpayable",
      "type": "function"
    },
    {
      "inputs": [
        {
          "internalType": "address",
          "name": "collection",
          "type": "address"
        }
      ],
      "name": "royaltyFeeInfoCollection",
      "outputs": [
        {
          "internalType": "address",
          "name": "",
          "type": "address"
        },
        {
          "internalType": "address",
          "name": "",
          "type": "address"
        },
        {
          "internalType": "uint256",
          "name": "",
          "type": "uint256"
        }
      ],
      "stateMutability": "view",
      "type": "function"
    },
    {
      "inputs": [],
      "name": "royaltyFeeLimit",
      "outputs": [
        {
          "internalType": "uint256",
          "name": "",
          "type": "uint256"
        }
      ],
      "stateMutability": "view",
      "type": "function"
    },
    {
      "inputs": [
        {
          "internalType": "address",
          "name": "collection",
          "type": "address"
        },
        {
          "internalType": "uint256",
          "name": "amount",
          "type": "uint256"
        }
      ],
      "name": "royaltyInfo",
      "outputs": [
        {
          "internalType": "address",
          "name": "",
          "type": "address"
        },
        {
          "internalType": "uint256",
          "name": "",
          "type": "uint256"
        }
      ],
      "stateMutability": "view",
      "type": "function"
    },
    {
      "inputs": [
        {
          "internalType": "bytes4",
          "name": "interfaceId",
          "type": "bytes4"
        }
      ],
      "name": "supportsInterface",
      "outputs": [
        {
          "internalType": "bool",
          "name": "",
          "type": "bool"
        }
      ],
      "stateMutability": "view",
      "type": "function"
    },
    {
      "inputs": [
        {
          "internalType": "uint256",
          "name": "_royaltyFeeLimit",
          "type": "uint256"
        }
      ],
      "name": "updateRoyaltyFeeLimit",
      "outputs": [],
      "stateMutability": "nonpayable",
      "type": "function"
    },
    {
      "inputs": [
        {
          "internalType": "address",
          "name": "collection",
          "type": "address"
        },
        {
          "internalType": "address",
          "name": "setter",
          "type": "address"
        },
        {
          "internalType": "address",
          "name": "receiver",
          "type": "address"
        },
        {
          "internalType": "uint256",
          "name": "fee",
          "type": "uint256"
        }
      ],
      "name": "updateRoyaltyInfoForCollection",
      "outputs": [],
      "stateMutability": "nonpayable",
      "type": "function"
    }
  ],
  "transactionHash": "0x4e64dfe934e9ee78025644d35a0c08f15d85e626149f8188d75e78fed38bb536",
  "args": [],
  "numDeployments": 1,
  "solcInputHash": "c72002ff3a68ffab7092fc689a582fa4",
  "bytecode": "0x608060405234801561001057600080fd5b5061001961001e565b6100de565b600054610100900460ff161561008a5760405162461bcd60e51b815260206004820152602760248201527f496e697469616c697a61626c653a20636f6e747261637420697320696e697469604482015266616c697a696e6760c81b606482015260840160405180910390fd5b60005460ff90811610156100dc576000805460ff191660ff9081179091556040519081527f7f26b83ff96e1f2b6a682f133852f6798a09c465da95921460cefb38474024989060200160405180910390a15b565b610dbd806100ed6000396000f3fe608060405234801561001057600080fd5b50600436106100ea5760003560e01c806391d148541161008c578063bbdf9b6811610066578063bbdf9b6814610200578063cd6dc68714610213578063d547741f14610226578063e31ef91c1461023957600080fd5b806391d14854146101d2578063a217fddf146101e5578063b9223c9d146101ed57600080fd5b80632f2ff15d116100c85780632f2ff15d1461017a57806336568abe1461018f5780634fb7d3f9146101a25780638d262bc6146101ab57600080fd5b806301ffc9a7146100ef578063248a9ca3146101175780632782d6c714610148575b600080fd5b6101026100fd366004610b92565b61029f565b60405190151581526020015b60405180910390f35b61013a610125366004610b4d565b60009081526065602052604090206001015490565b60405190815260200161010e565b61015b610156366004610b23565b6102d6565b604080516001600160a01b03909316835260208301919091520161010e565b61018d610188366004610b66565b610324565b005b61018d61019d366004610b66565b61034e565b61013a60975481565b61013a7f7ed2102e03ded500bae20e4c83c918318ae7053f415a3b809819ebe1f9c76cfa81565b6101026101e0366004610b66565b6103d1565b61013a600081565b61018d6101fb366004610b4d565b6103fc565b61018d61020e366004610ad8565b610484565b61018d610221366004610b23565b6105a7565b61018d610234366004610b66565b610707565b610279610247366004610abd565b6001600160a01b0390811660009081526098602052604090208054600182015460029092015490831693919092169190565b604080516001600160a01b0394851681529390921660208401529082015260600161010e565b60006001600160e01b03198216637965db0b60e01b14806102d057506301ffc9a760e01b6001600160e01b03198316145b92915050565b6001600160a01b0380831660009081526098602052604081206001810154600290910154919283929116906127109061030f9086610cdf565b6103199190610cbd565b915091509250929050565b60008281526065602052604090206001015461033f8161072c565b6103498383610739565b505050565b6001600160a01b03811633146103c35760405162461bcd60e51b815260206004820152602f60248201527f416363657373436f6e74726f6c3a2063616e206f6e6c792072656e6f756e636560448201526e103937b632b9903337b91039b2b63360891b60648201526084015b60405180910390fd5b6103cd82826107bf565b5050565b60009182526065602090815260408084206001600160a01b0393909316845291905290205460ff1690565b7f7ed2102e03ded500bae20e4c83c918318ae7053f415a3b809819ebe1f9c76cfa6104268161072c565b61251c8211156104485760405162461bcd60e51b81526004016103ba90610c64565b60978290556040518281527f2da7166c72ef3860ef4fb2571105533c40615269a6dbc38ce0b264910df1c2569060200160405180910390a15050565b7f7ed2102e03ded500bae20e4c83c918318ae7053f415a3b809819ebe1f9c76cfa6104ae8161072c565b6097548211156105005760405162461bcd60e51b815260206004820152601e60248201527f52656769737472793a20526f79616c74792066656520746f6f2068696768000060448201526064016103ba565b604080516060810182526001600160a01b0386811680835286821660208085018281528587018981528c8616600081815260988552899020975188549088166001600160a01b03199182161789559251600189018054919098169316929092179095559351600290950194909455935186815290927fd01984afa6e37420452e575e7d99dd7e632b3ec8ea2adec998475b76ca494d64910160405180910390a45050505050565b600054610100900460ff16158080156105c75750600054600160ff909116105b806105e15750303b1580156105e1575060005460ff166001145b6106445760405162461bcd60e51b815260206004820152602e60248201527f496e697469616c697a61626c653a20636f6e747261637420697320616c72656160448201526d191e481a5b9a5d1a585b1a5e995960921b60648201526084016103ba565b6000805460ff191660011790558015610667576000805461ff0019166101001790555b61066f610826565b610677610826565b336001600160a01b0384161561068a5750825b610695600082610739565b61251c8311156106b75760405162461bcd60e51b81526004016103ba90610c64565b5060978290558015610349576000805461ff0019169055604051600181527f7f26b83ff96e1f2b6a682f133852f6798a09c465da95921460cefb38474024989060200160405180910390a1505050565b6000828152606560205260409020600101546107228161072c565b61034983836107bf565b6107368133610893565b50565b61074382826103d1565b6103cd5760008281526065602090815260408083206001600160a01b03851684529091529020805460ff1916600117905561077b3390565b6001600160a01b0316816001600160a01b0316837f2f8788117e7eff1d82e926ec794901d17c78024a50270940304540a733656f0d60405160405180910390a45050565b6107c982826103d1565b156103cd5760008281526065602090815260408083206001600160a01b0385168085529252808320805460ff1916905551339285917ff6391f5c32d9c69d2a47ea670b442974b53935d1edc7fd64eb21e047a839171b9190a45050565b600054610100900460ff166108915760405162461bcd60e51b815260206004820152602b60248201527f496e697469616c697a61626c653a20636f6e7472616374206973206e6f74206960448201526a6e697469616c697a696e6760a81b60648201526084016103ba565b565b61089d82826103d1565b6103cd576108aa816108ec565b6108b58360206108fe565b6040516020016108c6929190610bbc565b60408051601f198184030181529082905262461bcd60e51b82526103ba91600401610c31565b60606102d06001600160a01b03831660145b6060600061090d836002610cdf565b610918906002610ca5565b67ffffffffffffffff81111561093057610930610d71565b6040519080825280601f01601f19166020018201604052801561095a576020820181803683370190505b509050600360fc1b8160008151811061097557610975610d5b565b60200101906001600160f81b031916908160001a905350600f60fb1b816001815181106109a4576109a4610d5b565b60200101906001600160f81b031916908160001a90535060006109c8846002610cdf565b6109d3906001610ca5565b90505b6001811115610a4b576f181899199a1a9b1b9c1cb0b131b232b360811b85600f1660108110610a0757610a07610d5b565b1a60f81b828281518110610a1d57610a1d610d5b565b60200101906001600160f81b031916908160001a90535060049490941c93610a4481610d2e565b90506109d6565b508315610a9a5760405162461bcd60e51b815260206004820181905260248201527f537472696e67733a20686578206c656e67746820696e73756666696369656e7460448201526064016103ba565b9392505050565b80356001600160a01b0381168114610ab857600080fd5b919050565b600060208284031215610acf57600080fd5b610a9a82610aa1565b60008060008060808587031215610aee57600080fd5b610af785610aa1565b9350610b0560208601610aa1565b9250610b1360408601610aa1565b9396929550929360600135925050565b60008060408385031215610b3657600080fd5b610b3f83610aa1565b946020939093013593505050565b600060208284031215610b5f57600080fd5b5035919050565b60008060408385031215610b7957600080fd5b82359150610b8960208401610aa1565b90509250929050565b600060208284031215610ba457600080fd5b81356001600160e01b031981168114610a9a57600080fd5b7f416363657373436f6e74726f6c3a206163636f756e7420000000000000000000815260008351610bf4816017850160208801610cfe565b7001034b99036b4b9b9b4b733903937b6329607d1b6017918401918201528351610c25816028840160208801610cfe565b01602801949350505050565b6020815260008251806020840152610c50816040850160208701610cfe565b601f01601f19169190910160400192915050565b60208082526021908201527f4f776e65723a20526f79616c747920666565206c696d697420746f6f206869676040820152600d60fb1b606082015260800190565b60008219821115610cb857610cb8610d45565b500190565b600082610cda57634e487b7160e01b600052601260045260246000fd5b500490565b6000816000190483118215151615610cf957610cf9610d45565b500290565b60005b83811015610d19578181015183820152602001610d01565b83811115610d28576000848401525b50505050565b600081610d3d57610d3d610d45565b506000190190565b634e487b7160e01b600052601160045260246000fd5b634e487b7160e01b600052603260045260246000fd5b634e487b7160e01b600052604160045260246000fdfea26469706673582212203fcaa661af49f8217b1e59ebb889a92f84f05166441e72c3d31fbc61337df02e64736f6c63430008070033",
  "devdoc": {
    "kind": "dev",
    "methods": {
      "constructor": {
        "custom:oz-upgrades-unsafe-allow": "constructor"
      },
      "getRoleAdmin(bytes32)": {
        "details": "Returns the admin role that controls `role`. See {grantRole} and {revokeRole}. To change a role's admin, use {_setRoleAdmin}."
      },
      "grantRole(bytes32,address)": {
        "details": "Grants `role` to `account`. If `account` had not been already granted `role`, emits a {RoleGranted} event. Requirements: - the caller must have ``role``'s admin role. May emit a {RoleGranted} event."
      },
      "hasRole(bytes32,address)": {
        "details": "Returns `true` if `account` has been granted `role`."
      },
      "initialize(address,uint256)": {
        "params": {
          "_royaltyFeeLimit": "new royalty fee limit (500 = 5%, 1,000 = 10%)"
        }
      },
      "renounceRole(bytes32,address)": {
        "details": "Revokes `role` from the calling account. Roles are often managed via {grantRole} and {revokeRole}: this function's purpose is to provide a mechanism for accounts to lose their privileges if they are compromised (such as when a trusted device is misplaced). If the calling account had been revoked `role`, emits a {RoleRevoked} event. Requirements: - the caller must be `account`. May emit a {RoleRevoked} event."
      },
      "revokeRole(bytes32,address)": {
        "details": "Revokes `role` from `account`. If `account` had been granted `role`, emits a {RoleRevoked} event. Requirements: - the caller must have ``role``'s admin role. May emit a {RoleRevoked} event."
      },
      "royaltyFeeInfoCollection(address)": {
        "params": {
          "collection": "collection address"
        }
      },
      "royaltyInfo(address,uint256)": {
        "params": {
          "amount": "amount",
          "collection": "collection address"
        },
        "returns": {
          "_0": "receiver address and amount received by royalty recipient"
        }
      },
      "supportsInterface(bytes4)": {
        "details": "See {IERC165-supportsInterface}."
      },
      "updateRoyaltyFeeLimit(uint256)": {
        "params": {
          "_royaltyFeeLimit": "new royalty fee limit (500 = 5%, 1,000 = 10%)"
        }
      },
      "updateRoyaltyInfoForCollection(address,address,address,uint256)": {
        "params": {
          "collection": "address of the NFT contract",
          "fee": "fee (500 = 5%, 1,000 = 10%)",
          "receiver": "receiver for the royalty fee",
          "setter": "address that sets the receiver"
        }
      }
    },
    "title": "RoyaltyFeeRegistry",
    "version": 1
  },
  "userdoc": {
    "kind": "user",
    "methods": {
      "initialize(address,uint256)": {
        "notice": "Initialize"
      },
      "royaltyFeeInfoCollection(address)": {
        "notice": "View royalty info for a collection address"
      },
      "royaltyInfo(address,uint256)": {
        "notice": "Calculate royalty info for a collection address and a sale gross amount"
      },
      "updateRoyaltyFeeLimit(uint256)": {
        "notice": "Update royalty info for collection"
      },
      "updateRoyaltyInfoForCollection(address,address,address,uint256)": {
        "notice": "Update royalty info for collection"
      }
    },
    "notice": "It is a royalty fee registry for the DareMarket.",
    "version": 1
  },
  "storageLayout": {
    "storage": [
      {
        "astId": 415,
        "contract": "contracts/royaltyFeeHelpers/RoyaltyFeeRegistry.sol:RoyaltyFeeRegistry",
        "label": "_initialized",
        "offset": 0,
        "slot": "0",
        "type": "t_uint8"
      },
      {
        "astId": 418,
        "contract": "contracts/royaltyFeeHelpers/RoyaltyFeeRegistry.sol:RoyaltyFeeRegistry",
        "label": "_initializing",
        "offset": 1,
        "slot": "0",
        "type": "t_bool"
      },
      {
        "astId": 975,
        "contract": "contracts/royaltyFeeHelpers/RoyaltyFeeRegistry.sol:RoyaltyFeeRegistry",
        "label": "__gap",
        "offset": 0,
        "slot": "1",
        "type": "t_array(t_uint256)50_storage"
      },
      {
        "astId": 1194,
        "contract": "contracts/royaltyFeeHelpers/RoyaltyFeeRegistry.sol:RoyaltyFeeRegistry",
        "label": "__gap",
        "offset": 0,
        "slot": "51",
        "type": "t_array(t_uint256)50_storage"
      },
      {
        "astId": 39,
        "contract": "contracts/royaltyFeeHelpers/RoyaltyFeeRegistry.sol:RoyaltyFeeRegistry",
        "label": "_roles",
        "offset": 0,
        "slot": "101",
        "type": "t_mapping(t_bytes32,t_struct(RoleData)34_storage)"
      },
      {
        "astId": 334,
        "contract": "contracts/royaltyFeeHelpers/RoyaltyFeeRegistry.sol:RoyaltyFeeRegistry",
        "label": "__gap",
        "offset": 0,
        "slot": "102",
        "type": "t_array(t_uint256)49_storage"
      },
      {
        "astId": 14368,
        "contract": "contracts/royaltyFeeHelpers/RoyaltyFeeRegistry.sol:RoyaltyFeeRegistry",
        "label": "royaltyFeeLimit",
        "offset": 0,
        "slot": "151",
        "type": "t_uint256"
      },
      {
        "astId": 14373,
        "contract": "contracts/royaltyFeeHelpers/RoyaltyFeeRegistry.sol:RoyaltyFeeRegistry",
        "label": "_royaltyFeeInfoCollection",
        "offset": 0,
        "slot": "152",
        "type": "t_mapping(t_address,t_struct(FeeInfo)14366_storage)"
      }
    ],
    "types": {
      "t_address": {
        "encoding": "inplace",
        "label": "address",
        "numberOfBytes": "20"
      },
      "t_array(t_uint256)49_storage": {
        "base": "t_uint256",
        "encoding": "inplace",
        "label": "uint256[49]",
        "numberOfBytes": "1568"
      },
      "t_array(t_uint256)50_storage": {
        "base": "t_uint256",
        "encoding": "inplace",
        "label": "uint256[50]",
        "numberOfBytes": "1600"
      },
      "t_bool": {
        "encoding": "inplace",
        "label": "bool",
        "numberOfBytes": "1"
      },
      "t_bytes32": {
        "encoding": "inplace",
        "label": "bytes32",
        "numberOfBytes": "32"
      },
      "t_mapping(t_address,t_bool)": {
        "encoding": "mapping",
        "key": "t_address",
        "label": "mapping(address => bool)",
        "numberOfBytes": "32",
        "value": "t_bool"
      },
      "t_mapping(t_address,t_struct(FeeInfo)14366_storage)": {
        "encoding": "mapping",
        "key": "t_address",
        "label": "mapping(address => struct RoyaltyFeeRegistry.FeeInfo)",
        "numberOfBytes": "32",
        "value": "t_struct(FeeInfo)14366_storage"
      },
      "t_mapping(t_bytes32,t_struct(RoleData)34_storage)": {
        "encoding": "mapping",
        "key": "t_bytes32",
        "label": "mapping(bytes32 => struct AccessControlUpgradeable.RoleData)",
        "numberOfBytes": "32",
        "value": "t_struct(RoleData)34_storage"
      },
      "t_struct(FeeInfo)14366_storage": {
        "encoding": "inplace",
        "label": "struct RoyaltyFeeRegistry.FeeInfo",
        "members": [
          {
            "astId": 14361,
            "contract": "contracts/royaltyFeeHelpers/RoyaltyFeeRegistry.sol:RoyaltyFeeRegistry",
            "label": "setter",
            "offset": 0,
            "slot": "0",
            "type": "t_address"
          },
          {
            "astId": 14363,
            "contract": "contracts/royaltyFeeHelpers/RoyaltyFeeRegistry.sol:RoyaltyFeeRegistry",
            "label": "receiver",
            "offset": 0,
            "slot": "1",
            "type": "t_address"
          },
          {
            "astId": 14365,
            "contract": "contracts/royaltyFeeHelpers/RoyaltyFeeRegistry.sol:RoyaltyFeeRegistry",
            "label": "fee",
            "offset": 0,
            "slot": "2",
            "type": "t_uint256"
          }
        ],
        "numberOfBytes": "96"
      },
      "t_struct(RoleData)34_storage": {
        "encoding": "inplace",
        "label": "struct AccessControlUpgradeable.RoleData",
        "members": [
          {
            "astId": 31,
            "contract": "contracts/royaltyFeeHelpers/RoyaltyFeeRegistry.sol:RoyaltyFeeRegistry",
            "label": "members",
            "offset": 0,
            "slot": "0",
            "type": "t_mapping(t_address,t_bool)"
          },
          {
            "astId": 33,
            "contract": "contracts/royaltyFeeHelpers/RoyaltyFeeRegistry.sol:RoyaltyFeeRegistry",
            "label": "adminRole",
            "offset": 0,
            "slot": "1",
            "type": "t_bytes32"
          }
        ],
        "numberOfBytes": "64"
      },
      "t_uint256": {
        "encoding": "inplace",
        "label": "uint256",
        "numberOfBytes": "32"
      },
      "t_uint8": {
        "encoding": "inplace",
        "label": "uint8",
        "numberOfBytes": "1"
      }
    }
  }
}